{
	"Section 1/MappingExample.sol": {
		"MappingExample": {
			"abi": [
				{
					"inputs": [
						{
							"internalType": "uint256",
							"name": "_myUint",
							"type": "uint256"
						}
					],
					"name": "MyUintToBool",
					"outputs": [],
					"stateMutability": "nonpayable",
					"type": "function"
				},
				{
					"inputs": [
						{
							"internalType": "uint256",
							"name": "_setIndex",
							"type": "uint256"
						}
					],
					"name": "SetDepositInfo",
					"outputs": [],
					"stateMutability": "payable",
					"type": "function"
				},
				{
					"inputs": [],
					"name": "SetMyAddress",
					"outputs": [],
					"stateMutability": "nonpayable",
					"type": "function"
				},
				{
					"inputs": [],
					"name": "checkBalanceInfo",
					"outputs": [
						{
							"internalType": "uint256",
							"name": "",
							"type": "uint256"
						}
					],
					"stateMutability": "view",
					"type": "function"
				},
				{
					"inputs": [],
					"name": "deposit",
					"outputs": [],
					"stateMutability": "payable",
					"type": "function"
				},
				{
					"inputs": [
						{
							"internalType": "address",
							"name": "",
							"type": "address"
						}
					],
					"name": "deposits",
					"outputs": [
						{
							"internalType": "uint256",
							"name": "",
							"type": "uint256"
						}
					],
					"stateMutability": "view",
					"type": "function"
				},
				{
					"inputs": [
						{
							"internalType": "address",
							"name": "",
							"type": "address"
						}
					],
					"name": "favoriteWord",
					"outputs": [
						{
							"internalType": "string",
							"name": "",
							"type": "string"
						}
					],
					"stateMutability": "view",
					"type": "function"
				},
				{
					"inputs": [
						{
							"internalType": "address",
							"name": "",
							"type": "address"
						}
					],
					"name": "myAddressInfo",
					"outputs": [
						{
							"internalType": "uint256",
							"name": "",
							"type": "uint256"
						}
					],
					"stateMutability": "view",
					"type": "function"
				},
				{
					"inputs": [
						{
							"internalType": "string",
							"name": "_myFavoriteWord",
							"type": "string"
						}
					],
					"name": "setMyFavorite",
					"outputs": [],
					"stateMutability": "nonpayable",
					"type": "function"
				},
				{
					"inputs": [
						{
							"internalType": "uint256",
							"name": "",
							"type": "uint256"
						}
					],
					"name": "uintToBool",
					"outputs": [
						{
							"internalType": "bool",
							"name": "",
							"type": "bool"
						}
					],
					"stateMutability": "view",
					"type": "function"
				},
				{
					"inputs": [
						{
							"internalType": "address",
							"name": "",
							"type": "address"
						},
						{
							"internalType": "uint256",
							"name": "",
							"type": "uint256"
						}
					],
					"name": "valueSent",
					"outputs": [
						{
							"internalType": "uint256",
							"name": "",
							"type": "uint256"
						}
					],
					"stateMutability": "view",
					"type": "function"
				},
				{
					"inputs": [],
					"name": "withdrawal",
					"outputs": [],
					"stateMutability": "payable",
					"type": "function"
				}
			],
			"devdoc": {
				"kind": "dev",
				"methods": {},
				"version": 1
			},
			"evm": {
				"assembly": "    /* \"Section 1/MappingExample.sol\":61:1218  contract MappingExample {... */\n  mstore(0x40, 0x80)\n  callvalue\n  dup1\n  iszero\n  tag_1\n  jumpi\n  0x00\n  dup1\n  revert\ntag_1:\n  pop\n  dataSize(sub_0)\n  dup1\n  dataOffset(sub_0)\n  0x00\n  codecopy\n  0x00\n  return\nstop\n\nsub_0: assembly {\n        /* \"Section 1/MappingExample.sol\":61:1218  contract MappingExample {... */\n      mstore(0x40, 0x80)\n      jumpi(tag_1, lt(calldatasize, 0x04))\n      shr(0xe0, calldataload(0x00))\n      dup1\n      0xcc9444e8\n      gt\n      tag_14\n      jumpi\n      dup1\n      0xcc9444e8\n      eq\n      tag_8\n      jumpi\n      dup1\n      0xd0e30db0\n      eq\n      tag_9\n      jumpi\n      dup1\n      0xd4e93292\n      eq\n      tag_10\n      jumpi\n      dup1\n      0xe89413c3\n      eq\n      tag_11\n      jumpi\n      dup1\n      0xf3360168\n      eq\n      tag_12\n      jumpi\n      dup1\n      0xfc7e286d\n      eq\n      tag_13\n      jumpi\n      jump(tag_1)\n    tag_14:\n      dup1\n      0x0a7bb629\n      eq\n      tag_2\n      jumpi\n      dup1\n      0x14aff0a0\n      eq\n      tag_3\n      jumpi\n      dup1\n      0x2c3afef3\n      eq\n      tag_4\n      jumpi\n      dup1\n      0x612eb5cc\n      eq\n      tag_5\n      jumpi\n      dup1\n      0xa2b5a8a5\n      eq\n      tag_6\n      jumpi\n      dup1\n      0xa8c1a589\n      eq\n      tag_7\n      jumpi\n    tag_1:\n      0x00\n      dup1\n      revert\n        /* \"Section 1/MappingExample.sol\":692:815  function setMyFavorite (string memory _myFavoriteWord) public {... */\n    tag_2:\n      callvalue\n      dup1\n      iszero\n      tag_15\n      jumpi\n      0x00\n      dup1\n      revert\n    tag_15:\n      pop\n      tag_16\n      0x04\n      dup1\n      calldatasize\n      sub\n      dup2\n      add\n      swap1\n      tag_17\n      swap2\n      swap1\n      tag_18\n      jump\t// in\n    tag_17:\n      tag_19\n      jump\t// in\n    tag_16:\n      stop\n        /* \"Section 1/MappingExample.sol\":462:559  function SetMyAddress () public {... */\n    tag_3:\n      callvalue\n      dup1\n      iszero\n      tag_20\n      jumpi\n      0x00\n      dup1\n      revert\n    tag_20:\n      pop\n      tag_21\n      tag_22\n      jump\t// in\n    tag_21:\n      stop\n        /* \"Section 1/MappingExample.sol\":567:686  function SetDepositInfo (uint _setIndex) public payable {... */\n    tag_4:\n      tag_23\n      0x04\n      dup1\n      calldatasize\n      sub\n      dup2\n      add\n      swap1\n      tag_24\n      swap2\n      swap1\n      tag_25\n      jump\t// in\n    tag_24:\n      tag_26\n      jump\t// in\n    tag_23:\n      stop\n        /* \"Section 1/MappingExample.sol\":94:134  mapping (uint => bool) public uintToBool */\n    tag_5:\n      callvalue\n      dup1\n      iszero\n      tag_27\n      jumpi\n      0x00\n      dup1\n      revert\n    tag_27:\n      pop\n      tag_28\n      0x04\n      dup1\n      calldatasize\n      sub\n      dup2\n      add\n      swap1\n      tag_29\n      swap2\n      swap1\n      tag_25\n      jump\t// in\n    tag_29:\n      tag_30\n      jump\t// in\n    tag_28:\n      mload(0x40)\n      tag_31\n      swap2\n      swap1\n      tag_32\n      jump\t// in\n    tag_31:\n      mload(0x40)\n      dup1\n      swap2\n      sub\n      swap1\n      return\n        /* \"Section 1/MappingExample.sol\":194:241  mapping (address => string) public favoriteWord */\n    tag_6:\n      callvalue\n      dup1\n      iszero\n      tag_33\n      jumpi\n      0x00\n      dup1\n      revert\n    tag_33:\n      pop\n      tag_34\n      0x04\n      dup1\n      calldatasize\n      sub\n      dup2\n      add\n      swap1\n      tag_35\n      swap2\n      swap1\n      tag_36\n      jump\t// in\n    tag_35:\n      tag_37\n      jump\t// in\n    tag_34:\n      mload(0x40)\n      tag_38\n      swap2\n      swap1\n      tag_39\n      jump\t// in\n    tag_38:\n      mload(0x40)\n      dup1\n      swap2\n      sub\n      swap1\n      return\n        /* \"Section 1/MappingExample.sol\":365:454  function MyUintToBool (uint _myUint) public {... */\n    tag_7:\n      callvalue\n      dup1\n      iszero\n      tag_40\n      jumpi\n      0x00\n      dup1\n      revert\n    tag_40:\n      pop\n      tag_41\n      0x04\n      dup1\n      calldatasize\n      sub\n      dup2\n      add\n      swap1\n      tag_42\n      swap2\n      swap1\n      tag_25\n      jump\t// in\n    tag_42:\n      tag_43\n      jump\t// in\n    tag_41:\n      stop\n        /* \"Section 1/MappingExample.sol\":248:308  mapping (address => mapping (uint => uint)) public valueSent */\n    tag_8:\n      callvalue\n      dup1\n      iszero\n      tag_44\n      jumpi\n      0x00\n      dup1\n      revert\n    tag_44:\n      pop\n      tag_45\n      0x04\n      dup1\n      calldatasize\n      sub\n      dup2\n      add\n      swap1\n      tag_46\n      swap2\n      swap1\n      tag_47\n      jump\t// in\n    tag_46:\n      tag_48\n      jump\t// in\n    tag_45:\n      mload(0x40)\n      tag_49\n      swap2\n      swap1\n      tag_50\n      jump\t// in\n    tag_49:\n      mload(0x40)\n      dup1\n      swap2\n      sub\n      swap1\n      return\n        /* \"Section 1/MappingExample.sol\":821:908  function deposit () public payable {... */\n    tag_9:\n      tag_51\n      tag_52\n      jump\t// in\n    tag_51:\n      stop\n        /* \"Section 1/MappingExample.sol\":1027:1213  function withdrawal () public payable{... */\n    tag_10:\n      tag_53\n      tag_54\n      jump\t// in\n    tag_53:\n      stop\n        /* \"Section 1/MappingExample.sol\":916:1019  function checkBalanceInfo () public view returns (uint) {... */\n    tag_11:\n      callvalue\n      dup1\n      iszero\n      tag_55\n      jumpi\n      0x00\n      dup1\n      revert\n    tag_55:\n      pop\n      tag_56\n      tag_57\n      jump\t// in\n    tag_56:\n      mload(0x40)\n      tag_58\n      swap2\n      swap1\n      tag_50\n      jump\t// in\n    tag_58:\n      mload(0x40)\n      dup1\n      swap2\n      sub\n      swap1\n      return\n        /* \"Section 1/MappingExample.sol\":141:187  mapping (address => uint) public myAddressInfo */\n    tag_12:\n      callvalue\n      dup1\n      iszero\n      tag_59\n      jumpi\n      0x00\n      dup1\n      revert\n    tag_59:\n      pop\n      tag_60\n      0x04\n      dup1\n      calldatasize\n      sub\n      dup2\n      add\n      swap1\n      tag_61\n      swap2\n      swap1\n      tag_36\n      jump\t// in\n    tag_61:\n      tag_62\n      jump\t// in\n    tag_60:\n      mload(0x40)\n      tag_63\n      swap2\n      swap1\n      tag_50\n      jump\t// in\n    tag_63:\n      mload(0x40)\n      dup1\n      swap2\n      sub\n      swap1\n      return\n        /* \"Section 1/MappingExample.sol\":315:356  mapping (address => uint) public deposits */\n    tag_13:\n      callvalue\n      dup1\n      iszero\n      tag_64\n      jumpi\n      0x00\n      dup1\n      revert\n    tag_64:\n      pop\n      tag_65\n      0x04\n      dup1\n      calldatasize\n      sub\n      dup2\n      add\n      swap1\n      tag_66\n      swap2\n      swap1\n      tag_36\n      jump\t// in\n    tag_66:\n      tag_67\n      jump\t// in\n    tag_65:\n      mload(0x40)\n      tag_68\n      swap2\n      swap1\n      tag_50\n      jump\t// in\n    tag_68:\n      mload(0x40)\n      dup1\n      swap2\n      sub\n      swap1\n      return\n        /* \"Section 1/MappingExample.sol\":692:815  function setMyFavorite (string memory _myFavoriteWord) public {... */\n    tag_19:\n        /* \"Section 1/MappingExample.sol\":792:807  _myFavoriteWord */\n      dup1\n        /* \"Section 1/MappingExample.sol\":765:777  favoriteWord */\n      0x02\n        /* \"Section 1/MappingExample.sol\":765:789  favoriteWord[msg.sender] */\n      0x00\n        /* \"Section 1/MappingExample.sol\":778:788  msg.sender */\n      caller\n        /* \"Section 1/MappingExample.sol\":765:789  favoriteWord[msg.sender] */\n      0xffffffffffffffffffffffffffffffffffffffff\n      and\n      0xffffffffffffffffffffffffffffffffffffffff\n      and\n      dup2\n      mstore\n      0x20\n      add\n      swap1\n      dup2\n      mstore\n      0x20\n      add\n      0x00\n      keccak256\n        /* \"Section 1/MappingExample.sol\":765:807  favoriteWord[msg.sender] = _myFavoriteWord */\n      swap1\n      dup1\n      mload\n      swap1\n      0x20\n      add\n      swap1\n      tag_70\n      swap3\n      swap2\n      swap1\n      tag_71\n      jump\t// in\n    tag_70:\n      pop\n        /* \"Section 1/MappingExample.sol\":692:815  function setMyFavorite (string memory _myFavoriteWord) public {... */\n      pop\n      jump\t// out\n        /* \"Section 1/MappingExample.sol\":462:559  function SetMyAddress () public {... */\n    tag_22:\n        /* \"Section 1/MappingExample.sol\":533:543  msg.sender */\n      caller\n        /* \"Section 1/MappingExample.sol\":533:551  msg.sender.balance */\n      0xffffffffffffffffffffffffffffffffffffffff\n      and\n      balance\n        /* \"Section 1/MappingExample.sol\":505:518  myAddressInfo */\n      0x01\n        /* \"Section 1/MappingExample.sol\":505:530  myAddressInfo[msg.sender] */\n      0x00\n        /* \"Section 1/MappingExample.sol\":519:529  msg.sender */\n      caller\n        /* \"Section 1/MappingExample.sol\":505:530  myAddressInfo[msg.sender] */\n      0xffffffffffffffffffffffffffffffffffffffff\n      and\n      0xffffffffffffffffffffffffffffffffffffffff\n      and\n      dup2\n      mstore\n      0x20\n      add\n      swap1\n      dup2\n      mstore\n      0x20\n      add\n      0x00\n      keccak256\n        /* \"Section 1/MappingExample.sol\":505:551  myAddressInfo[msg.sender] = msg.sender.balance */\n      dup2\n      swap1\n      sstore\n      pop\n        /* \"Section 1/MappingExample.sol\":462:559  function SetMyAddress () public {... */\n      jump\t// out\n        /* \"Section 1/MappingExample.sol\":567:686  function SetDepositInfo (uint _setIndex) public payable {... */\n    tag_26:\n        /* \"Section 1/MappingExample.sol\":669:678  msg.value */\n      callvalue\n        /* \"Section 1/MappingExample.sol\":634:643  valueSent */\n      0x03\n        /* \"Section 1/MappingExample.sol\":634:655  valueSent[msg.sender] */\n      0x00\n        /* \"Section 1/MappingExample.sol\":644:654  msg.sender */\n      caller\n        /* \"Section 1/MappingExample.sol\":634:655  valueSent[msg.sender] */\n      0xffffffffffffffffffffffffffffffffffffffff\n      and\n      0xffffffffffffffffffffffffffffffffffffffff\n      and\n      dup2\n      mstore\n      0x20\n      add\n      swap1\n      dup2\n      mstore\n      0x20\n      add\n      0x00\n      keccak256\n        /* \"Section 1/MappingExample.sol\":634:666  valueSent[msg.sender][_setIndex] */\n      0x00\n        /* \"Section 1/MappingExample.sol\":656:665  _setIndex */\n      dup4\n        /* \"Section 1/MappingExample.sol\":634:666  valueSent[msg.sender][_setIndex] */\n      dup2\n      mstore\n      0x20\n      add\n      swap1\n      dup2\n      mstore\n      0x20\n      add\n      0x00\n      keccak256\n        /* \"Section 1/MappingExample.sol\":634:678  valueSent[msg.sender][_setIndex] = msg.value */\n      dup2\n      swap1\n      sstore\n      pop\n        /* \"Section 1/MappingExample.sol\":567:686  function SetDepositInfo (uint _setIndex) public payable {... */\n      pop\n      jump\t// out\n        /* \"Section 1/MappingExample.sol\":94:134  mapping (uint => bool) public uintToBool */\n    tag_30:\n      mstore(0x20, 0x00)\n      dup1\n      0x00\n      mstore\n      keccak256(0x00, 0x40)\n      0x00\n      swap2\n      pop\n      sload\n      swap1\n      0x0100\n      exp\n      swap1\n      div\n      0xff\n      and\n      dup2\n      jump\t// out\n        /* \"Section 1/MappingExample.sol\":194:241  mapping (address => string) public favoriteWord */\n    tag_37:\n      mstore(0x20, 0x02)\n      dup1\n      0x00\n      mstore\n      keccak256(0x00, 0x40)\n      0x00\n      swap2\n      pop\n      swap1\n      pop\n      dup1\n      sload\n      tag_74\n      swap1\n      tag_75\n      jump\t// in\n    tag_74:\n      dup1\n      0x1f\n      add\n      0x20\n      dup1\n      swap2\n      div\n      mul\n      0x20\n      add\n      mload(0x40)\n      swap1\n      dup2\n      add\n      0x40\n      mstore\n      dup1\n      swap3\n      swap2\n      swap1\n      dup2\n      dup2\n      mstore\n      0x20\n      add\n      dup3\n      dup1\n      sload\n      tag_76\n      swap1\n      tag_75\n      jump\t// in\n    tag_76:\n      dup1\n      iszero\n      tag_77\n      jumpi\n      dup1\n      0x1f\n      lt\n      tag_78\n      jumpi\n      0x0100\n      dup1\n      dup4\n      sload\n      div\n      mul\n      dup4\n      mstore\n      swap2\n      0x20\n      add\n      swap2\n      jump(tag_77)\n    tag_78:\n      dup3\n      add\n      swap2\n      swap1\n      0x00\n      mstore\n      keccak256(0x00, 0x20)\n      swap1\n    tag_79:\n      dup2\n      sload\n      dup2\n      mstore\n      swap1\n      0x01\n      add\n      swap1\n      0x20\n      add\n      dup1\n      dup4\n      gt\n      tag_79\n      jumpi\n      dup3\n      swap1\n      sub\n      0x1f\n      and\n      dup3\n      add\n      swap2\n    tag_77:\n      pop\n      pop\n      pop\n      pop\n      pop\n      dup2\n      jump\t// out\n        /* \"Section 1/MappingExample.sol\":365:454  function MyUintToBool (uint _myUint) public {... */\n    tag_43:\n        /* \"Section 1/MappingExample.sol\":442:446  true */\n      0x01\n        /* \"Section 1/MappingExample.sol\":420:430  uintToBool */\n      0x00\n        /* \"Section 1/MappingExample.sol\":420:439  uintToBool[_myUint] */\n      dup1\n        /* \"Section 1/MappingExample.sol\":431:438  _myUint */\n      dup4\n        /* \"Section 1/MappingExample.sol\":420:439  uintToBool[_myUint] */\n      dup2\n      mstore\n      0x20\n      add\n      swap1\n      dup2\n      mstore\n      0x20\n      add\n      0x00\n      keccak256\n      0x00\n        /* \"Section 1/MappingExample.sol\":420:446  uintToBool[_myUint] = true */\n      0x0100\n      exp\n      dup2\n      sload\n      dup2\n      0xff\n      mul\n      not\n      and\n      swap1\n      dup4\n      iszero\n      iszero\n      mul\n      or\n      swap1\n      sstore\n      pop\n        /* \"Section 1/MappingExample.sol\":365:454  function MyUintToBool (uint _myUint) public {... */\n      pop\n      jump\t// out\n        /* \"Section 1/MappingExample.sol\":248:308  mapping (address => mapping (uint => uint)) public valueSent */\n    tag_48:\n      mstore(0x20, 0x03)\n      dup2\n      0x00\n      mstore\n      mstore(0x20, keccak256(0x00, 0x40))\n      dup1\n      0x00\n      mstore\n      keccak256(0x00, 0x40)\n      0x00\n      swap2\n      pop\n      swap2\n      pop\n      pop\n      sload\n      dup2\n      jump\t// out\n        /* \"Section 1/MappingExample.sol\":821:908  function deposit () public payable {... */\n    tag_52:\n        /* \"Section 1/MappingExample.sol\":891:900  msg.value */\n      callvalue\n        /* \"Section 1/MappingExample.sol\":867:875  deposits */\n      0x04\n        /* \"Section 1/MappingExample.sol\":867:887  deposits[msg.sender] */\n      0x00\n        /* \"Section 1/MappingExample.sol\":876:886  msg.sender */\n      caller\n        /* \"Section 1/MappingExample.sol\":867:887  deposits[msg.sender] */\n      0xffffffffffffffffffffffffffffffffffffffff\n      and\n      0xffffffffffffffffffffffffffffffffffffffff\n      and\n      dup2\n      mstore\n      0x20\n      add\n      swap1\n      dup2\n      mstore\n      0x20\n      add\n      0x00\n      keccak256\n      0x00\n        /* \"Section 1/MappingExample.sol\":867:900  deposits[msg.sender] += msg.value */\n      dup3\n      dup3\n      sload\n      tag_82\n      swap2\n      swap1\n      tag_83\n      jump\t// in\n    tag_82:\n      swap3\n      pop\n      pop\n      dup2\n      swap1\n      sstore\n      pop\n        /* \"Section 1/MappingExample.sol\":821:908  function deposit () public payable {... */\n      jump\t// out\n        /* \"Section 1/MappingExample.sol\":1027:1213  function withdrawal () public payable{... */\n    tag_54:\n        /* \"Section 1/MappingExample.sol\":1075:1093  uint balanceToSend */\n      0x00\n        /* \"Section 1/MappingExample.sol\":1096:1104  deposits */\n      0x04\n        /* \"Section 1/MappingExample.sol\":1096:1116  deposits[msg.sender] */\n      0x00\n        /* \"Section 1/MappingExample.sol\":1105:1115  msg.sender */\n      caller\n        /* \"Section 1/MappingExample.sol\":1096:1116  deposits[msg.sender] */\n      0xffffffffffffffffffffffffffffffffffffffff\n      and\n      0xffffffffffffffffffffffffffffffffffffffff\n      and\n      dup2\n      mstore\n      0x20\n      add\n      swap1\n      dup2\n      mstore\n      0x20\n      add\n      0x00\n      keccak256\n      sload\n        /* \"Section 1/MappingExample.sol\":1075:1116  uint balanceToSend = deposits[msg.sender] */\n      swap1\n      pop\n        /* \"Section 1/MappingExample.sol\":1150:1151  0 */\n      0x00\n        /* \"Section 1/MappingExample.sol\":1127:1135  deposits */\n      0x04\n        /* \"Section 1/MappingExample.sol\":1127:1147  deposits[msg.sender] */\n      0x00\n        /* \"Section 1/MappingExample.sol\":1136:1146  msg.sender */\n      caller\n        /* \"Section 1/MappingExample.sol\":1127:1147  deposits[msg.sender] */\n      0xffffffffffffffffffffffffffffffffffffffff\n      and\n      0xffffffffffffffffffffffffffffffffffffffff\n      and\n      dup2\n      mstore\n      0x20\n      add\n      swap1\n      dup2\n      mstore\n      0x20\n      add\n      0x00\n      keccak256\n        /* \"Section 1/MappingExample.sol\":1127:1151  deposits[msg.sender] = 0 */\n      dup2\n      swap1\n      sstore\n      pop\n        /* \"Section 1/MappingExample.sol\":1170:1180  msg.sender */\n      caller\n        /* \"Section 1/MappingExample.sol\":1162:1190  payable(msg.sender).transfer */\n      0xffffffffffffffffffffffffffffffffffffffff\n      and\n        /* \"Section 1/MappingExample.sol\":1162:1205  payable(msg.sender).transfer(balanceToSend) */\n      0x08fc\n        /* \"Section 1/MappingExample.sol\":1191:1204  balanceToSend */\n      dup3\n        /* \"Section 1/MappingExample.sol\":1162:1205  payable(msg.sender).transfer(balanceToSend) */\n      swap1\n      dup2\n      iszero\n      mul\n      swap1\n      mload(0x40)\n      0x00\n      mload(0x40)\n      dup1\n      dup4\n      sub\n      dup2\n      dup6\n      dup9\n      dup9\n      call\n      swap4\n      pop\n      pop\n      pop\n      pop\n      iszero\n      dup1\n      iszero\n      tag_86\n      jumpi\n      returndatasize\n      0x00\n      dup1\n      returndatacopy\n      revert(0x00, returndatasize)\n    tag_86:\n      pop\n        /* \"Section 1/MappingExample.sol\":1064:1213  {... */\n      pop\n        /* \"Section 1/MappingExample.sol\":1027:1213  function withdrawal () public payable{... */\n      jump\t// out\n        /* \"Section 1/MappingExample.sol\":916:1019  function checkBalanceInfo () public view returns (uint) {... */\n    tag_57:\n        /* \"Section 1/MappingExample.sol\":966:970  uint */\n      0x00\n        /* \"Section 1/MappingExample.sol\":990:1011  address(this).balance */\n      selfbalance\n        /* \"Section 1/MappingExample.sol\":983:1011  return address(this).balance */\n      swap1\n      pop\n        /* \"Section 1/MappingExample.sol\":916:1019  function checkBalanceInfo () public view returns (uint) {... */\n      swap1\n      jump\t// out\n        /* \"Section 1/MappingExample.sol\":141:187  mapping (address => uint) public myAddressInfo */\n    tag_62:\n      mstore(0x20, 0x01)\n      dup1\n      0x00\n      mstore\n      keccak256(0x00, 0x40)\n      0x00\n      swap2\n      pop\n      swap1\n      pop\n      sload\n      dup2\n      jump\t// out\n        /* \"Section 1/MappingExample.sol\":315:356  mapping (address => uint) public deposits */\n    tag_67:\n      mstore(0x20, 0x04)\n      dup1\n      0x00\n      mstore\n      keccak256(0x00, 0x40)\n      0x00\n      swap2\n      pop\n      swap1\n      pop\n      sload\n      dup2\n      jump\t// out\n    tag_71:\n      dup3\n      dup1\n      sload\n      tag_88\n      swap1\n      tag_75\n      jump\t// in\n    tag_88:\n      swap1\n      0x00\n      mstore\n      keccak256(0x00, 0x20)\n      swap1\n      0x1f\n      add\n      0x20\n      swap1\n      div\n      dup2\n      add\n      swap3\n      dup3\n      tag_90\n      jumpi\n      0x00\n      dup6\n      sstore\n      jump(tag_89)\n    tag_90:\n      dup3\n      0x1f\n      lt\n      tag_91\n      jumpi\n      dup1\n      mload\n      not(0xff)\n      and\n      dup4\n      dup1\n      add\n      or\n      dup6\n      sstore\n      jump(tag_89)\n    tag_91:\n      dup3\n      dup1\n      add\n      0x01\n      add\n      dup6\n      sstore\n      dup3\n      iszero\n      tag_89\n      jumpi\n      swap2\n      dup3\n      add\n    tag_92:\n      dup3\n      dup2\n      gt\n      iszero\n      tag_93\n      jumpi\n      dup3\n      mload\n      dup3\n      sstore\n      swap2\n      0x20\n      add\n      swap2\n      swap1\n      0x01\n      add\n      swap1\n      jump(tag_92)\n    tag_93:\n    tag_89:\n      pop\n      swap1\n      pop\n      tag_94\n      swap2\n      swap1\n      tag_95\n      jump\t// in\n    tag_94:\n      pop\n      swap1\n      jump\t// out\n    tag_95:\n    tag_96:\n      dup1\n      dup3\n      gt\n      iszero\n      tag_97\n      jumpi\n      0x00\n      dup2\n      0x00\n      swap1\n      sstore\n      pop\n      0x01\n      add\n      jump(tag_96)\n    tag_97:\n      pop\n      swap1\n      jump\t// out\n        /* \"#utility.yul\":7:82   */\n    tag_98:\n        /* \"#utility.yul\":40:46   */\n      0x00\n        /* \"#utility.yul\":73:75   */\n      0x40\n        /* \"#utility.yul\":67:76   */\n      mload\n        /* \"#utility.yul\":57:76   */\n      swap1\n      pop\n        /* \"#utility.yul\":7:82   */\n      swap1\n      jump\t// out\n        /* \"#utility.yul\":88:205   */\n    tag_99:\n        /* \"#utility.yul\":197:198   */\n      0x00\n        /* \"#utility.yul\":194:195   */\n      dup1\n        /* \"#utility.yul\":187:199   */\n      revert\n        /* \"#utility.yul\":211:328   */\n    tag_100:\n        /* \"#utility.yul\":320:321   */\n      0x00\n        /* \"#utility.yul\":317:318   */\n      dup1\n        /* \"#utility.yul\":310:322   */\n      revert\n        /* \"#utility.yul\":334:451   */\n    tag_101:\n        /* \"#utility.yul\":443:444   */\n      0x00\n        /* \"#utility.yul\":440:441   */\n      dup1\n        /* \"#utility.yul\":433:445   */\n      revert\n        /* \"#utility.yul\":457:574   */\n    tag_102:\n        /* \"#utility.yul\":566:567   */\n      0x00\n        /* \"#utility.yul\":563:564   */\n      dup1\n        /* \"#utility.yul\":556:568   */\n      revert\n        /* \"#utility.yul\":580:682   */\n    tag_103:\n        /* \"#utility.yul\":621:627   */\n      0x00\n        /* \"#utility.yul\":672:674   */\n      0x1f\n        /* \"#utility.yul\":668:675   */\n      not\n        /* \"#utility.yul\":663:665   */\n      0x1f\n        /* \"#utility.yul\":656:661   */\n      dup4\n        /* \"#utility.yul\":652:666   */\n      add\n        /* \"#utility.yul\":648:676   */\n      and\n        /* \"#utility.yul\":638:676   */\n      swap1\n      pop\n        /* \"#utility.yul\":580:682   */\n      swap2\n      swap1\n      pop\n      jump\t// out\n        /* \"#utility.yul\":688:868   */\n    tag_104:\n        /* \"#utility.yul\":736:813   */\n      0x4e487b7100000000000000000000000000000000000000000000000000000000\n        /* \"#utility.yul\":733:734   */\n      0x00\n        /* \"#utility.yul\":726:814   */\n      mstore\n        /* \"#utility.yul\":833:837   */\n      0x41\n        /* \"#utility.yul\":830:831   */\n      0x04\n        /* \"#utility.yul\":823:838   */\n      mstore\n        /* \"#utility.yul\":857:861   */\n      0x24\n        /* \"#utility.yul\":854:855   */\n      0x00\n        /* \"#utility.yul\":847:862   */\n      revert\n        /* \"#utility.yul\":874:1155   */\n    tag_105:\n        /* \"#utility.yul\":957:984   */\n      tag_136\n        /* \"#utility.yul\":979:983   */\n      dup3\n        /* \"#utility.yul\":957:984   */\n      tag_103\n      jump\t// in\n    tag_136:\n        /* \"#utility.yul\":949:955   */\n      dup2\n        /* \"#utility.yul\":945:985   */\n      add\n        /* \"#utility.yul\":1087:1093   */\n      dup2\n        /* \"#utility.yul\":1075:1085   */\n      dup2\n        /* \"#utility.yul\":1072:1094   */\n      lt\n        /* \"#utility.yul\":1051:1069   */\n      0xffffffffffffffff\n        /* \"#utility.yul\":1039:1049   */\n      dup3\n        /* \"#utility.yul\":1036:1070   */\n      gt\n        /* \"#utility.yul\":1033:1095   */\n      or\n        /* \"#utility.yul\":1030:1118   */\n      iszero\n      tag_137\n      jumpi\n        /* \"#utility.yul\":1098:1116   */\n      tag_138\n      tag_104\n      jump\t// in\n    tag_138:\n        /* \"#utility.yul\":1030:1118   */\n    tag_137:\n        /* \"#utility.yul\":1138:1148   */\n      dup1\n        /* \"#utility.yul\":1134:1136   */\n      0x40\n        /* \"#utility.yul\":1127:1149   */\n      mstore\n        /* \"#utility.yul\":917:1155   */\n      pop\n        /* \"#utility.yul\":874:1155   */\n      pop\n      pop\n      jump\t// out\n        /* \"#utility.yul\":1161:1290   */\n    tag_106:\n        /* \"#utility.yul\":1195:1201   */\n      0x00\n        /* \"#utility.yul\":1222:1242   */\n      tag_140\n      tag_98\n      jump\t// in\n    tag_140:\n        /* \"#utility.yul\":1212:1242   */\n      swap1\n      pop\n        /* \"#utility.yul\":1251:1284   */\n      tag_141\n        /* \"#utility.yul\":1279:1283   */\n      dup3\n        /* \"#utility.yul\":1271:1277   */\n      dup3\n        /* \"#utility.yul\":1251:1284   */\n      tag_105\n      jump\t// in\n    tag_141:\n        /* \"#utility.yul\":1161:1290   */\n      swap2\n      swap1\n      pop\n      jump\t// out\n        /* \"#utility.yul\":1296:1604   */\n    tag_107:\n        /* \"#utility.yul\":1358:1362   */\n      0x00\n        /* \"#utility.yul\":1448:1466   */\n      0xffffffffffffffff\n        /* \"#utility.yul\":1440:1446   */\n      dup3\n        /* \"#utility.yul\":1437:1467   */\n      gt\n        /* \"#utility.yul\":1434:1490   */\n      iszero\n      tag_143\n      jumpi\n        /* \"#utility.yul\":1470:1488   */\n      tag_144\n      tag_104\n      jump\t// in\n    tag_144:\n        /* \"#utility.yul\":1434:1490   */\n    tag_143:\n        /* \"#utility.yul\":1508:1537   */\n      tag_145\n        /* \"#utility.yul\":1530:1536   */\n      dup3\n        /* \"#utility.yul\":1508:1537   */\n      tag_103\n      jump\t// in\n    tag_145:\n        /* \"#utility.yul\":1500:1537   */\n      swap1\n      pop\n        /* \"#utility.yul\":1592:1596   */\n      0x20\n        /* \"#utility.yul\":1586:1590   */\n      dup2\n        /* \"#utility.yul\":1582:1597   */\n      add\n        /* \"#utility.yul\":1574:1597   */\n      swap1\n      pop\n        /* \"#utility.yul\":1296:1604   */\n      swap2\n      swap1\n      pop\n      jump\t// out\n        /* \"#utility.yul\":1610:1764   */\n    tag_108:\n        /* \"#utility.yul\":1694:1700   */\n      dup3\n        /* \"#utility.yul\":1689:1692   */\n      dup2\n        /* \"#utility.yul\":1684:1687   */\n      dup4\n        /* \"#utility.yul\":1671:1701   */\n      calldatacopy\n        /* \"#utility.yul\":1756:1757   */\n      0x00\n        /* \"#utility.yul\":1747:1753   */\n      dup4\n        /* \"#utility.yul\":1742:1745   */\n      dup4\n        /* \"#utility.yul\":1738:1754   */\n      add\n        /* \"#utility.yul\":1731:1758   */\n      mstore\n        /* \"#utility.yul\":1610:1764   */\n      pop\n      pop\n      pop\n      jump\t// out\n        /* \"#utility.yul\":1770:2182   */\n    tag_109:\n        /* \"#utility.yul\":1848:1853   */\n      0x00\n        /* \"#utility.yul\":1873:1939   */\n      tag_148\n        /* \"#utility.yul\":1889:1938   */\n      tag_149\n        /* \"#utility.yul\":1931:1937   */\n      dup5\n        /* \"#utility.yul\":1889:1938   */\n      tag_107\n      jump\t// in\n    tag_149:\n        /* \"#utility.yul\":1873:1939   */\n      tag_106\n      jump\t// in\n    tag_148:\n        /* \"#utility.yul\":1864:1939   */\n      swap1\n      pop\n        /* \"#utility.yul\":1962:1968   */\n      dup3\n        /* \"#utility.yul\":1955:1960   */\n      dup2\n        /* \"#utility.yul\":1948:1969   */\n      mstore\n        /* \"#utility.yul\":2000:2004   */\n      0x20\n        /* \"#utility.yul\":1993:1998   */\n      dup2\n        /* \"#utility.yul\":1989:2005   */\n      add\n        /* \"#utility.yul\":2038:2041   */\n      dup5\n        /* \"#utility.yul\":2029:2035   */\n      dup5\n        /* \"#utility.yul\":2024:2027   */\n      dup5\n        /* \"#utility.yul\":2020:2036   */\n      add\n        /* \"#utility.yul\":2017:2042   */\n      gt\n        /* \"#utility.yul\":2014:2126   */\n      iszero\n      tag_150\n      jumpi\n        /* \"#utility.yul\":2045:2124   */\n      tag_151\n      tag_102\n      jump\t// in\n    tag_151:\n        /* \"#utility.yul\":2014:2126   */\n    tag_150:\n        /* \"#utility.yul\":2135:2176   */\n      tag_152\n        /* \"#utility.yul\":2169:2175   */\n      dup5\n        /* \"#utility.yul\":2164:2167   */\n      dup3\n        /* \"#utility.yul\":2159:2162   */\n      dup6\n        /* \"#utility.yul\":2135:2176   */\n      tag_108\n      jump\t// in\n    tag_152:\n        /* \"#utility.yul\":1854:2182   */\n      pop\n        /* \"#utility.yul\":1770:2182   */\n      swap4\n      swap3\n      pop\n      pop\n      pop\n      jump\t// out\n        /* \"#utility.yul\":2202:2542   */\n    tag_110:\n        /* \"#utility.yul\":2258:2263   */\n      0x00\n        /* \"#utility.yul\":2307:2310   */\n      dup3\n        /* \"#utility.yul\":2300:2304   */\n      0x1f\n        /* \"#utility.yul\":2292:2298   */\n      dup4\n        /* \"#utility.yul\":2288:2305   */\n      add\n        /* \"#utility.yul\":2284:2311   */\n      slt\n        /* \"#utility.yul\":2274:2396   */\n      tag_154\n      jumpi\n        /* \"#utility.yul\":2315:2394   */\n      tag_155\n      tag_101\n      jump\t// in\n    tag_155:\n        /* \"#utility.yul\":2274:2396   */\n    tag_154:\n        /* \"#utility.yul\":2432:2438   */\n      dup2\n        /* \"#utility.yul\":2419:2439   */\n      calldataload\n        /* \"#utility.yul\":2457:2536   */\n      tag_156\n        /* \"#utility.yul\":2532:2535   */\n      dup5\n        /* \"#utility.yul\":2524:2530   */\n      dup3\n        /* \"#utility.yul\":2517:2521   */\n      0x20\n        /* \"#utility.yul\":2509:2515   */\n      dup7\n        /* \"#utility.yul\":2505:2522   */\n      add\n        /* \"#utility.yul\":2457:2536   */\n      tag_109\n      jump\t// in\n    tag_156:\n        /* \"#utility.yul\":2448:2536   */\n      swap2\n      pop\n        /* \"#utility.yul\":2264:2542   */\n      pop\n        /* \"#utility.yul\":2202:2542   */\n      swap3\n      swap2\n      pop\n      pop\n      jump\t// out\n        /* \"#utility.yul\":2548:3057   */\n    tag_18:\n        /* \"#utility.yul\":2617:2623   */\n      0x00\n        /* \"#utility.yul\":2666:2668   */\n      0x20\n        /* \"#utility.yul\":2654:2663   */\n      dup3\n        /* \"#utility.yul\":2645:2652   */\n      dup5\n        /* \"#utility.yul\":2641:2664   */\n      sub\n        /* \"#utility.yul\":2637:2669   */\n      slt\n        /* \"#utility.yul\":2634:2753   */\n      iszero\n      tag_158\n      jumpi\n        /* \"#utility.yul\":2672:2751   */\n      tag_159\n      tag_99\n      jump\t// in\n    tag_159:\n        /* \"#utility.yul\":2634:2753   */\n    tag_158:\n        /* \"#utility.yul\":2820:2821   */\n      0x00\n        /* \"#utility.yul\":2809:2818   */\n      dup3\n        /* \"#utility.yul\":2805:2822   */\n      add\n        /* \"#utility.yul\":2792:2823   */\n      calldataload\n        /* \"#utility.yul\":2850:2868   */\n      0xffffffffffffffff\n        /* \"#utility.yul\":2842:2848   */\n      dup2\n        /* \"#utility.yul\":2839:2869   */\n      gt\n        /* \"#utility.yul\":2836:2953   */\n      iszero\n      tag_160\n      jumpi\n        /* \"#utility.yul\":2872:2951   */\n      tag_161\n      tag_100\n      jump\t// in\n    tag_161:\n        /* \"#utility.yul\":2836:2953   */\n    tag_160:\n        /* \"#utility.yul\":2977:3040   */\n      tag_162\n        /* \"#utility.yul\":3032:3039   */\n      dup5\n        /* \"#utility.yul\":3023:3029   */\n      dup3\n        /* \"#utility.yul\":3012:3021   */\n      dup6\n        /* \"#utility.yul\":3008:3030   */\n      add\n        /* \"#utility.yul\":2977:3040   */\n      tag_110\n      jump\t// in\n    tag_162:\n        /* \"#utility.yul\":2967:3040   */\n      swap2\n      pop\n        /* \"#utility.yul\":2763:3050   */\n      pop\n        /* \"#utility.yul\":2548:3057   */\n      swap3\n      swap2\n      pop\n      pop\n      jump\t// out\n        /* \"#utility.yul\":3063:3140   */\n    tag_111:\n        /* \"#utility.yul\":3100:3107   */\n      0x00\n        /* \"#utility.yul\":3129:3134   */\n      dup2\n        /* \"#utility.yul\":3118:3134   */\n      swap1\n      pop\n        /* \"#utility.yul\":3063:3140   */\n      swap2\n      swap1\n      pop\n      jump\t// out\n        /* \"#utility.yul\":3146:3268   */\n    tag_112:\n        /* \"#utility.yul\":3219:3243   */\n      tag_165\n        /* \"#utility.yul\":3237:3242   */\n      dup2\n        /* \"#utility.yul\":3219:3243   */\n      tag_111\n      jump\t// in\n    tag_165:\n        /* \"#utility.yul\":3212:3217   */\n      dup2\n        /* \"#utility.yul\":3209:3244   */\n      eq\n        /* \"#utility.yul\":3199:3262   */\n      tag_166\n      jumpi\n        /* \"#utility.yul\":3258:3259   */\n      0x00\n        /* \"#utility.yul\":3255:3256   */\n      dup1\n        /* \"#utility.yul\":3248:3260   */\n      revert\n        /* \"#utility.yul\":3199:3262   */\n    tag_166:\n        /* \"#utility.yul\":3146:3268   */\n      pop\n      jump\t// out\n        /* \"#utility.yul\":3274:3413   */\n    tag_113:\n        /* \"#utility.yul\":3320:3325   */\n      0x00\n        /* \"#utility.yul\":3358:3364   */\n      dup2\n        /* \"#utility.yul\":3345:3365   */\n      calldataload\n        /* \"#utility.yul\":3336:3365   */\n      swap1\n      pop\n        /* \"#utility.yul\":3374:3407   */\n      tag_168\n        /* \"#utility.yul\":3401:3406   */\n      dup2\n        /* \"#utility.yul\":3374:3407   */\n      tag_112\n      jump\t// in\n    tag_168:\n        /* \"#utility.yul\":3274:3413   */\n      swap3\n      swap2\n      pop\n      pop\n      jump\t// out\n        /* \"#utility.yul\":3419:3748   */\n    tag_25:\n        /* \"#utility.yul\":3478:3484   */\n      0x00\n        /* \"#utility.yul\":3527:3529   */\n      0x20\n        /* \"#utility.yul\":3515:3524   */\n      dup3\n        /* \"#utility.yul\":3506:3513   */\n      dup5\n        /* \"#utility.yul\":3502:3525   */\n      sub\n        /* \"#utility.yul\":3498:3530   */\n      slt\n        /* \"#utility.yul\":3495:3614   */\n      iszero\n      tag_170\n      jumpi\n        /* \"#utility.yul\":3533:3612   */\n      tag_171\n      tag_99\n      jump\t// in\n    tag_171:\n        /* \"#utility.yul\":3495:3614   */\n    tag_170:\n        /* \"#utility.yul\":3653:3654   */\n      0x00\n        /* \"#utility.yul\":3678:3731   */\n      tag_172\n        /* \"#utility.yul\":3723:3730   */\n      dup5\n        /* \"#utility.yul\":3714:3720   */\n      dup3\n        /* \"#utility.yul\":3703:3712   */\n      dup6\n        /* \"#utility.yul\":3699:3721   */\n      add\n        /* \"#utility.yul\":3678:3731   */\n      tag_113\n      jump\t// in\n    tag_172:\n        /* \"#utility.yul\":3668:3731   */\n      swap2\n      pop\n        /* \"#utility.yul\":3624:3741   */\n      pop\n        /* \"#utility.yul\":3419:3748   */\n      swap3\n      swap2\n      pop\n      pop\n      jump\t// out\n        /* \"#utility.yul\":3754:3844   */\n    tag_114:\n        /* \"#utility.yul\":3788:3795   */\n      0x00\n        /* \"#utility.yul\":3831:3836   */\n      dup2\n        /* \"#utility.yul\":3824:3837   */\n      iszero\n        /* \"#utility.yul\":3817:3838   */\n      iszero\n        /* \"#utility.yul\":3806:3838   */\n      swap1\n      pop\n        /* \"#utility.yul\":3754:3844   */\n      swap2\n      swap1\n      pop\n      jump\t// out\n        /* \"#utility.yul\":3850:3959   */\n    tag_115:\n        /* \"#utility.yul\":3931:3952   */\n      tag_175\n        /* \"#utility.yul\":3946:3951   */\n      dup2\n        /* \"#utility.yul\":3931:3952   */\n      tag_114\n      jump\t// in\n    tag_175:\n        /* \"#utility.yul\":3926:3929   */\n      dup3\n        /* \"#utility.yul\":3919:3953   */\n      mstore\n        /* \"#utility.yul\":3850:3959   */\n      pop\n      pop\n      jump\t// out\n        /* \"#utility.yul\":3965:4175   */\n    tag_32:\n        /* \"#utility.yul\":4052:4056   */\n      0x00\n        /* \"#utility.yul\":4090:4092   */\n      0x20\n        /* \"#utility.yul\":4079:4088   */\n      dup3\n        /* \"#utility.yul\":4075:4093   */\n      add\n        /* \"#utility.yul\":4067:4093   */\n      swap1\n      pop\n        /* \"#utility.yul\":4103:4168   */\n      tag_177\n        /* \"#utility.yul\":4165:4166   */\n      0x00\n        /* \"#utility.yul\":4154:4163   */\n      dup4\n        /* \"#utility.yul\":4150:4167   */\n      add\n        /* \"#utility.yul\":4141:4147   */\n      dup5\n        /* \"#utility.yul\":4103:4168   */\n      tag_115\n      jump\t// in\n    tag_177:\n        /* \"#utility.yul\":3965:4175   */\n      swap3\n      swap2\n      pop\n      pop\n      jump\t// out\n        /* \"#utility.yul\":4181:4307   */\n    tag_116:\n        /* \"#utility.yul\":4218:4225   */\n      0x00\n        /* \"#utility.yul\":4258:4300   */\n      0xffffffffffffffffffffffffffffffffffffffff\n        /* \"#utility.yul\":4251:4256   */\n      dup3\n        /* \"#utility.yul\":4247:4301   */\n      and\n        /* \"#utility.yul\":4236:4301   */\n      swap1\n      pop\n        /* \"#utility.yul\":4181:4307   */\n      swap2\n      swap1\n      pop\n      jump\t// out\n        /* \"#utility.yul\":4313:4409   */\n    tag_117:\n        /* \"#utility.yul\":4350:4357   */\n      0x00\n        /* \"#utility.yul\":4379:4403   */\n      tag_180\n        /* \"#utility.yul\":4397:4402   */\n      dup3\n        /* \"#utility.yul\":4379:4403   */\n      tag_116\n      jump\t// in\n    tag_180:\n        /* \"#utility.yul\":4368:4403   */\n      swap1\n      pop\n        /* \"#utility.yul\":4313:4409   */\n      swap2\n      swap1\n      pop\n      jump\t// out\n        /* \"#utility.yul\":4415:4537   */\n    tag_118:\n        /* \"#utility.yul\":4488:4512   */\n      tag_182\n        /* \"#utility.yul\":4506:4511   */\n      dup2\n        /* \"#utility.yul\":4488:4512   */\n      tag_117\n      jump\t// in\n    tag_182:\n        /* \"#utility.yul\":4481:4486   */\n      dup2\n        /* \"#utility.yul\":4478:4513   */\n      eq\n        /* \"#utility.yul\":4468:4531   */\n      tag_183\n      jumpi\n        /* \"#utility.yul\":4527:4528   */\n      0x00\n        /* \"#utility.yul\":4524:4525   */\n      dup1\n        /* \"#utility.yul\":4517:4529   */\n      revert\n        /* \"#utility.yul\":4468:4531   */\n    tag_183:\n        /* \"#utility.yul\":4415:4537   */\n      pop\n      jump\t// out\n        /* \"#utility.yul\":4543:4682   */\n    tag_119:\n        /* \"#utility.yul\":4589:4594   */\n      0x00\n        /* \"#utility.yul\":4627:4633   */\n      dup2\n        /* \"#utility.yul\":4614:4634   */\n      calldataload\n        /* \"#utility.yul\":4605:4634   */\n      swap1\n      pop\n        /* \"#utility.yul\":4643:4676   */\n      tag_185\n        /* \"#utility.yul\":4670:4675   */\n      dup2\n        /* \"#utility.yul\":4643:4676   */\n      tag_118\n      jump\t// in\n    tag_185:\n        /* \"#utility.yul\":4543:4682   */\n      swap3\n      swap2\n      pop\n      pop\n      jump\t// out\n        /* \"#utility.yul\":4688:5017   */\n    tag_36:\n        /* \"#utility.yul\":4747:4753   */\n      0x00\n        /* \"#utility.yul\":4796:4798   */\n      0x20\n        /* \"#utility.yul\":4784:4793   */\n      dup3\n        /* \"#utility.yul\":4775:4782   */\n      dup5\n        /* \"#utility.yul\":4771:4794   */\n      sub\n        /* \"#utility.yul\":4767:4799   */\n      slt\n        /* \"#utility.yul\":4764:4883   */\n      iszero\n      tag_187\n      jumpi\n        /* \"#utility.yul\":4802:4881   */\n      tag_188\n      tag_99\n      jump\t// in\n    tag_188:\n        /* \"#utility.yul\":4764:4883   */\n    tag_187:\n        /* \"#utility.yul\":4922:4923   */\n      0x00\n        /* \"#utility.yul\":4947:5000   */\n      tag_189\n        /* \"#utility.yul\":4992:4999   */\n      dup5\n        /* \"#utility.yul\":4983:4989   */\n      dup3\n        /* \"#utility.yul\":4972:4981   */\n      dup6\n        /* \"#utility.yul\":4968:4990   */\n      add\n        /* \"#utility.yul\":4947:5000   */\n      tag_119\n      jump\t// in\n    tag_189:\n        /* \"#utility.yul\":4937:5000   */\n      swap2\n      pop\n        /* \"#utility.yul\":4893:5010   */\n      pop\n        /* \"#utility.yul\":4688:5017   */\n      swap3\n      swap2\n      pop\n      pop\n      jump\t// out\n        /* \"#utility.yul\":5023:5122   */\n    tag_120:\n        /* \"#utility.yul\":5075:5081   */\n      0x00\n        /* \"#utility.yul\":5109:5114   */\n      dup2\n        /* \"#utility.yul\":5103:5115   */\n      mload\n        /* \"#utility.yul\":5093:5115   */\n      swap1\n      pop\n        /* \"#utility.yul\":5023:5122   */\n      swap2\n      swap1\n      pop\n      jump\t// out\n        /* \"#utility.yul\":5128:5297   */\n    tag_121:\n        /* \"#utility.yul\":5212:5223   */\n      0x00\n        /* \"#utility.yul\":5246:5252   */\n      dup3\n        /* \"#utility.yul\":5241:5244   */\n      dup3\n        /* \"#utility.yul\":5234:5253   */\n      mstore\n        /* \"#utility.yul\":5286:5290   */\n      0x20\n        /* \"#utility.yul\":5281:5284   */\n      dup3\n        /* \"#utility.yul\":5277:5291   */\n      add\n        /* \"#utility.yul\":5262:5291   */\n      swap1\n      pop\n        /* \"#utility.yul\":5128:5297   */\n      swap3\n      swap2\n      pop\n      pop\n      jump\t// out\n        /* \"#utility.yul\":5303:5610   */\n    tag_122:\n        /* \"#utility.yul\":5371:5372   */\n      0x00\n        /* \"#utility.yul\":5381:5494   */\n    tag_193:\n        /* \"#utility.yul\":5395:5401   */\n      dup4\n        /* \"#utility.yul\":5392:5393   */\n      dup2\n        /* \"#utility.yul\":5389:5402   */\n      lt\n        /* \"#utility.yul\":5381:5494   */\n      iszero\n      tag_195\n      jumpi\n        /* \"#utility.yul\":5480:5481   */\n      dup1\n        /* \"#utility.yul\":5475:5478   */\n      dup3\n        /* \"#utility.yul\":5471:5482   */\n      add\n        /* \"#utility.yul\":5465:5483   */\n      mload\n        /* \"#utility.yul\":5461:5462   */\n      dup2\n        /* \"#utility.yul\":5456:5459   */\n      dup5\n        /* \"#utility.yul\":5452:5463   */\n      add\n        /* \"#utility.yul\":5445:5484   */\n      mstore\n        /* \"#utility.yul\":5417:5419   */\n      0x20\n        /* \"#utility.yul\":5414:5415   */\n      dup2\n        /* \"#utility.yul\":5410:5420   */\n      add\n        /* \"#utility.yul\":5405:5420   */\n      swap1\n      pop\n        /* \"#utility.yul\":5381:5494   */\n      jump(tag_193)\n    tag_195:\n        /* \"#utility.yul\":5512:5518   */\n      dup4\n        /* \"#utility.yul\":5509:5510   */\n      dup2\n        /* \"#utility.yul\":5506:5519   */\n      gt\n        /* \"#utility.yul\":5503:5604   */\n      iszero\n      tag_196\n      jumpi\n        /* \"#utility.yul\":5592:5593   */\n      0x00\n        /* \"#utility.yul\":5583:5589   */\n      dup5\n        /* \"#utility.yul\":5578:5581   */\n      dup5\n        /* \"#utility.yul\":5574:5590   */\n      add\n        /* \"#utility.yul\":5567:5594   */\n      mstore\n        /* \"#utility.yul\":5503:5604   */\n    tag_196:\n        /* \"#utility.yul\":5352:5610   */\n      pop\n        /* \"#utility.yul\":5303:5610   */\n      pop\n      pop\n      pop\n      jump\t// out\n        /* \"#utility.yul\":5616:5980   */\n    tag_123:\n        /* \"#utility.yul\":5704:5707   */\n      0x00\n        /* \"#utility.yul\":5732:5771   */\n      tag_198\n        /* \"#utility.yul\":5765:5770   */\n      dup3\n        /* \"#utility.yul\":5732:5771   */\n      tag_120\n      jump\t// in\n    tag_198:\n        /* \"#utility.yul\":5787:5858   */\n      tag_199\n        /* \"#utility.yul\":5851:5857   */\n      dup2\n        /* \"#utility.yul\":5846:5849   */\n      dup6\n        /* \"#utility.yul\":5787:5858   */\n      tag_121\n      jump\t// in\n    tag_199:\n        /* \"#utility.yul\":5780:5858   */\n      swap4\n      pop\n        /* \"#utility.yul\":5867:5919   */\n      tag_200\n        /* \"#utility.yul\":5912:5918   */\n      dup2\n        /* \"#utility.yul\":5907:5910   */\n      dup6\n        /* \"#utility.yul\":5900:5904   */\n      0x20\n        /* \"#utility.yul\":5893:5898   */\n      dup7\n        /* \"#utility.yul\":5889:5905   */\n      add\n        /* \"#utility.yul\":5867:5919   */\n      tag_122\n      jump\t// in\n    tag_200:\n        /* \"#utility.yul\":5944:5973   */\n      tag_201\n        /* \"#utility.yul\":5966:5972   */\n      dup2\n        /* \"#utility.yul\":5944:5973   */\n      tag_103\n      jump\t// in\n    tag_201:\n        /* \"#utility.yul\":5939:5942   */\n      dup5\n        /* \"#utility.yul\":5935:5974   */\n      add\n        /* \"#utility.yul\":5928:5974   */\n      swap2\n      pop\n        /* \"#utility.yul\":5708:5980   */\n      pop\n        /* \"#utility.yul\":5616:5980   */\n      swap3\n      swap2\n      pop\n      pop\n      jump\t// out\n        /* \"#utility.yul\":5986:6299   */\n    tag_39:\n        /* \"#utility.yul\":6099:6103   */\n      0x00\n        /* \"#utility.yul\":6137:6139   */\n      0x20\n        /* \"#utility.yul\":6126:6135   */\n      dup3\n        /* \"#utility.yul\":6122:6140   */\n      add\n        /* \"#utility.yul\":6114:6140   */\n      swap1\n      pop\n        /* \"#utility.yul\":6186:6195   */\n      dup2\n        /* \"#utility.yul\":6180:6184   */\n      dup2\n        /* \"#utility.yul\":6176:6196   */\n      sub\n        /* \"#utility.yul\":6172:6173   */\n      0x00\n        /* \"#utility.yul\":6161:6170   */\n      dup4\n        /* \"#utility.yul\":6157:6174   */\n      add\n        /* \"#utility.yul\":6150:6197   */\n      mstore\n        /* \"#utility.yul\":6214:6292   */\n      tag_203\n        /* \"#utility.yul\":6287:6291   */\n      dup2\n        /* \"#utility.yul\":6278:6284   */\n      dup5\n        /* \"#utility.yul\":6214:6292   */\n      tag_123\n      jump\t// in\n    tag_203:\n        /* \"#utility.yul\":6206:6292   */\n      swap1\n      pop\n        /* \"#utility.yul\":5986:6299   */\n      swap3\n      swap2\n      pop\n      pop\n      jump\t// out\n        /* \"#utility.yul\":6305:6779   */\n    tag_47:\n        /* \"#utility.yul\":6373:6379   */\n      0x00\n        /* \"#utility.yul\":6381:6387   */\n      dup1\n        /* \"#utility.yul\":6430:6432   */\n      0x40\n        /* \"#utility.yul\":6418:6427   */\n      dup4\n        /* \"#utility.yul\":6409:6416   */\n      dup6\n        /* \"#utility.yul\":6405:6428   */\n      sub\n        /* \"#utility.yul\":6401:6433   */\n      slt\n        /* \"#utility.yul\":6398:6517   */\n      iszero\n      tag_205\n      jumpi\n        /* \"#utility.yul\":6436:6515   */\n      tag_206\n      tag_99\n      jump\t// in\n    tag_206:\n        /* \"#utility.yul\":6398:6517   */\n    tag_205:\n        /* \"#utility.yul\":6556:6557   */\n      0x00\n        /* \"#utility.yul\":6581:6634   */\n      tag_207\n        /* \"#utility.yul\":6626:6633   */\n      dup6\n        /* \"#utility.yul\":6617:6623   */\n      dup3\n        /* \"#utility.yul\":6606:6615   */\n      dup7\n        /* \"#utility.yul\":6602:6624   */\n      add\n        /* \"#utility.yul\":6581:6634   */\n      tag_119\n      jump\t// in\n    tag_207:\n        /* \"#utility.yul\":6571:6634   */\n      swap3\n      pop\n        /* \"#utility.yul\":6527:6644   */\n      pop\n        /* \"#utility.yul\":6683:6685   */\n      0x20\n        /* \"#utility.yul\":6709:6762   */\n      tag_208\n        /* \"#utility.yul\":6754:6761   */\n      dup6\n        /* \"#utility.yul\":6745:6751   */\n      dup3\n        /* \"#utility.yul\":6734:6743   */\n      dup7\n        /* \"#utility.yul\":6730:6752   */\n      add\n        /* \"#utility.yul\":6709:6762   */\n      tag_113\n      jump\t// in\n    tag_208:\n        /* \"#utility.yul\":6699:6762   */\n      swap2\n      pop\n        /* \"#utility.yul\":6654:6772   */\n      pop\n        /* \"#utility.yul\":6305:6779   */\n      swap3\n      pop\n      swap3\n      swap1\n      pop\n      jump\t// out\n        /* \"#utility.yul\":6785:6903   */\n    tag_124:\n        /* \"#utility.yul\":6872:6896   */\n      tag_210\n        /* \"#utility.yul\":6890:6895   */\n      dup2\n        /* \"#utility.yul\":6872:6896   */\n      tag_111\n      jump\t// in\n    tag_210:\n        /* \"#utility.yul\":6867:6870   */\n      dup3\n        /* \"#utility.yul\":6860:6897   */\n      mstore\n        /* \"#utility.yul\":6785:6903   */\n      pop\n      pop\n      jump\t// out\n        /* \"#utility.yul\":6909:7131   */\n    tag_50:\n        /* \"#utility.yul\":7002:7006   */\n      0x00\n        /* \"#utility.yul\":7040:7042   */\n      0x20\n        /* \"#utility.yul\":7029:7038   */\n      dup3\n        /* \"#utility.yul\":7025:7043   */\n      add\n        /* \"#utility.yul\":7017:7043   */\n      swap1\n      pop\n        /* \"#utility.yul\":7053:7124   */\n      tag_212\n        /* \"#utility.yul\":7121:7122   */\n      0x00\n        /* \"#utility.yul\":7110:7119   */\n      dup4\n        /* \"#utility.yul\":7106:7123   */\n      add\n        /* \"#utility.yul\":7097:7103   */\n      dup5\n        /* \"#utility.yul\":7053:7124   */\n      tag_124\n      jump\t// in\n    tag_212:\n        /* \"#utility.yul\":6909:7131   */\n      swap3\n      swap2\n      pop\n      pop\n      jump\t// out\n        /* \"#utility.yul\":7137:7317   */\n    tag_125:\n        /* \"#utility.yul\":7185:7262   */\n      0x4e487b7100000000000000000000000000000000000000000000000000000000\n        /* \"#utility.yul\":7182:7183   */\n      0x00\n        /* \"#utility.yul\":7175:7263   */\n      mstore\n        /* \"#utility.yul\":7282:7286   */\n      0x22\n        /* \"#utility.yul\":7279:7280   */\n      0x04\n        /* \"#utility.yul\":7272:7287   */\n      mstore\n        /* \"#utility.yul\":7306:7310   */\n      0x24\n        /* \"#utility.yul\":7303:7304   */\n      0x00\n        /* \"#utility.yul\":7296:7311   */\n      revert\n        /* \"#utility.yul\":7323:7643   */\n    tag_75:\n        /* \"#utility.yul\":7367:7373   */\n      0x00\n        /* \"#utility.yul\":7404:7405   */\n      0x02\n        /* \"#utility.yul\":7398:7402   */\n      dup3\n        /* \"#utility.yul\":7394:7406   */\n      div\n        /* \"#utility.yul\":7384:7406   */\n      swap1\n      pop\n        /* \"#utility.yul\":7451:7452   */\n      0x01\n        /* \"#utility.yul\":7445:7449   */\n      dup3\n        /* \"#utility.yul\":7441:7453   */\n      and\n        /* \"#utility.yul\":7472:7490   */\n      dup1\n        /* \"#utility.yul\":7462:7543   */\n      tag_215\n      jumpi\n        /* \"#utility.yul\":7528:7532   */\n      0x7f\n        /* \"#utility.yul\":7520:7526   */\n      dup3\n        /* \"#utility.yul\":7516:7533   */\n      and\n        /* \"#utility.yul\":7506:7533   */\n      swap2\n      pop\n        /* \"#utility.yul\":7462:7543   */\n    tag_215:\n        /* \"#utility.yul\":7590:7592   */\n      0x20\n        /* \"#utility.yul\":7582:7588   */\n      dup3\n        /* \"#utility.yul\":7579:7593   */\n      lt\n        /* \"#utility.yul\":7559:7577   */\n      dup2\n        /* \"#utility.yul\":7556:7594   */\n      sub\n        /* \"#utility.yul\":7553:7637   */\n      tag_216\n      jumpi\n        /* \"#utility.yul\":7609:7627   */\n      tag_217\n      tag_125\n      jump\t// in\n    tag_217:\n        /* \"#utility.yul\":7553:7637   */\n    tag_216:\n        /* \"#utility.yul\":7374:7643   */\n      pop\n        /* \"#utility.yul\":7323:7643   */\n      swap2\n      swap1\n      pop\n      jump\t// out\n        /* \"#utility.yul\":7649:7829   */\n    tag_126:\n        /* \"#utility.yul\":7697:7774   */\n      0x4e487b7100000000000000000000000000000000000000000000000000000000\n        /* \"#utility.yul\":7694:7695   */\n      0x00\n        /* \"#utility.yul\":7687:7775   */\n      mstore\n        /* \"#utility.yul\":7794:7798   */\n      0x11\n        /* \"#utility.yul\":7791:7792   */\n      0x04\n        /* \"#utility.yul\":7784:7799   */\n      mstore\n        /* \"#utility.yul\":7818:7822   */\n      0x24\n        /* \"#utility.yul\":7815:7816   */\n      0x00\n        /* \"#utility.yul\":7808:7823   */\n      revert\n        /* \"#utility.yul\":7835:8140   */\n    tag_83:\n        /* \"#utility.yul\":7875:7878   */\n      0x00\n        /* \"#utility.yul\":7894:7914   */\n      tag_220\n        /* \"#utility.yul\":7912:7913   */\n      dup3\n        /* \"#utility.yul\":7894:7914   */\n      tag_111\n      jump\t// in\n    tag_220:\n        /* \"#utility.yul\":7889:7914   */\n      swap2\n      pop\n        /* \"#utility.yul\":7928:7948   */\n      tag_221\n        /* \"#utility.yul\":7946:7947   */\n      dup4\n        /* \"#utility.yul\":7928:7948   */\n      tag_111\n      jump\t// in\n    tag_221:\n        /* \"#utility.yul\":7923:7948   */\n      swap3\n      pop\n        /* \"#utility.yul\":8082:8083   */\n      dup3\n        /* \"#utility.yul\":8014:8080   */\n      0xffffffffffffffffffffffffffffffffffffffffffffffffffffffffffffffff\n        /* \"#utility.yul\":8010:8084   */\n      sub\n        /* \"#utility.yul\":8007:8008   */\n      dup3\n        /* \"#utility.yul\":8004:8085   */\n      gt\n        /* \"#utility.yul\":8001:8108   */\n      iszero\n      tag_222\n      jumpi\n        /* \"#utility.yul\":8088:8106   */\n      tag_223\n      tag_126\n      jump\t// in\n    tag_223:\n        /* \"#utility.yul\":8001:8108   */\n    tag_222:\n        /* \"#utility.yul\":8132:8133   */\n      dup3\n        /* \"#utility.yul\":8129:8130   */\n      dup3\n        /* \"#utility.yul\":8125:8134   */\n      add\n        /* \"#utility.yul\":8118:8134   */\n      swap1\n      pop\n        /* \"#utility.yul\":7835:8140   */\n      swap3\n      swap2\n      pop\n      pop\n      jump\t// out\n\n    auxdata: 0xa2646970667358221220ff67f5f0f68b67dcf2a9016a480594bd03046d99fe1c651ba6fae7807aa6a72064736f6c634300080e0033\n}\n",
				"bytecode": {
					"linkReferences": {},
					"object": "608060405234801561001057600080fd5b50610bbc806100206000396000f3fe6080604052600436106100a75760003560e01c8063cc9444e811610064578063cc9444e8146101ab578063d0e30db0146101e8578063d4e93292146101f2578063e89413c3146101fc578063f336016814610227578063fc7e286d14610264576100a7565b80630a7bb629146100ac57806314aff0a0146100d55780632c3afef3146100ec578063612eb5cc14610108578063a2b5a8a514610145578063a8c1a58914610182575b600080fd5b3480156100b857600080fd5b506100d360048036038101906100ce9190610820565b6102a1565b005b3480156100e157600080fd5b506100ea6102f8565b005b6101066004803603810190610101919061089f565b610355565b005b34801561011457600080fd5b5061012f600480360381019061012a919061089f565b6103ad565b60405161013c91906108e7565b60405180910390f35b34801561015157600080fd5b5061016c60048036038101906101679190610960565b6103cd565b6040516101799190610a15565b60405180910390f35b34801561018e57600080fd5b506101a960048036038101906101a4919061089f565b61046d565b005b3480156101b757600080fd5b506101d260048036038101906101cd9190610a37565b61049b565b6040516101df9190610a86565b60405180910390f35b6101f06104c0565b005b6101fa610518565b005b34801561020857600080fd5b506102116105eb565b60405161021e9190610a86565b60405180910390f35b34801561023357600080fd5b5061024e60048036038101906102499190610960565b6105f3565b60405161025b9190610a86565b60405180910390f35b34801561027057600080fd5b5061028b60048036038101906102869190610960565b61060b565b6040516102989190610a86565b60405180910390f35b80600260003373ffffffffffffffffffffffffffffffffffffffff1673ffffffffffffffffffffffffffffffffffffffff16815260200190815260200160002090805190602001906102f4929190610623565b5050565b3373ffffffffffffffffffffffffffffffffffffffff1631600160003373ffffffffffffffffffffffffffffffffffffffff1673ffffffffffffffffffffffffffffffffffffffff16815260200190815260200160002081905550565b34600360003373ffffffffffffffffffffffffffffffffffffffff1673ffffffffffffffffffffffffffffffffffffffff16815260200190815260200160002060008381526020019081526020016000208190555050565b60006020528060005260406000206000915054906101000a900460ff1681565b600260205280600052604060002060009150905080546103ec90610ad0565b80601f016020809104026020016040519081016040528092919081815260200182805461041890610ad0565b80156104655780601f1061043a57610100808354040283529160200191610465565b820191906000526020600020905b81548152906001019060200180831161044857829003601f168201915b505050505081565b600160008083815260200190815260200160002060006101000a81548160ff02191690831515021790555050565b6003602052816000526040600020602052806000526040600020600091509150505481565b34600460003373ffffffffffffffffffffffffffffffffffffffff1673ffffffffffffffffffffffffffffffffffffffff168152602001908152602001600020600082825461050f9190610b30565b92505081905550565b6000600460003373ffffffffffffffffffffffffffffffffffffffff1673ffffffffffffffffffffffffffffffffffffffff1681526020019081526020016000205490506000600460003373ffffffffffffffffffffffffffffffffffffffff1673ffffffffffffffffffffffffffffffffffffffff168152602001908152602001600020819055503373ffffffffffffffffffffffffffffffffffffffff166108fc829081150290604051600060405180830381858888f193505050501580156105e7573d6000803e3d6000fd5b5050565b600047905090565b60016020528060005260406000206000915090505481565b60046020528060005260406000206000915090505481565b82805461062f90610ad0565b90600052602060002090601f0160209004810192826106515760008555610698565b82601f1061066a57805160ff1916838001178555610698565b82800160010185558215610698579182015b8281111561069757825182559160200191906001019061067c565b5b5090506106a591906106a9565b5090565b5b808211156106c25760008160009055506001016106aa565b5090565b6000604051905090565b600080fd5b600080fd5b600080fd5b600080fd5b6000601f19601f8301169050919050565b7f4e487b7100000000000000000000000000000000000000000000000000000000600052604160045260246000fd5b61072d826106e4565b810181811067ffffffffffffffff8211171561074c5761074b6106f5565b5b80604052505050565b600061075f6106c6565b905061076b8282610724565b919050565b600067ffffffffffffffff82111561078b5761078a6106f5565b5b610794826106e4565b9050602081019050919050565b82818337600083830152505050565b60006107c36107be84610770565b610755565b9050828152602081018484840111156107df576107de6106df565b5b6107ea8482856107a1565b509392505050565b600082601f830112610807576108066106da565b5b81356108178482602086016107b0565b91505092915050565b600060208284031215610836576108356106d0565b5b600082013567ffffffffffffffff811115610854576108536106d5565b5b610860848285016107f2565b91505092915050565b6000819050919050565b61087c81610869565b811461088757600080fd5b50565b60008135905061089981610873565b92915050565b6000602082840312156108b5576108b46106d0565b5b60006108c38482850161088a565b91505092915050565b60008115159050919050565b6108e1816108cc565b82525050565b60006020820190506108fc60008301846108d8565b92915050565b600073ffffffffffffffffffffffffffffffffffffffff82169050919050565b600061092d82610902565b9050919050565b61093d81610922565b811461094857600080fd5b50565b60008135905061095a81610934565b92915050565b600060208284031215610976576109756106d0565b5b60006109848482850161094b565b91505092915050565b600081519050919050565b600082825260208201905092915050565b60005b838110156109c75780820151818401526020810190506109ac565b838111156109d6576000848401525b50505050565b60006109e78261098d565b6109f18185610998565b9350610a018185602086016109a9565b610a0a816106e4565b840191505092915050565b60006020820190508181036000830152610a2f81846109dc565b905092915050565b60008060408385031215610a4e57610a4d6106d0565b5b6000610a5c8582860161094b565b9250506020610a6d8582860161088a565b9150509250929050565b610a8081610869565b82525050565b6000602082019050610a9b6000830184610a77565b92915050565b7f4e487b7100000000000000000000000000000000000000000000000000000000600052602260045260246000fd5b60006002820490506001821680610ae857607f821691505b602082108103610afb57610afa610aa1565b5b50919050565b7f4e487b7100000000000000000000000000000000000000000000000000000000600052601160045260246000fd5b6000610b3b82610869565b9150610b4683610869565b9250827fffffffffffffffffffffffffffffffffffffffffffffffffffffffffffffffff03821115610b7b57610b7a610b01565b5b82820190509291505056fea2646970667358221220ff67f5f0f68b67dcf2a9016a480594bd03046d99fe1c651ba6fae7807aa6a72064736f6c634300080e0033",
					"opcodes": "PUSH1 0x80 PUSH1 0x40 MSTORE CALLVALUE DUP1 ISZERO PUSH2 0x10 JUMPI PUSH1 0x0 DUP1 REVERT JUMPDEST POP PUSH2 0xBBC DUP1 PUSH2 0x20 PUSH1 0x0 CODECOPY PUSH1 0x0 RETURN INVALID PUSH1 0x80 PUSH1 0x40 MSTORE PUSH1 0x4 CALLDATASIZE LT PUSH2 0xA7 JUMPI PUSH1 0x0 CALLDATALOAD PUSH1 0xE0 SHR DUP1 PUSH4 0xCC9444E8 GT PUSH2 0x64 JUMPI DUP1 PUSH4 0xCC9444E8 EQ PUSH2 0x1AB JUMPI DUP1 PUSH4 0xD0E30DB0 EQ PUSH2 0x1E8 JUMPI DUP1 PUSH4 0xD4E93292 EQ PUSH2 0x1F2 JUMPI DUP1 PUSH4 0xE89413C3 EQ PUSH2 0x1FC JUMPI DUP1 PUSH4 0xF3360168 EQ PUSH2 0x227 JUMPI DUP1 PUSH4 0xFC7E286D EQ PUSH2 0x264 JUMPI PUSH2 0xA7 JUMP JUMPDEST DUP1 PUSH4 0xA7BB629 EQ PUSH2 0xAC JUMPI DUP1 PUSH4 0x14AFF0A0 EQ PUSH2 0xD5 JUMPI DUP1 PUSH4 0x2C3AFEF3 EQ PUSH2 0xEC JUMPI DUP1 PUSH4 0x612EB5CC EQ PUSH2 0x108 JUMPI DUP1 PUSH4 0xA2B5A8A5 EQ PUSH2 0x145 JUMPI DUP1 PUSH4 0xA8C1A589 EQ PUSH2 0x182 JUMPI JUMPDEST PUSH1 0x0 DUP1 REVERT JUMPDEST CALLVALUE DUP1 ISZERO PUSH2 0xB8 JUMPI PUSH1 0x0 DUP1 REVERT JUMPDEST POP PUSH2 0xD3 PUSH1 0x4 DUP1 CALLDATASIZE SUB DUP2 ADD SWAP1 PUSH2 0xCE SWAP2 SWAP1 PUSH2 0x820 JUMP JUMPDEST PUSH2 0x2A1 JUMP JUMPDEST STOP JUMPDEST CALLVALUE DUP1 ISZERO PUSH2 0xE1 JUMPI PUSH1 0x0 DUP1 REVERT JUMPDEST POP PUSH2 0xEA PUSH2 0x2F8 JUMP JUMPDEST STOP JUMPDEST PUSH2 0x106 PUSH1 0x4 DUP1 CALLDATASIZE SUB DUP2 ADD SWAP1 PUSH2 0x101 SWAP2 SWAP1 PUSH2 0x89F JUMP JUMPDEST PUSH2 0x355 JUMP JUMPDEST STOP JUMPDEST CALLVALUE DUP1 ISZERO PUSH2 0x114 JUMPI PUSH1 0x0 DUP1 REVERT JUMPDEST POP PUSH2 0x12F PUSH1 0x4 DUP1 CALLDATASIZE SUB DUP2 ADD SWAP1 PUSH2 0x12A SWAP2 SWAP1 PUSH2 0x89F JUMP JUMPDEST PUSH2 0x3AD JUMP JUMPDEST PUSH1 0x40 MLOAD PUSH2 0x13C SWAP2 SWAP1 PUSH2 0x8E7 JUMP JUMPDEST PUSH1 0x40 MLOAD DUP1 SWAP2 SUB SWAP1 RETURN JUMPDEST CALLVALUE DUP1 ISZERO PUSH2 0x151 JUMPI PUSH1 0x0 DUP1 REVERT JUMPDEST POP PUSH2 0x16C PUSH1 0x4 DUP1 CALLDATASIZE SUB DUP2 ADD SWAP1 PUSH2 0x167 SWAP2 SWAP1 PUSH2 0x960 JUMP JUMPDEST PUSH2 0x3CD JUMP JUMPDEST PUSH1 0x40 MLOAD PUSH2 0x179 SWAP2 SWAP1 PUSH2 0xA15 JUMP JUMPDEST PUSH1 0x40 MLOAD DUP1 SWAP2 SUB SWAP1 RETURN JUMPDEST CALLVALUE DUP1 ISZERO PUSH2 0x18E JUMPI PUSH1 0x0 DUP1 REVERT JUMPDEST POP PUSH2 0x1A9 PUSH1 0x4 DUP1 CALLDATASIZE SUB DUP2 ADD SWAP1 PUSH2 0x1A4 SWAP2 SWAP1 PUSH2 0x89F JUMP JUMPDEST PUSH2 0x46D JUMP JUMPDEST STOP JUMPDEST CALLVALUE DUP1 ISZERO PUSH2 0x1B7 JUMPI PUSH1 0x0 DUP1 REVERT JUMPDEST POP PUSH2 0x1D2 PUSH1 0x4 DUP1 CALLDATASIZE SUB DUP2 ADD SWAP1 PUSH2 0x1CD SWAP2 SWAP1 PUSH2 0xA37 JUMP JUMPDEST PUSH2 0x49B JUMP JUMPDEST PUSH1 0x40 MLOAD PUSH2 0x1DF SWAP2 SWAP1 PUSH2 0xA86 JUMP JUMPDEST PUSH1 0x40 MLOAD DUP1 SWAP2 SUB SWAP1 RETURN JUMPDEST PUSH2 0x1F0 PUSH2 0x4C0 JUMP JUMPDEST STOP JUMPDEST PUSH2 0x1FA PUSH2 0x518 JUMP JUMPDEST STOP JUMPDEST CALLVALUE DUP1 ISZERO PUSH2 0x208 JUMPI PUSH1 0x0 DUP1 REVERT JUMPDEST POP PUSH2 0x211 PUSH2 0x5EB JUMP JUMPDEST PUSH1 0x40 MLOAD PUSH2 0x21E SWAP2 SWAP1 PUSH2 0xA86 JUMP JUMPDEST PUSH1 0x40 MLOAD DUP1 SWAP2 SUB SWAP1 RETURN JUMPDEST CALLVALUE DUP1 ISZERO PUSH2 0x233 JUMPI PUSH1 0x0 DUP1 REVERT JUMPDEST POP PUSH2 0x24E PUSH1 0x4 DUP1 CALLDATASIZE SUB DUP2 ADD SWAP1 PUSH2 0x249 SWAP2 SWAP1 PUSH2 0x960 JUMP JUMPDEST PUSH2 0x5F3 JUMP JUMPDEST PUSH1 0x40 MLOAD PUSH2 0x25B SWAP2 SWAP1 PUSH2 0xA86 JUMP JUMPDEST PUSH1 0x40 MLOAD DUP1 SWAP2 SUB SWAP1 RETURN JUMPDEST CALLVALUE DUP1 ISZERO PUSH2 0x270 JUMPI PUSH1 0x0 DUP1 REVERT JUMPDEST POP PUSH2 0x28B PUSH1 0x4 DUP1 CALLDATASIZE SUB DUP2 ADD SWAP1 PUSH2 0x286 SWAP2 SWAP1 PUSH2 0x960 JUMP JUMPDEST PUSH2 0x60B JUMP JUMPDEST PUSH1 0x40 MLOAD PUSH2 0x298 SWAP2 SWAP1 PUSH2 0xA86 JUMP JUMPDEST PUSH1 0x40 MLOAD DUP1 SWAP2 SUB SWAP1 RETURN JUMPDEST DUP1 PUSH1 0x2 PUSH1 0x0 CALLER PUSH20 0xFFFFFFFFFFFFFFFFFFFFFFFFFFFFFFFFFFFFFFFF AND PUSH20 0xFFFFFFFFFFFFFFFFFFFFFFFFFFFFFFFFFFFFFFFF AND DUP2 MSTORE PUSH1 0x20 ADD SWAP1 DUP2 MSTORE PUSH1 0x20 ADD PUSH1 0x0 KECCAK256 SWAP1 DUP1 MLOAD SWAP1 PUSH1 0x20 ADD SWAP1 PUSH2 0x2F4 SWAP3 SWAP2 SWAP1 PUSH2 0x623 JUMP JUMPDEST POP POP JUMP JUMPDEST CALLER PUSH20 0xFFFFFFFFFFFFFFFFFFFFFFFFFFFFFFFFFFFFFFFF AND BALANCE PUSH1 0x1 PUSH1 0x0 CALLER PUSH20 0xFFFFFFFFFFFFFFFFFFFFFFFFFFFFFFFFFFFFFFFF AND PUSH20 0xFFFFFFFFFFFFFFFFFFFFFFFFFFFFFFFFFFFFFFFF AND DUP2 MSTORE PUSH1 0x20 ADD SWAP1 DUP2 MSTORE PUSH1 0x20 ADD PUSH1 0x0 KECCAK256 DUP2 SWAP1 SSTORE POP JUMP JUMPDEST CALLVALUE PUSH1 0x3 PUSH1 0x0 CALLER PUSH20 0xFFFFFFFFFFFFFFFFFFFFFFFFFFFFFFFFFFFFFFFF AND PUSH20 0xFFFFFFFFFFFFFFFFFFFFFFFFFFFFFFFFFFFFFFFF AND DUP2 MSTORE PUSH1 0x20 ADD SWAP1 DUP2 MSTORE PUSH1 0x20 ADD PUSH1 0x0 KECCAK256 PUSH1 0x0 DUP4 DUP2 MSTORE PUSH1 0x20 ADD SWAP1 DUP2 MSTORE PUSH1 0x20 ADD PUSH1 0x0 KECCAK256 DUP2 SWAP1 SSTORE POP POP JUMP JUMPDEST PUSH1 0x0 PUSH1 0x20 MSTORE DUP1 PUSH1 0x0 MSTORE PUSH1 0x40 PUSH1 0x0 KECCAK256 PUSH1 0x0 SWAP2 POP SLOAD SWAP1 PUSH2 0x100 EXP SWAP1 DIV PUSH1 0xFF AND DUP2 JUMP JUMPDEST PUSH1 0x2 PUSH1 0x20 MSTORE DUP1 PUSH1 0x0 MSTORE PUSH1 0x40 PUSH1 0x0 KECCAK256 PUSH1 0x0 SWAP2 POP SWAP1 POP DUP1 SLOAD PUSH2 0x3EC SWAP1 PUSH2 0xAD0 JUMP JUMPDEST DUP1 PUSH1 0x1F ADD PUSH1 0x20 DUP1 SWAP2 DIV MUL PUSH1 0x20 ADD PUSH1 0x40 MLOAD SWAP1 DUP2 ADD PUSH1 0x40 MSTORE DUP1 SWAP3 SWAP2 SWAP1 DUP2 DUP2 MSTORE PUSH1 0x20 ADD DUP3 DUP1 SLOAD PUSH2 0x418 SWAP1 PUSH2 0xAD0 JUMP JUMPDEST DUP1 ISZERO PUSH2 0x465 JUMPI DUP1 PUSH1 0x1F LT PUSH2 0x43A JUMPI PUSH2 0x100 DUP1 DUP4 SLOAD DIV MUL DUP4 MSTORE SWAP2 PUSH1 0x20 ADD SWAP2 PUSH2 0x465 JUMP JUMPDEST DUP3 ADD SWAP2 SWAP1 PUSH1 0x0 MSTORE PUSH1 0x20 PUSH1 0x0 KECCAK256 SWAP1 JUMPDEST DUP2 SLOAD DUP2 MSTORE SWAP1 PUSH1 0x1 ADD SWAP1 PUSH1 0x20 ADD DUP1 DUP4 GT PUSH2 0x448 JUMPI DUP3 SWAP1 SUB PUSH1 0x1F AND DUP3 ADD SWAP2 JUMPDEST POP POP POP POP POP DUP2 JUMP JUMPDEST PUSH1 0x1 PUSH1 0x0 DUP1 DUP4 DUP2 MSTORE PUSH1 0x20 ADD SWAP1 DUP2 MSTORE PUSH1 0x20 ADD PUSH1 0x0 KECCAK256 PUSH1 0x0 PUSH2 0x100 EXP DUP2 SLOAD DUP2 PUSH1 0xFF MUL NOT AND SWAP1 DUP4 ISZERO ISZERO MUL OR SWAP1 SSTORE POP POP JUMP JUMPDEST PUSH1 0x3 PUSH1 0x20 MSTORE DUP2 PUSH1 0x0 MSTORE PUSH1 0x40 PUSH1 0x0 KECCAK256 PUSH1 0x20 MSTORE DUP1 PUSH1 0x0 MSTORE PUSH1 0x40 PUSH1 0x0 KECCAK256 PUSH1 0x0 SWAP2 POP SWAP2 POP POP SLOAD DUP2 JUMP JUMPDEST CALLVALUE PUSH1 0x4 PUSH1 0x0 CALLER PUSH20 0xFFFFFFFFFFFFFFFFFFFFFFFFFFFFFFFFFFFFFFFF AND PUSH20 0xFFFFFFFFFFFFFFFFFFFFFFFFFFFFFFFFFFFFFFFF AND DUP2 MSTORE PUSH1 0x20 ADD SWAP1 DUP2 MSTORE PUSH1 0x20 ADD PUSH1 0x0 KECCAK256 PUSH1 0x0 DUP3 DUP3 SLOAD PUSH2 0x50F SWAP2 SWAP1 PUSH2 0xB30 JUMP JUMPDEST SWAP3 POP POP DUP2 SWAP1 SSTORE POP JUMP JUMPDEST PUSH1 0x0 PUSH1 0x4 PUSH1 0x0 CALLER PUSH20 0xFFFFFFFFFFFFFFFFFFFFFFFFFFFFFFFFFFFFFFFF AND PUSH20 0xFFFFFFFFFFFFFFFFFFFFFFFFFFFFFFFFFFFFFFFF AND DUP2 MSTORE PUSH1 0x20 ADD SWAP1 DUP2 MSTORE PUSH1 0x20 ADD PUSH1 0x0 KECCAK256 SLOAD SWAP1 POP PUSH1 0x0 PUSH1 0x4 PUSH1 0x0 CALLER PUSH20 0xFFFFFFFFFFFFFFFFFFFFFFFFFFFFFFFFFFFFFFFF AND PUSH20 0xFFFFFFFFFFFFFFFFFFFFFFFFFFFFFFFFFFFFFFFF AND DUP2 MSTORE PUSH1 0x20 ADD SWAP1 DUP2 MSTORE PUSH1 0x20 ADD PUSH1 0x0 KECCAK256 DUP2 SWAP1 SSTORE POP CALLER PUSH20 0xFFFFFFFFFFFFFFFFFFFFFFFFFFFFFFFFFFFFFFFF AND PUSH2 0x8FC DUP3 SWAP1 DUP2 ISZERO MUL SWAP1 PUSH1 0x40 MLOAD PUSH1 0x0 PUSH1 0x40 MLOAD DUP1 DUP4 SUB DUP2 DUP6 DUP9 DUP9 CALL SWAP4 POP POP POP POP ISZERO DUP1 ISZERO PUSH2 0x5E7 JUMPI RETURNDATASIZE PUSH1 0x0 DUP1 RETURNDATACOPY RETURNDATASIZE PUSH1 0x0 REVERT JUMPDEST POP POP JUMP JUMPDEST PUSH1 0x0 SELFBALANCE SWAP1 POP SWAP1 JUMP JUMPDEST PUSH1 0x1 PUSH1 0x20 MSTORE DUP1 PUSH1 0x0 MSTORE PUSH1 0x40 PUSH1 0x0 KECCAK256 PUSH1 0x0 SWAP2 POP SWAP1 POP SLOAD DUP2 JUMP JUMPDEST PUSH1 0x4 PUSH1 0x20 MSTORE DUP1 PUSH1 0x0 MSTORE PUSH1 0x40 PUSH1 0x0 KECCAK256 PUSH1 0x0 SWAP2 POP SWAP1 POP SLOAD DUP2 JUMP JUMPDEST DUP3 DUP1 SLOAD PUSH2 0x62F SWAP1 PUSH2 0xAD0 JUMP JUMPDEST SWAP1 PUSH1 0x0 MSTORE PUSH1 0x20 PUSH1 0x0 KECCAK256 SWAP1 PUSH1 0x1F ADD PUSH1 0x20 SWAP1 DIV DUP2 ADD SWAP3 DUP3 PUSH2 0x651 JUMPI PUSH1 0x0 DUP6 SSTORE PUSH2 0x698 JUMP JUMPDEST DUP3 PUSH1 0x1F LT PUSH2 0x66A JUMPI DUP1 MLOAD PUSH1 0xFF NOT AND DUP4 DUP1 ADD OR DUP6 SSTORE PUSH2 0x698 JUMP JUMPDEST DUP3 DUP1 ADD PUSH1 0x1 ADD DUP6 SSTORE DUP3 ISZERO PUSH2 0x698 JUMPI SWAP2 DUP3 ADD JUMPDEST DUP3 DUP2 GT ISZERO PUSH2 0x697 JUMPI DUP3 MLOAD DUP3 SSTORE SWAP2 PUSH1 0x20 ADD SWAP2 SWAP1 PUSH1 0x1 ADD SWAP1 PUSH2 0x67C JUMP JUMPDEST JUMPDEST POP SWAP1 POP PUSH2 0x6A5 SWAP2 SWAP1 PUSH2 0x6A9 JUMP JUMPDEST POP SWAP1 JUMP JUMPDEST JUMPDEST DUP1 DUP3 GT ISZERO PUSH2 0x6C2 JUMPI PUSH1 0x0 DUP2 PUSH1 0x0 SWAP1 SSTORE POP PUSH1 0x1 ADD PUSH2 0x6AA JUMP JUMPDEST POP SWAP1 JUMP JUMPDEST PUSH1 0x0 PUSH1 0x40 MLOAD SWAP1 POP SWAP1 JUMP JUMPDEST PUSH1 0x0 DUP1 REVERT JUMPDEST PUSH1 0x0 DUP1 REVERT JUMPDEST PUSH1 0x0 DUP1 REVERT JUMPDEST PUSH1 0x0 DUP1 REVERT JUMPDEST PUSH1 0x0 PUSH1 0x1F NOT PUSH1 0x1F DUP4 ADD AND SWAP1 POP SWAP2 SWAP1 POP JUMP JUMPDEST PUSH32 0x4E487B7100000000000000000000000000000000000000000000000000000000 PUSH1 0x0 MSTORE PUSH1 0x41 PUSH1 0x4 MSTORE PUSH1 0x24 PUSH1 0x0 REVERT JUMPDEST PUSH2 0x72D DUP3 PUSH2 0x6E4 JUMP JUMPDEST DUP2 ADD DUP2 DUP2 LT PUSH8 0xFFFFFFFFFFFFFFFF DUP3 GT OR ISZERO PUSH2 0x74C JUMPI PUSH2 0x74B PUSH2 0x6F5 JUMP JUMPDEST JUMPDEST DUP1 PUSH1 0x40 MSTORE POP POP POP JUMP JUMPDEST PUSH1 0x0 PUSH2 0x75F PUSH2 0x6C6 JUMP JUMPDEST SWAP1 POP PUSH2 0x76B DUP3 DUP3 PUSH2 0x724 JUMP JUMPDEST SWAP2 SWAP1 POP JUMP JUMPDEST PUSH1 0x0 PUSH8 0xFFFFFFFFFFFFFFFF DUP3 GT ISZERO PUSH2 0x78B JUMPI PUSH2 0x78A PUSH2 0x6F5 JUMP JUMPDEST JUMPDEST PUSH2 0x794 DUP3 PUSH2 0x6E4 JUMP JUMPDEST SWAP1 POP PUSH1 0x20 DUP2 ADD SWAP1 POP SWAP2 SWAP1 POP JUMP JUMPDEST DUP3 DUP2 DUP4 CALLDATACOPY PUSH1 0x0 DUP4 DUP4 ADD MSTORE POP POP POP JUMP JUMPDEST PUSH1 0x0 PUSH2 0x7C3 PUSH2 0x7BE DUP5 PUSH2 0x770 JUMP JUMPDEST PUSH2 0x755 JUMP JUMPDEST SWAP1 POP DUP3 DUP2 MSTORE PUSH1 0x20 DUP2 ADD DUP5 DUP5 DUP5 ADD GT ISZERO PUSH2 0x7DF JUMPI PUSH2 0x7DE PUSH2 0x6DF JUMP JUMPDEST JUMPDEST PUSH2 0x7EA DUP5 DUP3 DUP6 PUSH2 0x7A1 JUMP JUMPDEST POP SWAP4 SWAP3 POP POP POP JUMP JUMPDEST PUSH1 0x0 DUP3 PUSH1 0x1F DUP4 ADD SLT PUSH2 0x807 JUMPI PUSH2 0x806 PUSH2 0x6DA JUMP JUMPDEST JUMPDEST DUP2 CALLDATALOAD PUSH2 0x817 DUP5 DUP3 PUSH1 0x20 DUP7 ADD PUSH2 0x7B0 JUMP JUMPDEST SWAP2 POP POP SWAP3 SWAP2 POP POP JUMP JUMPDEST PUSH1 0x0 PUSH1 0x20 DUP3 DUP5 SUB SLT ISZERO PUSH2 0x836 JUMPI PUSH2 0x835 PUSH2 0x6D0 JUMP JUMPDEST JUMPDEST PUSH1 0x0 DUP3 ADD CALLDATALOAD PUSH8 0xFFFFFFFFFFFFFFFF DUP2 GT ISZERO PUSH2 0x854 JUMPI PUSH2 0x853 PUSH2 0x6D5 JUMP JUMPDEST JUMPDEST PUSH2 0x860 DUP5 DUP3 DUP6 ADD PUSH2 0x7F2 JUMP JUMPDEST SWAP2 POP POP SWAP3 SWAP2 POP POP JUMP JUMPDEST PUSH1 0x0 DUP2 SWAP1 POP SWAP2 SWAP1 POP JUMP JUMPDEST PUSH2 0x87C DUP2 PUSH2 0x869 JUMP JUMPDEST DUP2 EQ PUSH2 0x887 JUMPI PUSH1 0x0 DUP1 REVERT JUMPDEST POP JUMP JUMPDEST PUSH1 0x0 DUP2 CALLDATALOAD SWAP1 POP PUSH2 0x899 DUP2 PUSH2 0x873 JUMP JUMPDEST SWAP3 SWAP2 POP POP JUMP JUMPDEST PUSH1 0x0 PUSH1 0x20 DUP3 DUP5 SUB SLT ISZERO PUSH2 0x8B5 JUMPI PUSH2 0x8B4 PUSH2 0x6D0 JUMP JUMPDEST JUMPDEST PUSH1 0x0 PUSH2 0x8C3 DUP5 DUP3 DUP6 ADD PUSH2 0x88A JUMP JUMPDEST SWAP2 POP POP SWAP3 SWAP2 POP POP JUMP JUMPDEST PUSH1 0x0 DUP2 ISZERO ISZERO SWAP1 POP SWAP2 SWAP1 POP JUMP JUMPDEST PUSH2 0x8E1 DUP2 PUSH2 0x8CC JUMP JUMPDEST DUP3 MSTORE POP POP JUMP JUMPDEST PUSH1 0x0 PUSH1 0x20 DUP3 ADD SWAP1 POP PUSH2 0x8FC PUSH1 0x0 DUP4 ADD DUP5 PUSH2 0x8D8 JUMP JUMPDEST SWAP3 SWAP2 POP POP JUMP JUMPDEST PUSH1 0x0 PUSH20 0xFFFFFFFFFFFFFFFFFFFFFFFFFFFFFFFFFFFFFFFF DUP3 AND SWAP1 POP SWAP2 SWAP1 POP JUMP JUMPDEST PUSH1 0x0 PUSH2 0x92D DUP3 PUSH2 0x902 JUMP JUMPDEST SWAP1 POP SWAP2 SWAP1 POP JUMP JUMPDEST PUSH2 0x93D DUP2 PUSH2 0x922 JUMP JUMPDEST DUP2 EQ PUSH2 0x948 JUMPI PUSH1 0x0 DUP1 REVERT JUMPDEST POP JUMP JUMPDEST PUSH1 0x0 DUP2 CALLDATALOAD SWAP1 POP PUSH2 0x95A DUP2 PUSH2 0x934 JUMP JUMPDEST SWAP3 SWAP2 POP POP JUMP JUMPDEST PUSH1 0x0 PUSH1 0x20 DUP3 DUP5 SUB SLT ISZERO PUSH2 0x976 JUMPI PUSH2 0x975 PUSH2 0x6D0 JUMP JUMPDEST JUMPDEST PUSH1 0x0 PUSH2 0x984 DUP5 DUP3 DUP6 ADD PUSH2 0x94B JUMP JUMPDEST SWAP2 POP POP SWAP3 SWAP2 POP POP JUMP JUMPDEST PUSH1 0x0 DUP2 MLOAD SWAP1 POP SWAP2 SWAP1 POP JUMP JUMPDEST PUSH1 0x0 DUP3 DUP3 MSTORE PUSH1 0x20 DUP3 ADD SWAP1 POP SWAP3 SWAP2 POP POP JUMP JUMPDEST PUSH1 0x0 JUMPDEST DUP4 DUP2 LT ISZERO PUSH2 0x9C7 JUMPI DUP1 DUP3 ADD MLOAD DUP2 DUP5 ADD MSTORE PUSH1 0x20 DUP2 ADD SWAP1 POP PUSH2 0x9AC JUMP JUMPDEST DUP4 DUP2 GT ISZERO PUSH2 0x9D6 JUMPI PUSH1 0x0 DUP5 DUP5 ADD MSTORE JUMPDEST POP POP POP POP JUMP JUMPDEST PUSH1 0x0 PUSH2 0x9E7 DUP3 PUSH2 0x98D JUMP JUMPDEST PUSH2 0x9F1 DUP2 DUP6 PUSH2 0x998 JUMP JUMPDEST SWAP4 POP PUSH2 0xA01 DUP2 DUP6 PUSH1 0x20 DUP7 ADD PUSH2 0x9A9 JUMP JUMPDEST PUSH2 0xA0A DUP2 PUSH2 0x6E4 JUMP JUMPDEST DUP5 ADD SWAP2 POP POP SWAP3 SWAP2 POP POP JUMP JUMPDEST PUSH1 0x0 PUSH1 0x20 DUP3 ADD SWAP1 POP DUP2 DUP2 SUB PUSH1 0x0 DUP4 ADD MSTORE PUSH2 0xA2F DUP2 DUP5 PUSH2 0x9DC JUMP JUMPDEST SWAP1 POP SWAP3 SWAP2 POP POP JUMP JUMPDEST PUSH1 0x0 DUP1 PUSH1 0x40 DUP4 DUP6 SUB SLT ISZERO PUSH2 0xA4E JUMPI PUSH2 0xA4D PUSH2 0x6D0 JUMP JUMPDEST JUMPDEST PUSH1 0x0 PUSH2 0xA5C DUP6 DUP3 DUP7 ADD PUSH2 0x94B JUMP JUMPDEST SWAP3 POP POP PUSH1 0x20 PUSH2 0xA6D DUP6 DUP3 DUP7 ADD PUSH2 0x88A JUMP JUMPDEST SWAP2 POP POP SWAP3 POP SWAP3 SWAP1 POP JUMP JUMPDEST PUSH2 0xA80 DUP2 PUSH2 0x869 JUMP JUMPDEST DUP3 MSTORE POP POP JUMP JUMPDEST PUSH1 0x0 PUSH1 0x20 DUP3 ADD SWAP1 POP PUSH2 0xA9B PUSH1 0x0 DUP4 ADD DUP5 PUSH2 0xA77 JUMP JUMPDEST SWAP3 SWAP2 POP POP JUMP JUMPDEST PUSH32 0x4E487B7100000000000000000000000000000000000000000000000000000000 PUSH1 0x0 MSTORE PUSH1 0x22 PUSH1 0x4 MSTORE PUSH1 0x24 PUSH1 0x0 REVERT JUMPDEST PUSH1 0x0 PUSH1 0x2 DUP3 DIV SWAP1 POP PUSH1 0x1 DUP3 AND DUP1 PUSH2 0xAE8 JUMPI PUSH1 0x7F DUP3 AND SWAP2 POP JUMPDEST PUSH1 0x20 DUP3 LT DUP2 SUB PUSH2 0xAFB JUMPI PUSH2 0xAFA PUSH2 0xAA1 JUMP JUMPDEST JUMPDEST POP SWAP2 SWAP1 POP JUMP JUMPDEST PUSH32 0x4E487B7100000000000000000000000000000000000000000000000000000000 PUSH1 0x0 MSTORE PUSH1 0x11 PUSH1 0x4 MSTORE PUSH1 0x24 PUSH1 0x0 REVERT JUMPDEST PUSH1 0x0 PUSH2 0xB3B DUP3 PUSH2 0x869 JUMP JUMPDEST SWAP2 POP PUSH2 0xB46 DUP4 PUSH2 0x869 JUMP JUMPDEST SWAP3 POP DUP3 PUSH32 0xFFFFFFFFFFFFFFFFFFFFFFFFFFFFFFFFFFFFFFFFFFFFFFFFFFFFFFFFFFFFFFFF SUB DUP3 GT ISZERO PUSH2 0xB7B JUMPI PUSH2 0xB7A PUSH2 0xB01 JUMP JUMPDEST JUMPDEST DUP3 DUP3 ADD SWAP1 POP SWAP3 SWAP2 POP POP JUMP INVALID LOG2 PUSH5 0x6970667358 0x22 SLT KECCAK256 SELFDESTRUCT PUSH8 0xF5F0F68B67DCF2A9 ADD PUSH11 0x480594BD03046D99FE1C65 SHL 0xA6 STATICCALL 0xE7 DUP1 PUSH27 0xA6A72064736F6C634300080E003300000000000000000000000000 "
				},
				"gasEstimates": {
					"creation": {
						"codeDepositCost": "600800",
						"executionCost": "632",
						"totalCost": "601432"
					},
					"external": {
						"MyUintToBool(uint256)": "24862",
						"SetDepositInfo(uint256)": "22707",
						"SetMyAddress()": "24975",
						"checkBalanceInfo()": "405",
						"deposit()": "infinite",
						"deposits(address)": "2924",
						"favoriteWord(address)": "infinite",
						"myAddressInfo(address)": "2902",
						"setMyFavorite(string)": "infinite",
						"uintToBool(uint256)": "2863",
						"valueSent(address,uint256)": "infinite",
						"withdrawal()": "infinite"
					}
				},
				"methodIdentifiers": {
					"MyUintToBool(uint256)": "a8c1a589",
					"SetDepositInfo(uint256)": "2c3afef3",
					"SetMyAddress()": "14aff0a0",
					"checkBalanceInfo()": "e89413c3",
					"deposit()": "d0e30db0",
					"deposits(address)": "fc7e286d",
					"favoriteWord(address)": "a2b5a8a5",
					"myAddressInfo(address)": "f3360168",
					"setMyFavorite(string)": "0a7bb629",
					"uintToBool(uint256)": "612eb5cc",
					"valueSent(address,uint256)": "cc9444e8",
					"withdrawal()": "d4e93292"
				}
			},
			"storageLayout": {
				"storage": [
					{
						"astId": 5,
						"contract": "Section 1/MappingExample.sol:MappingExample",
						"label": "uintToBool",
						"offset": 0,
						"slot": "0",
						"type": "t_mapping(t_uint256,t_bool)"
					},
					{
						"astId": 9,
						"contract": "Section 1/MappingExample.sol:MappingExample",
						"label": "myAddressInfo",
						"offset": 0,
						"slot": "1",
						"type": "t_mapping(t_address,t_uint256)"
					},
					{
						"astId": 13,
						"contract": "Section 1/MappingExample.sol:MappingExample",
						"label": "favoriteWord",
						"offset": 0,
						"slot": "2",
						"type": "t_mapping(t_address,t_string_storage)"
					},
					{
						"astId": 19,
						"contract": "Section 1/MappingExample.sol:MappingExample",
						"label": "valueSent",
						"offset": 0,
						"slot": "3",
						"type": "t_mapping(t_address,t_mapping(t_uint256,t_uint256))"
					},
					{
						"astId": 23,
						"contract": "Section 1/MappingExample.sol:MappingExample",
						"label": "deposits",
						"offset": 0,
						"slot": "4",
						"type": "t_mapping(t_address,t_uint256)"
					}
				],
				"types": {
					"t_address": {
						"encoding": "inplace",
						"label": "address",
						"numberOfBytes": "20"
					},
					"t_bool": {
						"encoding": "inplace",
						"label": "bool",
						"numberOfBytes": "1"
					},
					"t_mapping(t_address,t_mapping(t_uint256,t_uint256))": {
						"encoding": "mapping",
						"key": "t_address",
						"label": "mapping(address => mapping(uint256 => uint256))",
						"numberOfBytes": "32",
						"value": "t_mapping(t_uint256,t_uint256)"
					},
					"t_mapping(t_address,t_string_storage)": {
						"encoding": "mapping",
						"key": "t_address",
						"label": "mapping(address => string)",
						"numberOfBytes": "32",
						"value": "t_string_storage"
					},
					"t_mapping(t_address,t_uint256)": {
						"encoding": "mapping",
						"key": "t_address",
						"label": "mapping(address => uint256)",
						"numberOfBytes": "32",
						"value": "t_uint256"
					},
					"t_mapping(t_uint256,t_bool)": {
						"encoding": "mapping",
						"key": "t_uint256",
						"label": "mapping(uint256 => bool)",
						"numberOfBytes": "32",
						"value": "t_bool"
					},
					"t_mapping(t_uint256,t_uint256)": {
						"encoding": "mapping",
						"key": "t_uint256",
						"label": "mapping(uint256 => uint256)",
						"numberOfBytes": "32",
						"value": "t_uint256"
					},
					"t_string_storage": {
						"encoding": "bytes",
						"label": "string",
						"numberOfBytes": "32"
					},
					"t_uint256": {
						"encoding": "inplace",
						"label": "uint256",
						"numberOfBytes": "32"
					}
				}
			},
			"userdoc": {
				"kind": "user",
				"methods": {},
				"version": 1
			}
		}
	}
}