{
	"Section 1/StructExample.sol": {
		"StructExample": {
			"abi": [
				{
					"inputs": [],
					"name": "Order",
					"outputs": [
						{
							"internalType": "address",
							"name": "from",
							"type": "address"
						},
						{
							"internalType": "string",
							"name": "beans",
							"type": "string"
						},
						{
							"internalType": "uint256",
							"name": "quantity",
							"type": "uint256"
						}
					],
					"stateMutability": "view",
					"type": "function"
				},
				{
					"inputs": [
						{
							"internalType": "string",
							"name": "_beans",
							"type": "string"
						},
						{
							"internalType": "uint256",
							"name": "_quantity",
							"type": "uint256"
						}
					],
					"name": "buySomeCoffee",
					"outputs": [],
					"stateMutability": "payable",
					"type": "function"
				}
			],
			"devdoc": {
				"kind": "dev",
				"methods": {},
				"version": 1
			},
			"evm": {
				"assembly": "    /* \"Section 1/StructExample.sol\":61:380  contract StructExample {... */\n  mstore(0x40, 0x80)\n  callvalue\n  dup1\n  iszero\n  tag_1\n  jumpi\n  0x00\n  dup1\n  revert\ntag_1:\n  pop\n  dataSize(sub_0)\n  dup1\n  dataOffset(sub_0)\n  0x00\n  codecopy\n  0x00\n  return\nstop\n\nsub_0: assembly {\n        /* \"Section 1/StructExample.sol\":61:380  contract StructExample {... */\n      mstore(0x40, 0x80)\n      jumpi(tag_1, lt(calldatasize, 0x04))\n      shr(0xe0, calldataload(0x00))\n      dup1\n      0x2a83e555\n      eq\n      tag_2\n      jumpi\n      dup1\n      0xcc7e2208\n      eq\n      tag_3\n      jumpi\n    tag_1:\n      0x00\n      dup1\n      revert\n        /* \"Section 1/StructExample.sol\":231:377  function buySomeCoffee (string memory _beans, uint _quantity) public payable {... */\n    tag_2:\n      tag_4\n      0x04\n      dup1\n      calldatasize\n      sub\n      dup2\n      add\n      swap1\n      tag_5\n      swap2\n      swap1\n      tag_6\n      jump\t// in\n    tag_5:\n      tag_7\n      jump\t// in\n    tag_4:\n      stop\n        /* \"Section 1/StructExample.sol\":198:222  MakeAnOrder public Order */\n    tag_3:\n      callvalue\n      dup1\n      iszero\n      tag_8\n      jumpi\n      0x00\n      dup1\n      revert\n    tag_8:\n      pop\n      tag_9\n      tag_10\n      jump\t// in\n    tag_9:\n      mload(0x40)\n      tag_11\n      swap4\n      swap3\n      swap2\n      swap1\n      tag_12\n      jump\t// in\n    tag_11:\n      mload(0x40)\n      dup1\n      swap2\n      sub\n      swap1\n      return\n        /* \"Section 1/StructExample.sol\":231:377  function buySomeCoffee (string memory _beans, uint _quantity) public payable {... */\n    tag_7:\n        /* \"Section 1/StructExample.sol\":327:369  MakeAnOrder(msg.sender, _beans, _quantity) */\n      mload(0x40)\n      dup1\n      0x60\n      add\n      0x40\n      mstore\n      dup1\n        /* \"Section 1/StructExample.sol\":339:349  msg.sender */\n      caller\n        /* \"Section 1/StructExample.sol\":327:369  MakeAnOrder(msg.sender, _beans, _quantity) */\n      0xffffffffffffffffffffffffffffffffffffffff\n      and\n      dup2\n      mstore\n      0x20\n      add\n        /* \"Section 1/StructExample.sol\":351:357  _beans */\n      dup4\n        /* \"Section 1/StructExample.sol\":327:369  MakeAnOrder(msg.sender, _beans, _quantity) */\n      dup2\n      mstore\n      0x20\n      add\n        /* \"Section 1/StructExample.sol\":359:368  _quantity */\n      dup3\n        /* \"Section 1/StructExample.sol\":327:369  MakeAnOrder(msg.sender, _beans, _quantity) */\n      dup2\n      mstore\n      pop\n        /* \"Section 1/StructExample.sol\":319:324  Order */\n      0x00\n        /* \"Section 1/StructExample.sol\":319:369  Order = MakeAnOrder(msg.sender, _beans, _quantity) */\n      dup1\n      dup3\n      add\n      mload\n      dup2\n      0x00\n      add\n      exp(0x0100, 0x00)\n      dup2\n      sload\n      dup2\n      0xffffffffffffffffffffffffffffffffffffffff\n      mul\n      not\n      and\n      swap1\n      dup4\n      0xffffffffffffffffffffffffffffffffffffffff\n      and\n      mul\n      or\n      swap1\n      sstore\n      pop\n      0x20\n      dup3\n      add\n      mload\n      dup2\n      0x01\n      add\n      swap1\n      dup1\n      mload\n      swap1\n      0x20\n      add\n      swap1\n      tag_14\n      swap3\n      swap2\n      swap1\n      tag_15\n      jump\t// in\n    tag_14:\n      pop\n      0x40\n      dup3\n      add\n      mload\n      dup2\n      0x02\n      add\n      sstore\n      swap1\n      pop\n      pop\n        /* \"Section 1/StructExample.sol\":231:377  function buySomeCoffee (string memory _beans, uint _quantity) public payable {... */\n      pop\n      pop\n      jump\t// out\n        /* \"Section 1/StructExample.sol\":198:222  MakeAnOrder public Order */\n    tag_10:\n      0x00\n      dup1\n      0x00\n      add\n      0x00\n      swap1\n      sload\n      swap1\n      0x0100\n      exp\n      swap1\n      div\n      0xffffffffffffffffffffffffffffffffffffffff\n      and\n      swap1\n      dup1\n      0x01\n      add\n      dup1\n      sload\n      tag_16\n      swap1\n      tag_17\n      jump\t// in\n    tag_16:\n      dup1\n      0x1f\n      add\n      0x20\n      dup1\n      swap2\n      div\n      mul\n      0x20\n      add\n      mload(0x40)\n      swap1\n      dup2\n      add\n      0x40\n      mstore\n      dup1\n      swap3\n      swap2\n      swap1\n      dup2\n      dup2\n      mstore\n      0x20\n      add\n      dup3\n      dup1\n      sload\n      tag_18\n      swap1\n      tag_17\n      jump\t// in\n    tag_18:\n      dup1\n      iszero\n      tag_19\n      jumpi\n      dup1\n      0x1f\n      lt\n      tag_20\n      jumpi\n      0x0100\n      dup1\n      dup4\n      sload\n      div\n      mul\n      dup4\n      mstore\n      swap2\n      0x20\n      add\n      swap2\n      jump(tag_19)\n    tag_20:\n      dup3\n      add\n      swap2\n      swap1\n      0x00\n      mstore\n      keccak256(0x00, 0x20)\n      swap1\n    tag_21:\n      dup2\n      sload\n      dup2\n      mstore\n      swap1\n      0x01\n      add\n      swap1\n      0x20\n      add\n      dup1\n      dup4\n      gt\n      tag_21\n      jumpi\n      dup3\n      swap1\n      sub\n      0x1f\n      and\n      dup3\n      add\n      swap2\n    tag_19:\n      pop\n      pop\n      pop\n      pop\n      pop\n      swap1\n      dup1\n      0x02\n      add\n      sload\n      swap1\n      pop\n      dup4\n      jump\t// out\n    tag_15:\n      dup3\n      dup1\n      sload\n      tag_22\n      swap1\n      tag_17\n      jump\t// in\n    tag_22:\n      swap1\n      0x00\n      mstore\n      keccak256(0x00, 0x20)\n      swap1\n      0x1f\n      add\n      0x20\n      swap1\n      div\n      dup2\n      add\n      swap3\n      dup3\n      tag_24\n      jumpi\n      0x00\n      dup6\n      sstore\n      jump(tag_23)\n    tag_24:\n      dup3\n      0x1f\n      lt\n      tag_25\n      jumpi\n      dup1\n      mload\n      not(0xff)\n      and\n      dup4\n      dup1\n      add\n      or\n      dup6\n      sstore\n      jump(tag_23)\n    tag_25:\n      dup3\n      dup1\n      add\n      0x01\n      add\n      dup6\n      sstore\n      dup3\n      iszero\n      tag_23\n      jumpi\n      swap2\n      dup3\n      add\n    tag_26:\n      dup3\n      dup2\n      gt\n      iszero\n      tag_27\n      jumpi\n      dup3\n      mload\n      dup3\n      sstore\n      swap2\n      0x20\n      add\n      swap2\n      swap1\n      0x01\n      add\n      swap1\n      jump(tag_26)\n    tag_27:\n    tag_23:\n      pop\n      swap1\n      pop\n      tag_28\n      swap2\n      swap1\n      tag_29\n      jump\t// in\n    tag_28:\n      pop\n      swap1\n      jump\t// out\n    tag_29:\n    tag_30:\n      dup1\n      dup3\n      gt\n      iszero\n      tag_31\n      jumpi\n      0x00\n      dup2\n      0x00\n      swap1\n      sstore\n      pop\n      0x01\n      add\n      jump(tag_30)\n    tag_31:\n      pop\n      swap1\n      jump\t// out\n        /* \"#utility.yul\":7:82   */\n    tag_32:\n        /* \"#utility.yul\":40:46   */\n      0x00\n        /* \"#utility.yul\":73:75   */\n      0x40\n        /* \"#utility.yul\":67:76   */\n      mload\n        /* \"#utility.yul\":57:76   */\n      swap1\n      pop\n        /* \"#utility.yul\":7:82   */\n      swap1\n      jump\t// out\n        /* \"#utility.yul\":88:205   */\n    tag_33:\n        /* \"#utility.yul\":197:198   */\n      0x00\n        /* \"#utility.yul\":194:195   */\n      dup1\n        /* \"#utility.yul\":187:199   */\n      revert\n        /* \"#utility.yul\":211:328   */\n    tag_34:\n        /* \"#utility.yul\":320:321   */\n      0x00\n        /* \"#utility.yul\":317:318   */\n      dup1\n        /* \"#utility.yul\":310:322   */\n      revert\n        /* \"#utility.yul\":334:451   */\n    tag_35:\n        /* \"#utility.yul\":443:444   */\n      0x00\n        /* \"#utility.yul\":440:441   */\n      dup1\n        /* \"#utility.yul\":433:445   */\n      revert\n        /* \"#utility.yul\":457:574   */\n    tag_36:\n        /* \"#utility.yul\":566:567   */\n      0x00\n        /* \"#utility.yul\":563:564   */\n      dup1\n        /* \"#utility.yul\":556:568   */\n      revert\n        /* \"#utility.yul\":580:682   */\n    tag_37:\n        /* \"#utility.yul\":621:627   */\n      0x00\n        /* \"#utility.yul\":672:674   */\n      0x1f\n        /* \"#utility.yul\":668:675   */\n      not\n        /* \"#utility.yul\":663:665   */\n      0x1f\n        /* \"#utility.yul\":656:661   */\n      dup4\n        /* \"#utility.yul\":652:666   */\n      add\n        /* \"#utility.yul\":648:676   */\n      and\n        /* \"#utility.yul\":638:676   */\n      swap1\n      pop\n        /* \"#utility.yul\":580:682   */\n      swap2\n      swap1\n      pop\n      jump\t// out\n        /* \"#utility.yul\":688:868   */\n    tag_38:\n        /* \"#utility.yul\":736:813   */\n      0x4e487b7100000000000000000000000000000000000000000000000000000000\n        /* \"#utility.yul\":733:734   */\n      0x00\n        /* \"#utility.yul\":726:814   */\n      mstore\n        /* \"#utility.yul\":833:837   */\n      0x41\n        /* \"#utility.yul\":830:831   */\n      0x04\n        /* \"#utility.yul\":823:838   */\n      mstore\n        /* \"#utility.yul\":857:861   */\n      0x24\n        /* \"#utility.yul\":854:855   */\n      0x00\n        /* \"#utility.yul\":847:862   */\n      revert\n        /* \"#utility.yul\":874:1155   */\n    tag_39:\n        /* \"#utility.yul\":957:984   */\n      tag_66\n        /* \"#utility.yul\":979:983   */\n      dup3\n        /* \"#utility.yul\":957:984   */\n      tag_37\n      jump\t// in\n    tag_66:\n        /* \"#utility.yul\":949:955   */\n      dup2\n        /* \"#utility.yul\":945:985   */\n      add\n        /* \"#utility.yul\":1087:1093   */\n      dup2\n        /* \"#utility.yul\":1075:1085   */\n      dup2\n        /* \"#utility.yul\":1072:1094   */\n      lt\n        /* \"#utility.yul\":1051:1069   */\n      0xffffffffffffffff\n        /* \"#utility.yul\":1039:1049   */\n      dup3\n        /* \"#utility.yul\":1036:1070   */\n      gt\n        /* \"#utility.yul\":1033:1095   */\n      or\n        /* \"#utility.yul\":1030:1118   */\n      iszero\n      tag_67\n      jumpi\n        /* \"#utility.yul\":1098:1116   */\n      tag_68\n      tag_38\n      jump\t// in\n    tag_68:\n        /* \"#utility.yul\":1030:1118   */\n    tag_67:\n        /* \"#utility.yul\":1138:1148   */\n      dup1\n        /* \"#utility.yul\":1134:1136   */\n      0x40\n        /* \"#utility.yul\":1127:1149   */\n      mstore\n        /* \"#utility.yul\":917:1155   */\n      pop\n        /* \"#utility.yul\":874:1155   */\n      pop\n      pop\n      jump\t// out\n        /* \"#utility.yul\":1161:1290   */\n    tag_40:\n        /* \"#utility.yul\":1195:1201   */\n      0x00\n        /* \"#utility.yul\":1222:1242   */\n      tag_70\n      tag_32\n      jump\t// in\n    tag_70:\n        /* \"#utility.yul\":1212:1242   */\n      swap1\n      pop\n        /* \"#utility.yul\":1251:1284   */\n      tag_71\n        /* \"#utility.yul\":1279:1283   */\n      dup3\n        /* \"#utility.yul\":1271:1277   */\n      dup3\n        /* \"#utility.yul\":1251:1284   */\n      tag_39\n      jump\t// in\n    tag_71:\n        /* \"#utility.yul\":1161:1290   */\n      swap2\n      swap1\n      pop\n      jump\t// out\n        /* \"#utility.yul\":1296:1604   */\n    tag_41:\n        /* \"#utility.yul\":1358:1362   */\n      0x00\n        /* \"#utility.yul\":1448:1466   */\n      0xffffffffffffffff\n        /* \"#utility.yul\":1440:1446   */\n      dup3\n        /* \"#utility.yul\":1437:1467   */\n      gt\n        /* \"#utility.yul\":1434:1490   */\n      iszero\n      tag_73\n      jumpi\n        /* \"#utility.yul\":1470:1488   */\n      tag_74\n      tag_38\n      jump\t// in\n    tag_74:\n        /* \"#utility.yul\":1434:1490   */\n    tag_73:\n        /* \"#utility.yul\":1508:1537   */\n      tag_75\n        /* \"#utility.yul\":1530:1536   */\n      dup3\n        /* \"#utility.yul\":1508:1537   */\n      tag_37\n      jump\t// in\n    tag_75:\n        /* \"#utility.yul\":1500:1537   */\n      swap1\n      pop\n        /* \"#utility.yul\":1592:1596   */\n      0x20\n        /* \"#utility.yul\":1586:1590   */\n      dup2\n        /* \"#utility.yul\":1582:1597   */\n      add\n        /* \"#utility.yul\":1574:1597   */\n      swap1\n      pop\n        /* \"#utility.yul\":1296:1604   */\n      swap2\n      swap1\n      pop\n      jump\t// out\n        /* \"#utility.yul\":1610:1764   */\n    tag_42:\n        /* \"#utility.yul\":1694:1700   */\n      dup3\n        /* \"#utility.yul\":1689:1692   */\n      dup2\n        /* \"#utility.yul\":1684:1687   */\n      dup4\n        /* \"#utility.yul\":1671:1701   */\n      calldatacopy\n        /* \"#utility.yul\":1756:1757   */\n      0x00\n        /* \"#utility.yul\":1747:1753   */\n      dup4\n        /* \"#utility.yul\":1742:1745   */\n      dup4\n        /* \"#utility.yul\":1738:1754   */\n      add\n        /* \"#utility.yul\":1731:1758   */\n      mstore\n        /* \"#utility.yul\":1610:1764   */\n      pop\n      pop\n      pop\n      jump\t// out\n        /* \"#utility.yul\":1770:2182   */\n    tag_43:\n        /* \"#utility.yul\":1848:1853   */\n      0x00\n        /* \"#utility.yul\":1873:1939   */\n      tag_78\n        /* \"#utility.yul\":1889:1938   */\n      tag_79\n        /* \"#utility.yul\":1931:1937   */\n      dup5\n        /* \"#utility.yul\":1889:1938   */\n      tag_41\n      jump\t// in\n    tag_79:\n        /* \"#utility.yul\":1873:1939   */\n      tag_40\n      jump\t// in\n    tag_78:\n        /* \"#utility.yul\":1864:1939   */\n      swap1\n      pop\n        /* \"#utility.yul\":1962:1968   */\n      dup3\n        /* \"#utility.yul\":1955:1960   */\n      dup2\n        /* \"#utility.yul\":1948:1969   */\n      mstore\n        /* \"#utility.yul\":2000:2004   */\n      0x20\n        /* \"#utility.yul\":1993:1998   */\n      dup2\n        /* \"#utility.yul\":1989:2005   */\n      add\n        /* \"#utility.yul\":2038:2041   */\n      dup5\n        /* \"#utility.yul\":2029:2035   */\n      dup5\n        /* \"#utility.yul\":2024:2027   */\n      dup5\n        /* \"#utility.yul\":2020:2036   */\n      add\n        /* \"#utility.yul\":2017:2042   */\n      gt\n        /* \"#utility.yul\":2014:2126   */\n      iszero\n      tag_80\n      jumpi\n        /* \"#utility.yul\":2045:2124   */\n      tag_81\n      tag_36\n      jump\t// in\n    tag_81:\n        /* \"#utility.yul\":2014:2126   */\n    tag_80:\n        /* \"#utility.yul\":2135:2176   */\n      tag_82\n        /* \"#utility.yul\":2169:2175   */\n      dup5\n        /* \"#utility.yul\":2164:2167   */\n      dup3\n        /* \"#utility.yul\":2159:2162   */\n      dup6\n        /* \"#utility.yul\":2135:2176   */\n      tag_42\n      jump\t// in\n    tag_82:\n        /* \"#utility.yul\":1854:2182   */\n      pop\n        /* \"#utility.yul\":1770:2182   */\n      swap4\n      swap3\n      pop\n      pop\n      pop\n      jump\t// out\n        /* \"#utility.yul\":2202:2542   */\n    tag_44:\n        /* \"#utility.yul\":2258:2263   */\n      0x00\n        /* \"#utility.yul\":2307:2310   */\n      dup3\n        /* \"#utility.yul\":2300:2304   */\n      0x1f\n        /* \"#utility.yul\":2292:2298   */\n      dup4\n        /* \"#utility.yul\":2288:2305   */\n      add\n        /* \"#utility.yul\":2284:2311   */\n      slt\n        /* \"#utility.yul\":2274:2396   */\n      tag_84\n      jumpi\n        /* \"#utility.yul\":2315:2394   */\n      tag_85\n      tag_35\n      jump\t// in\n    tag_85:\n        /* \"#utility.yul\":2274:2396   */\n    tag_84:\n        /* \"#utility.yul\":2432:2438   */\n      dup2\n        /* \"#utility.yul\":2419:2439   */\n      calldataload\n        /* \"#utility.yul\":2457:2536   */\n      tag_86\n        /* \"#utility.yul\":2532:2535   */\n      dup5\n        /* \"#utility.yul\":2524:2530   */\n      dup3\n        /* \"#utility.yul\":2517:2521   */\n      0x20\n        /* \"#utility.yul\":2509:2515   */\n      dup7\n        /* \"#utility.yul\":2505:2522   */\n      add\n        /* \"#utility.yul\":2457:2536   */\n      tag_43\n      jump\t// in\n    tag_86:\n        /* \"#utility.yul\":2448:2536   */\n      swap2\n      pop\n        /* \"#utility.yul\":2264:2542   */\n      pop\n        /* \"#utility.yul\":2202:2542   */\n      swap3\n      swap2\n      pop\n      pop\n      jump\t// out\n        /* \"#utility.yul\":2548:2625   */\n    tag_45:\n        /* \"#utility.yul\":2585:2592   */\n      0x00\n        /* \"#utility.yul\":2614:2619   */\n      dup2\n        /* \"#utility.yul\":2603:2619   */\n      swap1\n      pop\n        /* \"#utility.yul\":2548:2625   */\n      swap2\n      swap1\n      pop\n      jump\t// out\n        /* \"#utility.yul\":2631:2753   */\n    tag_46:\n        /* \"#utility.yul\":2704:2728   */\n      tag_89\n        /* \"#utility.yul\":2722:2727   */\n      dup2\n        /* \"#utility.yul\":2704:2728   */\n      tag_45\n      jump\t// in\n    tag_89:\n        /* \"#utility.yul\":2697:2702   */\n      dup2\n        /* \"#utility.yul\":2694:2729   */\n      eq\n        /* \"#utility.yul\":2684:2747   */\n      tag_90\n      jumpi\n        /* \"#utility.yul\":2743:2744   */\n      0x00\n        /* \"#utility.yul\":2740:2741   */\n      dup1\n        /* \"#utility.yul\":2733:2745   */\n      revert\n        /* \"#utility.yul\":2684:2747   */\n    tag_90:\n        /* \"#utility.yul\":2631:2753   */\n      pop\n      jump\t// out\n        /* \"#utility.yul\":2759:2898   */\n    tag_47:\n        /* \"#utility.yul\":2805:2810   */\n      0x00\n        /* \"#utility.yul\":2843:2849   */\n      dup2\n        /* \"#utility.yul\":2830:2850   */\n      calldataload\n        /* \"#utility.yul\":2821:2850   */\n      swap1\n      pop\n        /* \"#utility.yul\":2859:2892   */\n      tag_92\n        /* \"#utility.yul\":2886:2891   */\n      dup2\n        /* \"#utility.yul\":2859:2892   */\n      tag_46\n      jump\t// in\n    tag_92:\n        /* \"#utility.yul\":2759:2898   */\n      swap3\n      swap2\n      pop\n      pop\n      jump\t// out\n        /* \"#utility.yul\":2904:3558   */\n    tag_6:\n        /* \"#utility.yul\":2982:2988   */\n      0x00\n        /* \"#utility.yul\":2990:2996   */\n      dup1\n        /* \"#utility.yul\":3039:3041   */\n      0x40\n        /* \"#utility.yul\":3027:3036   */\n      dup4\n        /* \"#utility.yul\":3018:3025   */\n      dup6\n        /* \"#utility.yul\":3014:3037   */\n      sub\n        /* \"#utility.yul\":3010:3042   */\n      slt\n        /* \"#utility.yul\":3007:3126   */\n      iszero\n      tag_94\n      jumpi\n        /* \"#utility.yul\":3045:3124   */\n      tag_95\n      tag_33\n      jump\t// in\n    tag_95:\n        /* \"#utility.yul\":3007:3126   */\n    tag_94:\n        /* \"#utility.yul\":3193:3194   */\n      0x00\n        /* \"#utility.yul\":3182:3191   */\n      dup4\n        /* \"#utility.yul\":3178:3195   */\n      add\n        /* \"#utility.yul\":3165:3196   */\n      calldataload\n        /* \"#utility.yul\":3223:3241   */\n      0xffffffffffffffff\n        /* \"#utility.yul\":3215:3221   */\n      dup2\n        /* \"#utility.yul\":3212:3242   */\n      gt\n        /* \"#utility.yul\":3209:3326   */\n      iszero\n      tag_96\n      jumpi\n        /* \"#utility.yul\":3245:3324   */\n      tag_97\n      tag_34\n      jump\t// in\n    tag_97:\n        /* \"#utility.yul\":3209:3326   */\n    tag_96:\n        /* \"#utility.yul\":3350:3413   */\n      tag_98\n        /* \"#utility.yul\":3405:3412   */\n      dup6\n        /* \"#utility.yul\":3396:3402   */\n      dup3\n        /* \"#utility.yul\":3385:3394   */\n      dup7\n        /* \"#utility.yul\":3381:3403   */\n      add\n        /* \"#utility.yul\":3350:3413   */\n      tag_44\n      jump\t// in\n    tag_98:\n        /* \"#utility.yul\":3340:3413   */\n      swap3\n      pop\n        /* \"#utility.yul\":3136:3423   */\n      pop\n        /* \"#utility.yul\":3462:3464   */\n      0x20\n        /* \"#utility.yul\":3488:3541   */\n      tag_99\n        /* \"#utility.yul\":3533:3540   */\n      dup6\n        /* \"#utility.yul\":3524:3530   */\n      dup3\n        /* \"#utility.yul\":3513:3522   */\n      dup7\n        /* \"#utility.yul\":3509:3531   */\n      add\n        /* \"#utility.yul\":3488:3541   */\n      tag_47\n      jump\t// in\n    tag_99:\n        /* \"#utility.yul\":3478:3541   */\n      swap2\n      pop\n        /* \"#utility.yul\":3433:3551   */\n      pop\n        /* \"#utility.yul\":2904:3558   */\n      swap3\n      pop\n      swap3\n      swap1\n      pop\n      jump\t// out\n        /* \"#utility.yul\":3564:3690   */\n    tag_48:\n        /* \"#utility.yul\":3601:3608   */\n      0x00\n        /* \"#utility.yul\":3641:3683   */\n      0xffffffffffffffffffffffffffffffffffffffff\n        /* \"#utility.yul\":3634:3639   */\n      dup3\n        /* \"#utility.yul\":3630:3684   */\n      and\n        /* \"#utility.yul\":3619:3684   */\n      swap1\n      pop\n        /* \"#utility.yul\":3564:3690   */\n      swap2\n      swap1\n      pop\n      jump\t// out\n        /* \"#utility.yul\":3696:3792   */\n    tag_49:\n        /* \"#utility.yul\":3733:3740   */\n      0x00\n        /* \"#utility.yul\":3762:3786   */\n      tag_102\n        /* \"#utility.yul\":3780:3785   */\n      dup3\n        /* \"#utility.yul\":3762:3786   */\n      tag_48\n      jump\t// in\n    tag_102:\n        /* \"#utility.yul\":3751:3786   */\n      swap1\n      pop\n        /* \"#utility.yul\":3696:3792   */\n      swap2\n      swap1\n      pop\n      jump\t// out\n        /* \"#utility.yul\":3798:3916   */\n    tag_50:\n        /* \"#utility.yul\":3885:3909   */\n      tag_104\n        /* \"#utility.yul\":3903:3908   */\n      dup2\n        /* \"#utility.yul\":3885:3909   */\n      tag_49\n      jump\t// in\n    tag_104:\n        /* \"#utility.yul\":3880:3883   */\n      dup3\n        /* \"#utility.yul\":3873:3910   */\n      mstore\n        /* \"#utility.yul\":3798:3916   */\n      pop\n      pop\n      jump\t// out\n        /* \"#utility.yul\":3922:4021   */\n    tag_51:\n        /* \"#utility.yul\":3974:3980   */\n      0x00\n        /* \"#utility.yul\":4008:4013   */\n      dup2\n        /* \"#utility.yul\":4002:4014   */\n      mload\n        /* \"#utility.yul\":3992:4014   */\n      swap1\n      pop\n        /* \"#utility.yul\":3922:4021   */\n      swap2\n      swap1\n      pop\n      jump\t// out\n        /* \"#utility.yul\":4027:4196   */\n    tag_52:\n        /* \"#utility.yul\":4111:4122   */\n      0x00\n        /* \"#utility.yul\":4145:4151   */\n      dup3\n        /* \"#utility.yul\":4140:4143   */\n      dup3\n        /* \"#utility.yul\":4133:4152   */\n      mstore\n        /* \"#utility.yul\":4185:4189   */\n      0x20\n        /* \"#utility.yul\":4180:4183   */\n      dup3\n        /* \"#utility.yul\":4176:4190   */\n      add\n        /* \"#utility.yul\":4161:4190   */\n      swap1\n      pop\n        /* \"#utility.yul\":4027:4196   */\n      swap3\n      swap2\n      pop\n      pop\n      jump\t// out\n        /* \"#utility.yul\":4202:4509   */\n    tag_53:\n        /* \"#utility.yul\":4270:4271   */\n      0x00\n        /* \"#utility.yul\":4280:4393   */\n    tag_108:\n        /* \"#utility.yul\":4294:4300   */\n      dup4\n        /* \"#utility.yul\":4291:4292   */\n      dup2\n        /* \"#utility.yul\":4288:4301   */\n      lt\n        /* \"#utility.yul\":4280:4393   */\n      iszero\n      tag_110\n      jumpi\n        /* \"#utility.yul\":4379:4380   */\n      dup1\n        /* \"#utility.yul\":4374:4377   */\n      dup3\n        /* \"#utility.yul\":4370:4381   */\n      add\n        /* \"#utility.yul\":4364:4382   */\n      mload\n        /* \"#utility.yul\":4360:4361   */\n      dup2\n        /* \"#utility.yul\":4355:4358   */\n      dup5\n        /* \"#utility.yul\":4351:4362   */\n      add\n        /* \"#utility.yul\":4344:4383   */\n      mstore\n        /* \"#utility.yul\":4316:4318   */\n      0x20\n        /* \"#utility.yul\":4313:4314   */\n      dup2\n        /* \"#utility.yul\":4309:4319   */\n      add\n        /* \"#utility.yul\":4304:4319   */\n      swap1\n      pop\n        /* \"#utility.yul\":4280:4393   */\n      jump(tag_108)\n    tag_110:\n        /* \"#utility.yul\":4411:4417   */\n      dup4\n        /* \"#utility.yul\":4408:4409   */\n      dup2\n        /* \"#utility.yul\":4405:4418   */\n      gt\n        /* \"#utility.yul\":4402:4503   */\n      iszero\n      tag_111\n      jumpi\n        /* \"#utility.yul\":4491:4492   */\n      0x00\n        /* \"#utility.yul\":4482:4488   */\n      dup5\n        /* \"#utility.yul\":4477:4480   */\n      dup5\n        /* \"#utility.yul\":4473:4489   */\n      add\n        /* \"#utility.yul\":4466:4493   */\n      mstore\n        /* \"#utility.yul\":4402:4503   */\n    tag_111:\n        /* \"#utility.yul\":4251:4509   */\n      pop\n        /* \"#utility.yul\":4202:4509   */\n      pop\n      pop\n      pop\n      jump\t// out\n        /* \"#utility.yul\":4515:4879   */\n    tag_54:\n        /* \"#utility.yul\":4603:4606   */\n      0x00\n        /* \"#utility.yul\":4631:4670   */\n      tag_113\n        /* \"#utility.yul\":4664:4669   */\n      dup3\n        /* \"#utility.yul\":4631:4670   */\n      tag_51\n      jump\t// in\n    tag_113:\n        /* \"#utility.yul\":4686:4757   */\n      tag_114\n        /* \"#utility.yul\":4750:4756   */\n      dup2\n        /* \"#utility.yul\":4745:4748   */\n      dup6\n        /* \"#utility.yul\":4686:4757   */\n      tag_52\n      jump\t// in\n    tag_114:\n        /* \"#utility.yul\":4679:4757   */\n      swap4\n      pop\n        /* \"#utility.yul\":4766:4818   */\n      tag_115\n        /* \"#utility.yul\":4811:4817   */\n      dup2\n        /* \"#utility.yul\":4806:4809   */\n      dup6\n        /* \"#utility.yul\":4799:4803   */\n      0x20\n        /* \"#utility.yul\":4792:4797   */\n      dup7\n        /* \"#utility.yul\":4788:4804   */\n      add\n        /* \"#utility.yul\":4766:4818   */\n      tag_53\n      jump\t// in\n    tag_115:\n        /* \"#utility.yul\":4843:4872   */\n      tag_116\n        /* \"#utility.yul\":4865:4871   */\n      dup2\n        /* \"#utility.yul\":4843:4872   */\n      tag_37\n      jump\t// in\n    tag_116:\n        /* \"#utility.yul\":4838:4841   */\n      dup5\n        /* \"#utility.yul\":4834:4873   */\n      add\n        /* \"#utility.yul\":4827:4873   */\n      swap2\n      pop\n        /* \"#utility.yul\":4607:4879   */\n      pop\n        /* \"#utility.yul\":4515:4879   */\n      swap3\n      swap2\n      pop\n      pop\n      jump\t// out\n        /* \"#utility.yul\":4885:5003   */\n    tag_55:\n        /* \"#utility.yul\":4972:4996   */\n      tag_118\n        /* \"#utility.yul\":4990:4995   */\n      dup2\n        /* \"#utility.yul\":4972:4996   */\n      tag_45\n      jump\t// in\n    tag_118:\n        /* \"#utility.yul\":4967:4970   */\n      dup3\n        /* \"#utility.yul\":4960:4997   */\n      mstore\n        /* \"#utility.yul\":4885:5003   */\n      pop\n      pop\n      jump\t// out\n        /* \"#utility.yul\":5009:5542   */\n    tag_12:\n        /* \"#utility.yul\":5178:5182   */\n      0x00\n        /* \"#utility.yul\":5216:5218   */\n      0x60\n        /* \"#utility.yul\":5205:5214   */\n      dup3\n        /* \"#utility.yul\":5201:5219   */\n      add\n        /* \"#utility.yul\":5193:5219   */\n      swap1\n      pop\n        /* \"#utility.yul\":5229:5300   */\n      tag_120\n        /* \"#utility.yul\":5297:5298   */\n      0x00\n        /* \"#utility.yul\":5286:5295   */\n      dup4\n        /* \"#utility.yul\":5282:5299   */\n      add\n        /* \"#utility.yul\":5273:5279   */\n      dup7\n        /* \"#utility.yul\":5229:5300   */\n      tag_50\n      jump\t// in\n    tag_120:\n        /* \"#utility.yul\":5347:5356   */\n      dup2\n        /* \"#utility.yul\":5341:5345   */\n      dup2\n        /* \"#utility.yul\":5337:5357   */\n      sub\n        /* \"#utility.yul\":5332:5334   */\n      0x20\n        /* \"#utility.yul\":5321:5330   */\n      dup4\n        /* \"#utility.yul\":5317:5335   */\n      add\n        /* \"#utility.yul\":5310:5358   */\n      mstore\n        /* \"#utility.yul\":5375:5453   */\n      tag_121\n        /* \"#utility.yul\":5448:5452   */\n      dup2\n        /* \"#utility.yul\":5439:5445   */\n      dup6\n        /* \"#utility.yul\":5375:5453   */\n      tag_54\n      jump\t// in\n    tag_121:\n        /* \"#utility.yul\":5367:5453   */\n      swap1\n      pop\n        /* \"#utility.yul\":5463:5535   */\n      tag_122\n        /* \"#utility.yul\":5531:5533   */\n      0x40\n        /* \"#utility.yul\":5520:5529   */\n      dup4\n        /* \"#utility.yul\":5516:5534   */\n      add\n        /* \"#utility.yul\":5507:5513   */\n      dup5\n        /* \"#utility.yul\":5463:5535   */\n      tag_55\n      jump\t// in\n    tag_122:\n        /* \"#utility.yul\":5009:5542   */\n      swap5\n      swap4\n      pop\n      pop\n      pop\n      pop\n      jump\t// out\n        /* \"#utility.yul\":5548:5728   */\n    tag_56:\n        /* \"#utility.yul\":5596:5673   */\n      0x4e487b7100000000000000000000000000000000000000000000000000000000\n        /* \"#utility.yul\":5593:5594   */\n      0x00\n        /* \"#utility.yul\":5586:5674   */\n      mstore\n        /* \"#utility.yul\":5693:5697   */\n      0x22\n        /* \"#utility.yul\":5690:5691   */\n      0x04\n        /* \"#utility.yul\":5683:5698   */\n      mstore\n        /* \"#utility.yul\":5717:5721   */\n      0x24\n        /* \"#utility.yul\":5714:5715   */\n      0x00\n        /* \"#utility.yul\":5707:5722   */\n      revert\n        /* \"#utility.yul\":5734:6054   */\n    tag_17:\n        /* \"#utility.yul\":5778:5784   */\n      0x00\n        /* \"#utility.yul\":5815:5816   */\n      0x02\n        /* \"#utility.yul\":5809:5813   */\n      dup3\n        /* \"#utility.yul\":5805:5817   */\n      div\n        /* \"#utility.yul\":5795:5817   */\n      swap1\n      pop\n        /* \"#utility.yul\":5862:5863   */\n      0x01\n        /* \"#utility.yul\":5856:5860   */\n      dup3\n        /* \"#utility.yul\":5852:5864   */\n      and\n        /* \"#utility.yul\":5883:5901   */\n      dup1\n        /* \"#utility.yul\":5873:5954   */\n      tag_125\n      jumpi\n        /* \"#utility.yul\":5939:5943   */\n      0x7f\n        /* \"#utility.yul\":5931:5937   */\n      dup3\n        /* \"#utility.yul\":5927:5944   */\n      and\n        /* \"#utility.yul\":5917:5944   */\n      swap2\n      pop\n        /* \"#utility.yul\":5873:5954   */\n    tag_125:\n        /* \"#utility.yul\":6001:6003   */\n      0x20\n        /* \"#utility.yul\":5993:5999   */\n      dup3\n        /* \"#utility.yul\":5990:6004   */\n      lt\n        /* \"#utility.yul\":5970:5988   */\n      dup2\n        /* \"#utility.yul\":5967:6005   */\n      sub\n        /* \"#utility.yul\":5964:6048   */\n      tag_126\n      jumpi\n        /* \"#utility.yul\":6020:6038   */\n      tag_127\n      tag_56\n      jump\t// in\n    tag_127:\n        /* \"#utility.yul\":5964:6048   */\n    tag_126:\n        /* \"#utility.yul\":5785:6054   */\n      pop\n        /* \"#utility.yul\":5734:6054   */\n      swap2\n      swap1\n      pop\n      jump\t// out\n\n    auxdata: 0xa264697066735822122086a2b6f442412b26463fdd6869f3fc783c933ed202f8da856809f2ca48a5a1e764736f6c634300080e0033\n}\n",
				"bytecode": {
					"linkReferences": {},
					"object": "608060405234801561001057600080fd5b50610619806100206000396000f3fe6080604052600436106100295760003560e01c80632a83e5551461002e578063cc7e22081461004a575b600080fd5b61004860048036038101906100439190610411565b610077565b005b34801561005657600080fd5b5061005f61011e565b60405161006e93929190610545565b60405180910390f35b60405180606001604052803373ffffffffffffffffffffffffffffffffffffffff168152602001838152602001828152506000808201518160000160006101000a81548173ffffffffffffffffffffffffffffffffffffffff021916908373ffffffffffffffffffffffffffffffffffffffff160217905550602082015181600101908051906020019061010c9291906101de565b50604082015181600201559050505050565b60008060000160009054906101000a900473ffffffffffffffffffffffffffffffffffffffff1690806001018054610155906105b2565b80601f0160208091040260200160405190810160405280929190818152602001828054610181906105b2565b80156101ce5780601f106101a3576101008083540402835291602001916101ce565b820191906000526020600020905b8154815290600101906020018083116101b157829003601f168201915b5050505050908060020154905083565b8280546101ea906105b2565b90600052602060002090601f01602090048101928261020c5760008555610253565b82601f1061022557805160ff1916838001178555610253565b82800160010185558215610253579182015b82811115610252578251825591602001919060010190610237565b5b5090506102609190610264565b5090565b5b8082111561027d576000816000905550600101610265565b5090565b6000604051905090565b600080fd5b600080fd5b600080fd5b600080fd5b6000601f19601f8301169050919050565b7f4e487b7100000000000000000000000000000000000000000000000000000000600052604160045260246000fd5b6102e88261029f565b810181811067ffffffffffffffff82111715610307576103066102b0565b5b80604052505050565b600061031a610281565b905061032682826102df565b919050565b600067ffffffffffffffff821115610346576103456102b0565b5b61034f8261029f565b9050602081019050919050565b82818337600083830152505050565b600061037e6103798461032b565b610310565b90508281526020810184848401111561039a5761039961029a565b5b6103a584828561035c565b509392505050565b600082601f8301126103c2576103c1610295565b5b81356103d284826020860161036b565b91505092915050565b6000819050919050565b6103ee816103db565b81146103f957600080fd5b50565b60008135905061040b816103e5565b92915050565b600080604083850312156104285761042761028b565b5b600083013567ffffffffffffffff81111561044657610445610290565b5b610452858286016103ad565b9250506020610463858286016103fc565b9150509250929050565b600073ffffffffffffffffffffffffffffffffffffffff82169050919050565b60006104988261046d565b9050919050565b6104a88161048d565b82525050565b600081519050919050565b600082825260208201905092915050565b60005b838110156104e85780820151818401526020810190506104cd565b838111156104f7576000848401525b50505050565b6000610508826104ae565b61051281856104b9565b93506105228185602086016104ca565b61052b8161029f565b840191505092915050565b61053f816103db565b82525050565b600060608201905061055a600083018661049f565b818103602083015261056c81856104fd565b905061057b6040830184610536565b949350505050565b7f4e487b7100000000000000000000000000000000000000000000000000000000600052602260045260246000fd5b600060028204905060018216806105ca57607f821691505b6020821081036105dd576105dc610583565b5b5091905056fea264697066735822122086a2b6f442412b26463fdd6869f3fc783c933ed202f8da856809f2ca48a5a1e764736f6c634300080e0033",
					"opcodes": "PUSH1 0x80 PUSH1 0x40 MSTORE CALLVALUE DUP1 ISZERO PUSH2 0x10 JUMPI PUSH1 0x0 DUP1 REVERT JUMPDEST POP PUSH2 0x619 DUP1 PUSH2 0x20 PUSH1 0x0 CODECOPY PUSH1 0x0 RETURN INVALID PUSH1 0x80 PUSH1 0x40 MSTORE PUSH1 0x4 CALLDATASIZE LT PUSH2 0x29 JUMPI PUSH1 0x0 CALLDATALOAD PUSH1 0xE0 SHR DUP1 PUSH4 0x2A83E555 EQ PUSH2 0x2E JUMPI DUP1 PUSH4 0xCC7E2208 EQ PUSH2 0x4A JUMPI JUMPDEST PUSH1 0x0 DUP1 REVERT JUMPDEST PUSH2 0x48 PUSH1 0x4 DUP1 CALLDATASIZE SUB DUP2 ADD SWAP1 PUSH2 0x43 SWAP2 SWAP1 PUSH2 0x411 JUMP JUMPDEST PUSH2 0x77 JUMP JUMPDEST STOP JUMPDEST CALLVALUE DUP1 ISZERO PUSH2 0x56 JUMPI PUSH1 0x0 DUP1 REVERT JUMPDEST POP PUSH2 0x5F PUSH2 0x11E JUMP JUMPDEST PUSH1 0x40 MLOAD PUSH2 0x6E SWAP4 SWAP3 SWAP2 SWAP1 PUSH2 0x545 JUMP JUMPDEST PUSH1 0x40 MLOAD DUP1 SWAP2 SUB SWAP1 RETURN JUMPDEST PUSH1 0x40 MLOAD DUP1 PUSH1 0x60 ADD PUSH1 0x40 MSTORE DUP1 CALLER PUSH20 0xFFFFFFFFFFFFFFFFFFFFFFFFFFFFFFFFFFFFFFFF AND DUP2 MSTORE PUSH1 0x20 ADD DUP4 DUP2 MSTORE PUSH1 0x20 ADD DUP3 DUP2 MSTORE POP PUSH1 0x0 DUP1 DUP3 ADD MLOAD DUP2 PUSH1 0x0 ADD PUSH1 0x0 PUSH2 0x100 EXP DUP2 SLOAD DUP2 PUSH20 0xFFFFFFFFFFFFFFFFFFFFFFFFFFFFFFFFFFFFFFFF MUL NOT AND SWAP1 DUP4 PUSH20 0xFFFFFFFFFFFFFFFFFFFFFFFFFFFFFFFFFFFFFFFF AND MUL OR SWAP1 SSTORE POP PUSH1 0x20 DUP3 ADD MLOAD DUP2 PUSH1 0x1 ADD SWAP1 DUP1 MLOAD SWAP1 PUSH1 0x20 ADD SWAP1 PUSH2 0x10C SWAP3 SWAP2 SWAP1 PUSH2 0x1DE JUMP JUMPDEST POP PUSH1 0x40 DUP3 ADD MLOAD DUP2 PUSH1 0x2 ADD SSTORE SWAP1 POP POP POP POP JUMP JUMPDEST PUSH1 0x0 DUP1 PUSH1 0x0 ADD PUSH1 0x0 SWAP1 SLOAD SWAP1 PUSH2 0x100 EXP SWAP1 DIV PUSH20 0xFFFFFFFFFFFFFFFFFFFFFFFFFFFFFFFFFFFFFFFF AND SWAP1 DUP1 PUSH1 0x1 ADD DUP1 SLOAD PUSH2 0x155 SWAP1 PUSH2 0x5B2 JUMP JUMPDEST DUP1 PUSH1 0x1F ADD PUSH1 0x20 DUP1 SWAP2 DIV MUL PUSH1 0x20 ADD PUSH1 0x40 MLOAD SWAP1 DUP2 ADD PUSH1 0x40 MSTORE DUP1 SWAP3 SWAP2 SWAP1 DUP2 DUP2 MSTORE PUSH1 0x20 ADD DUP3 DUP1 SLOAD PUSH2 0x181 SWAP1 PUSH2 0x5B2 JUMP JUMPDEST DUP1 ISZERO PUSH2 0x1CE JUMPI DUP1 PUSH1 0x1F LT PUSH2 0x1A3 JUMPI PUSH2 0x100 DUP1 DUP4 SLOAD DIV MUL DUP4 MSTORE SWAP2 PUSH1 0x20 ADD SWAP2 PUSH2 0x1CE JUMP JUMPDEST DUP3 ADD SWAP2 SWAP1 PUSH1 0x0 MSTORE PUSH1 0x20 PUSH1 0x0 KECCAK256 SWAP1 JUMPDEST DUP2 SLOAD DUP2 MSTORE SWAP1 PUSH1 0x1 ADD SWAP1 PUSH1 0x20 ADD DUP1 DUP4 GT PUSH2 0x1B1 JUMPI DUP3 SWAP1 SUB PUSH1 0x1F AND DUP3 ADD SWAP2 JUMPDEST POP POP POP POP POP SWAP1 DUP1 PUSH1 0x2 ADD SLOAD SWAP1 POP DUP4 JUMP JUMPDEST DUP3 DUP1 SLOAD PUSH2 0x1EA SWAP1 PUSH2 0x5B2 JUMP JUMPDEST SWAP1 PUSH1 0x0 MSTORE PUSH1 0x20 PUSH1 0x0 KECCAK256 SWAP1 PUSH1 0x1F ADD PUSH1 0x20 SWAP1 DIV DUP2 ADD SWAP3 DUP3 PUSH2 0x20C JUMPI PUSH1 0x0 DUP6 SSTORE PUSH2 0x253 JUMP JUMPDEST DUP3 PUSH1 0x1F LT PUSH2 0x225 JUMPI DUP1 MLOAD PUSH1 0xFF NOT AND DUP4 DUP1 ADD OR DUP6 SSTORE PUSH2 0x253 JUMP JUMPDEST DUP3 DUP1 ADD PUSH1 0x1 ADD DUP6 SSTORE DUP3 ISZERO PUSH2 0x253 JUMPI SWAP2 DUP3 ADD JUMPDEST DUP3 DUP2 GT ISZERO PUSH2 0x252 JUMPI DUP3 MLOAD DUP3 SSTORE SWAP2 PUSH1 0x20 ADD SWAP2 SWAP1 PUSH1 0x1 ADD SWAP1 PUSH2 0x237 JUMP JUMPDEST JUMPDEST POP SWAP1 POP PUSH2 0x260 SWAP2 SWAP1 PUSH2 0x264 JUMP JUMPDEST POP SWAP1 JUMP JUMPDEST JUMPDEST DUP1 DUP3 GT ISZERO PUSH2 0x27D JUMPI PUSH1 0x0 DUP2 PUSH1 0x0 SWAP1 SSTORE POP PUSH1 0x1 ADD PUSH2 0x265 JUMP JUMPDEST POP SWAP1 JUMP JUMPDEST PUSH1 0x0 PUSH1 0x40 MLOAD SWAP1 POP SWAP1 JUMP JUMPDEST PUSH1 0x0 DUP1 REVERT JUMPDEST PUSH1 0x0 DUP1 REVERT JUMPDEST PUSH1 0x0 DUP1 REVERT JUMPDEST PUSH1 0x0 DUP1 REVERT JUMPDEST PUSH1 0x0 PUSH1 0x1F NOT PUSH1 0x1F DUP4 ADD AND SWAP1 POP SWAP2 SWAP1 POP JUMP JUMPDEST PUSH32 0x4E487B7100000000000000000000000000000000000000000000000000000000 PUSH1 0x0 MSTORE PUSH1 0x41 PUSH1 0x4 MSTORE PUSH1 0x24 PUSH1 0x0 REVERT JUMPDEST PUSH2 0x2E8 DUP3 PUSH2 0x29F JUMP JUMPDEST DUP2 ADD DUP2 DUP2 LT PUSH8 0xFFFFFFFFFFFFFFFF DUP3 GT OR ISZERO PUSH2 0x307 JUMPI PUSH2 0x306 PUSH2 0x2B0 JUMP JUMPDEST JUMPDEST DUP1 PUSH1 0x40 MSTORE POP POP POP JUMP JUMPDEST PUSH1 0x0 PUSH2 0x31A PUSH2 0x281 JUMP JUMPDEST SWAP1 POP PUSH2 0x326 DUP3 DUP3 PUSH2 0x2DF JUMP JUMPDEST SWAP2 SWAP1 POP JUMP JUMPDEST PUSH1 0x0 PUSH8 0xFFFFFFFFFFFFFFFF DUP3 GT ISZERO PUSH2 0x346 JUMPI PUSH2 0x345 PUSH2 0x2B0 JUMP JUMPDEST JUMPDEST PUSH2 0x34F DUP3 PUSH2 0x29F JUMP JUMPDEST SWAP1 POP PUSH1 0x20 DUP2 ADD SWAP1 POP SWAP2 SWAP1 POP JUMP JUMPDEST DUP3 DUP2 DUP4 CALLDATACOPY PUSH1 0x0 DUP4 DUP4 ADD MSTORE POP POP POP JUMP JUMPDEST PUSH1 0x0 PUSH2 0x37E PUSH2 0x379 DUP5 PUSH2 0x32B JUMP JUMPDEST PUSH2 0x310 JUMP JUMPDEST SWAP1 POP DUP3 DUP2 MSTORE PUSH1 0x20 DUP2 ADD DUP5 DUP5 DUP5 ADD GT ISZERO PUSH2 0x39A JUMPI PUSH2 0x399 PUSH2 0x29A JUMP JUMPDEST JUMPDEST PUSH2 0x3A5 DUP5 DUP3 DUP6 PUSH2 0x35C JUMP JUMPDEST POP SWAP4 SWAP3 POP POP POP JUMP JUMPDEST PUSH1 0x0 DUP3 PUSH1 0x1F DUP4 ADD SLT PUSH2 0x3C2 JUMPI PUSH2 0x3C1 PUSH2 0x295 JUMP JUMPDEST JUMPDEST DUP2 CALLDATALOAD PUSH2 0x3D2 DUP5 DUP3 PUSH1 0x20 DUP7 ADD PUSH2 0x36B JUMP JUMPDEST SWAP2 POP POP SWAP3 SWAP2 POP POP JUMP JUMPDEST PUSH1 0x0 DUP2 SWAP1 POP SWAP2 SWAP1 POP JUMP JUMPDEST PUSH2 0x3EE DUP2 PUSH2 0x3DB JUMP JUMPDEST DUP2 EQ PUSH2 0x3F9 JUMPI PUSH1 0x0 DUP1 REVERT JUMPDEST POP JUMP JUMPDEST PUSH1 0x0 DUP2 CALLDATALOAD SWAP1 POP PUSH2 0x40B DUP2 PUSH2 0x3E5 JUMP JUMPDEST SWAP3 SWAP2 POP POP JUMP JUMPDEST PUSH1 0x0 DUP1 PUSH1 0x40 DUP4 DUP6 SUB SLT ISZERO PUSH2 0x428 JUMPI PUSH2 0x427 PUSH2 0x28B JUMP JUMPDEST JUMPDEST PUSH1 0x0 DUP4 ADD CALLDATALOAD PUSH8 0xFFFFFFFFFFFFFFFF DUP2 GT ISZERO PUSH2 0x446 JUMPI PUSH2 0x445 PUSH2 0x290 JUMP JUMPDEST JUMPDEST PUSH2 0x452 DUP6 DUP3 DUP7 ADD PUSH2 0x3AD JUMP JUMPDEST SWAP3 POP POP PUSH1 0x20 PUSH2 0x463 DUP6 DUP3 DUP7 ADD PUSH2 0x3FC JUMP JUMPDEST SWAP2 POP POP SWAP3 POP SWAP3 SWAP1 POP JUMP JUMPDEST PUSH1 0x0 PUSH20 0xFFFFFFFFFFFFFFFFFFFFFFFFFFFFFFFFFFFFFFFF DUP3 AND SWAP1 POP SWAP2 SWAP1 POP JUMP JUMPDEST PUSH1 0x0 PUSH2 0x498 DUP3 PUSH2 0x46D JUMP JUMPDEST SWAP1 POP SWAP2 SWAP1 POP JUMP JUMPDEST PUSH2 0x4A8 DUP2 PUSH2 0x48D JUMP JUMPDEST DUP3 MSTORE POP POP JUMP JUMPDEST PUSH1 0x0 DUP2 MLOAD SWAP1 POP SWAP2 SWAP1 POP JUMP JUMPDEST PUSH1 0x0 DUP3 DUP3 MSTORE PUSH1 0x20 DUP3 ADD SWAP1 POP SWAP3 SWAP2 POP POP JUMP JUMPDEST PUSH1 0x0 JUMPDEST DUP4 DUP2 LT ISZERO PUSH2 0x4E8 JUMPI DUP1 DUP3 ADD MLOAD DUP2 DUP5 ADD MSTORE PUSH1 0x20 DUP2 ADD SWAP1 POP PUSH2 0x4CD JUMP JUMPDEST DUP4 DUP2 GT ISZERO PUSH2 0x4F7 JUMPI PUSH1 0x0 DUP5 DUP5 ADD MSTORE JUMPDEST POP POP POP POP JUMP JUMPDEST PUSH1 0x0 PUSH2 0x508 DUP3 PUSH2 0x4AE JUMP JUMPDEST PUSH2 0x512 DUP2 DUP6 PUSH2 0x4B9 JUMP JUMPDEST SWAP4 POP PUSH2 0x522 DUP2 DUP6 PUSH1 0x20 DUP7 ADD PUSH2 0x4CA JUMP JUMPDEST PUSH2 0x52B DUP2 PUSH2 0x29F JUMP JUMPDEST DUP5 ADD SWAP2 POP POP SWAP3 SWAP2 POP POP JUMP JUMPDEST PUSH2 0x53F DUP2 PUSH2 0x3DB JUMP JUMPDEST DUP3 MSTORE POP POP JUMP JUMPDEST PUSH1 0x0 PUSH1 0x60 DUP3 ADD SWAP1 POP PUSH2 0x55A PUSH1 0x0 DUP4 ADD DUP7 PUSH2 0x49F JUMP JUMPDEST DUP2 DUP2 SUB PUSH1 0x20 DUP4 ADD MSTORE PUSH2 0x56C DUP2 DUP6 PUSH2 0x4FD JUMP JUMPDEST SWAP1 POP PUSH2 0x57B PUSH1 0x40 DUP4 ADD DUP5 PUSH2 0x536 JUMP JUMPDEST SWAP5 SWAP4 POP POP POP POP JUMP JUMPDEST PUSH32 0x4E487B7100000000000000000000000000000000000000000000000000000000 PUSH1 0x0 MSTORE PUSH1 0x22 PUSH1 0x4 MSTORE PUSH1 0x24 PUSH1 0x0 REVERT JUMPDEST PUSH1 0x0 PUSH1 0x2 DUP3 DIV SWAP1 POP PUSH1 0x1 DUP3 AND DUP1 PUSH2 0x5CA JUMPI PUSH1 0x7F DUP3 AND SWAP2 POP JUMPDEST PUSH1 0x20 DUP3 LT DUP2 SUB PUSH2 0x5DD JUMPI PUSH2 0x5DC PUSH2 0x583 JUMP JUMPDEST JUMPDEST POP SWAP2 SWAP1 POP JUMP INVALID LOG2 PUSH5 0x6970667358 0x22 SLT KECCAK256 DUP7 LOG2 0xB6 DELEGATECALL TIMESTAMP COINBASE 0x2B 0x26 CHAINID EXTCODEHASH 0xDD PUSH9 0x69F3FC783C933ED202 0xF8 0xDA DUP6 PUSH9 0x9F2CA48A5A1E76473 PUSH16 0x6C634300080E00330000000000000000 "
				},
				"gasEstimates": {
					"creation": {
						"codeDepositCost": "312200",
						"executionCost": "349",
						"totalCost": "312549"
					},
					"external": {
						"Order()": "infinite",
						"buySomeCoffee(string,uint256)": "infinite"
					}
				},
				"methodIdentifiers": {
					"Order()": "cc7e2208",
					"buySomeCoffee(string,uint256)": "2a83e555"
				}
			},
			"storageLayout": {
				"storage": [
					{
						"astId": 11,
						"contract": "Section 1/StructExample.sol:StructExample",
						"label": "Order",
						"offset": 0,
						"slot": "0",
						"type": "t_struct(MakeAnOrder)8_storage"
					}
				],
				"types": {
					"t_address": {
						"encoding": "inplace",
						"label": "address",
						"numberOfBytes": "20"
					},
					"t_string_storage": {
						"encoding": "bytes",
						"label": "string",
						"numberOfBytes": "32"
					},
					"t_struct(MakeAnOrder)8_storage": {
						"encoding": "inplace",
						"label": "struct StructExample.MakeAnOrder",
						"members": [
							{
								"astId": 3,
								"contract": "Section 1/StructExample.sol:StructExample",
								"label": "from",
								"offset": 0,
								"slot": "0",
								"type": "t_address"
							},
							{
								"astId": 5,
								"contract": "Section 1/StructExample.sol:StructExample",
								"label": "beans",
								"offset": 0,
								"slot": "1",
								"type": "t_string_storage"
							},
							{
								"astId": 7,
								"contract": "Section 1/StructExample.sol:StructExample",
								"label": "quantity",
								"offset": 0,
								"slot": "2",
								"type": "t_uint256"
							}
						],
						"numberOfBytes": "96"
					},
					"t_uint256": {
						"encoding": "inplace",
						"label": "uint256",
						"numberOfBytes": "32"
					}
				}
			},
			"userdoc": {
				"kind": "user",
				"methods": {},
				"version": 1
			}
		}
	}
}