{
	"data": {
		"bytecode": {
			"linkReferences": {},
			"object": "60806040526040518060400160405280600b81526020017f48656c6c6f20576f726c64000000000000000000000000000000000000000000815250600190816200004a91906200031a565b503480156200005857600080fd5b5033600060016101000a81548173ffffffffffffffffffffffffffffffffffffffff021916908373ffffffffffffffffffffffffffffffffffffffff16021790555062000401565b600081519050919050565b7f4e487b7100000000000000000000000000000000000000000000000000000000600052604160045260246000fd5b7f4e487b7100000000000000000000000000000000000000000000000000000000600052602260045260246000fd5b600060028204905060018216806200012257607f821691505b602082108103620001385762000137620000da565b5b50919050565b60008190508160005260206000209050919050565b60006020601f8301049050919050565b600082821b905092915050565b600060088302620001a27fffffffffffffffffffffffffffffffffffffffffffffffffffffffffffffffff8262000163565b620001ae868362000163565b95508019841693508086168417925050509392505050565b6000819050919050565b6000819050919050565b6000620001fb620001f5620001ef84620001c6565b620001d0565b620001c6565b9050919050565b6000819050919050565b6200021783620001da565b6200022f620002268262000202565b84845462000170565b825550505050565b600090565b6200024662000237565b620002538184846200020c565b505050565b5b818110156200027b576200026f6000826200023c565b60018101905062000259565b5050565b601f821115620002ca5762000294816200013e565b6200029f8462000153565b81016020851015620002af578190505b620002c7620002be8562000153565b83018262000258565b50505b505050565b600082821c905092915050565b6000620002ef60001984600802620002cf565b1980831691505092915050565b60006200030a8383620002dc565b9150826002028217905092915050565b6200032582620000a0565b67ffffffffffffffff811115620003415762000340620000ab565b5b6200034d825462000109565b6200035a8282856200027f565b600060209050601f8311600181146200039257600084156200037d578287015190505b620003898582620002fc565b865550620003f9565b601f198416620003a2866200013e565b60005b82811015620003cc57848901518255600182019150602085019450602081019050620003a5565b86831015620003ec5784890151620003e8601f891682620002dc565b8355505b6001600288020188555050505b505050505050565b61071580620004116000396000f3fe608060405234801561001057600080fd5b50600436106100a95760003560e01c806378ea542b1161007157806378ea542b146101305780638da5cb5b1461014e578063da9a592c1461016c578063e492fd841461019c578063eb1b30d9146101b8578063ed36b3d8146101d4576100a9565b806306540f7e146100ae57806326b85ee1146100cc5780636deecdbe146100ea5780636e1d3c0914610108578063712f460214610112575b600080fd5b6100b66101f2565b6040516100c391906103c6565b60405180910390f35b6100d46101f8565b6040516100e19190610422565b60405180910390f35b6100f261021e565b6040516100ff9190610458565b60405180910390f35b61011061022f565b005b61011a610272565b6040516101279190610503565b60405180910390f35b610138610300565b60405161014591906103c6565b60405180910390f35b610156610341565b6040516101639190610422565b60405180910390f35b61018660048036038101906101819190610556565b610367565b60405161019391906103c6565b60405180910390f35b6101b660048036038101906101b19190610596565b61037d565b005b6101d260048036038101906101cd91906105ef565b610387565b005b6101dc6103a3565b6040516101e991906103c6565b60405180910390f35b60035481565b600260009054906101000a900473ffffffffffffffffffffffffffffffffffffffff1681565b60008054906101000a900460ff1681565b33600260006101000a81548173ffffffffffffffffffffffffffffffffffffffff021916908373ffffffffffffffffffffffffffffffffffffffff160217905550565b6001805461027f9061064b565b80601f01602080910402602001604051908101604052809291908181526020018280546102ab9061064b565b80156102f85780601f106102cd576101008083540402835291602001916102f8565b820191906000526020600020905b8154815290600101906020018083116102db57829003601f168201915b505050505081565b6000600260009054906101000a900473ffffffffffffffffffffffffffffffffffffffff1673ffffffffffffffffffffffffffffffffffffffff1631905090565b600060019054906101000a900473ffffffffffffffffffffffffffffffffffffffff1681565b6000818361037591906106ab565b905092915050565b8060038190555050565b806000806101000a81548160ff02191690831515021790555050565b6000600354905090565b6000819050919050565b6103c0816103ad565b82525050565b60006020820190506103db60008301846103b7565b92915050565b600073ffffffffffffffffffffffffffffffffffffffff82169050919050565b600061040c826103e1565b9050919050565b61041c81610401565b82525050565b60006020820190506104376000830184610413565b92915050565b60008115159050919050565b6104528161043d565b82525050565b600060208201905061046d6000830184610449565b92915050565b600081519050919050565b600082825260208201905092915050565b60005b838110156104ad578082015181840152602081019050610492565b60008484015250505050565b6000601f19601f8301169050919050565b60006104d582610473565b6104df818561047e565b93506104ef81856020860161048f565b6104f8816104b9565b840191505092915050565b6000602082019050818103600083015261051d81846104ca565b905092915050565b600080fd5b610533816103ad565b811461053e57600080fd5b50565b6000813590506105508161052a565b92915050565b6000806040838503121561056d5761056c610525565b5b600061057b85828601610541565b925050602061058c85828601610541565b9150509250929050565b6000602082840312156105ac576105ab610525565b5b60006105ba84828501610541565b91505092915050565b6105cc8161043d565b81146105d757600080fd5b50565b6000813590506105e9816105c3565b92915050565b60006020828403121561060557610604610525565b5b6000610613848285016105da565b91505092915050565b7f4e487b7100000000000000000000000000000000000000000000000000000000600052602260045260246000fd5b6000600282049050600182168061066357607f821691505b6020821081036106765761067561061c565b5b50919050565b7f4e487b7100000000000000000000000000000000000000000000000000000000600052601160045260246000fd5b60006106b6826103ad565b91506106c1836103ad565b92508282019050808211156106d9576106d861067c565b5b9291505056fea264697066735822122001db1f623eeee6e3c8f20069bd71fa5182f506e2d31103a5c2e65b77cc62aaf764736f6c63430008100033",
			"opcodes": "PUSH1 0x80 PUSH1 0x40 MSTORE PUSH1 0x40 MLOAD DUP1 PUSH1 0x40 ADD PUSH1 0x40 MSTORE DUP1 PUSH1 0xB DUP2 MSTORE PUSH1 0x20 ADD PUSH32 0x48656C6C6F20576F726C64000000000000000000000000000000000000000000 DUP2 MSTORE POP PUSH1 0x1 SWAP1 DUP2 PUSH3 0x4A SWAP2 SWAP1 PUSH3 0x31A JUMP JUMPDEST POP CALLVALUE DUP1 ISZERO PUSH3 0x58 JUMPI PUSH1 0x0 DUP1 REVERT JUMPDEST POP CALLER PUSH1 0x0 PUSH1 0x1 PUSH2 0x100 EXP DUP2 SLOAD DUP2 PUSH20 0xFFFFFFFFFFFFFFFFFFFFFFFFFFFFFFFFFFFFFFFF MUL NOT AND SWAP1 DUP4 PUSH20 0xFFFFFFFFFFFFFFFFFFFFFFFFFFFFFFFFFFFFFFFF AND MUL OR SWAP1 SSTORE POP PUSH3 0x401 JUMP JUMPDEST PUSH1 0x0 DUP2 MLOAD SWAP1 POP SWAP2 SWAP1 POP JUMP JUMPDEST PUSH32 0x4E487B7100000000000000000000000000000000000000000000000000000000 PUSH1 0x0 MSTORE PUSH1 0x41 PUSH1 0x4 MSTORE PUSH1 0x24 PUSH1 0x0 REVERT JUMPDEST PUSH32 0x4E487B7100000000000000000000000000000000000000000000000000000000 PUSH1 0x0 MSTORE PUSH1 0x22 PUSH1 0x4 MSTORE PUSH1 0x24 PUSH1 0x0 REVERT JUMPDEST PUSH1 0x0 PUSH1 0x2 DUP3 DIV SWAP1 POP PUSH1 0x1 DUP3 AND DUP1 PUSH3 0x122 JUMPI PUSH1 0x7F DUP3 AND SWAP2 POP JUMPDEST PUSH1 0x20 DUP3 LT DUP2 SUB PUSH3 0x138 JUMPI PUSH3 0x137 PUSH3 0xDA JUMP JUMPDEST JUMPDEST POP SWAP2 SWAP1 POP JUMP JUMPDEST PUSH1 0x0 DUP2 SWAP1 POP DUP2 PUSH1 0x0 MSTORE PUSH1 0x20 PUSH1 0x0 KECCAK256 SWAP1 POP SWAP2 SWAP1 POP JUMP JUMPDEST PUSH1 0x0 PUSH1 0x20 PUSH1 0x1F DUP4 ADD DIV SWAP1 POP SWAP2 SWAP1 POP JUMP JUMPDEST PUSH1 0x0 DUP3 DUP3 SHL SWAP1 POP SWAP3 SWAP2 POP POP JUMP JUMPDEST PUSH1 0x0 PUSH1 0x8 DUP4 MUL PUSH3 0x1A2 PUSH32 0xFFFFFFFFFFFFFFFFFFFFFFFFFFFFFFFFFFFFFFFFFFFFFFFFFFFFFFFFFFFFFFFF DUP3 PUSH3 0x163 JUMP JUMPDEST PUSH3 0x1AE DUP7 DUP4 PUSH3 0x163 JUMP JUMPDEST SWAP6 POP DUP1 NOT DUP5 AND SWAP4 POP DUP1 DUP7 AND DUP5 OR SWAP3 POP POP POP SWAP4 SWAP3 POP POP POP JUMP JUMPDEST PUSH1 0x0 DUP2 SWAP1 POP SWAP2 SWAP1 POP JUMP JUMPDEST PUSH1 0x0 DUP2 SWAP1 POP SWAP2 SWAP1 POP JUMP JUMPDEST PUSH1 0x0 PUSH3 0x1FB PUSH3 0x1F5 PUSH3 0x1EF DUP5 PUSH3 0x1C6 JUMP JUMPDEST PUSH3 0x1D0 JUMP JUMPDEST PUSH3 0x1C6 JUMP JUMPDEST SWAP1 POP SWAP2 SWAP1 POP JUMP JUMPDEST PUSH1 0x0 DUP2 SWAP1 POP SWAP2 SWAP1 POP JUMP JUMPDEST PUSH3 0x217 DUP4 PUSH3 0x1DA JUMP JUMPDEST PUSH3 0x22F PUSH3 0x226 DUP3 PUSH3 0x202 JUMP JUMPDEST DUP5 DUP5 SLOAD PUSH3 0x170 JUMP JUMPDEST DUP3 SSTORE POP POP POP POP JUMP JUMPDEST PUSH1 0x0 SWAP1 JUMP JUMPDEST PUSH3 0x246 PUSH3 0x237 JUMP JUMPDEST PUSH3 0x253 DUP2 DUP5 DUP5 PUSH3 0x20C JUMP JUMPDEST POP POP POP JUMP JUMPDEST JUMPDEST DUP2 DUP2 LT ISZERO PUSH3 0x27B JUMPI PUSH3 0x26F PUSH1 0x0 DUP3 PUSH3 0x23C JUMP JUMPDEST PUSH1 0x1 DUP2 ADD SWAP1 POP PUSH3 0x259 JUMP JUMPDEST POP POP JUMP JUMPDEST PUSH1 0x1F DUP3 GT ISZERO PUSH3 0x2CA JUMPI PUSH3 0x294 DUP2 PUSH3 0x13E JUMP JUMPDEST PUSH3 0x29F DUP5 PUSH3 0x153 JUMP JUMPDEST DUP2 ADD PUSH1 0x20 DUP6 LT ISZERO PUSH3 0x2AF JUMPI DUP2 SWAP1 POP JUMPDEST PUSH3 0x2C7 PUSH3 0x2BE DUP6 PUSH3 0x153 JUMP JUMPDEST DUP4 ADD DUP3 PUSH3 0x258 JUMP JUMPDEST POP POP JUMPDEST POP POP POP JUMP JUMPDEST PUSH1 0x0 DUP3 DUP3 SHR SWAP1 POP SWAP3 SWAP2 POP POP JUMP JUMPDEST PUSH1 0x0 PUSH3 0x2EF PUSH1 0x0 NOT DUP5 PUSH1 0x8 MUL PUSH3 0x2CF JUMP JUMPDEST NOT DUP1 DUP4 AND SWAP2 POP POP SWAP3 SWAP2 POP POP JUMP JUMPDEST PUSH1 0x0 PUSH3 0x30A DUP4 DUP4 PUSH3 0x2DC JUMP JUMPDEST SWAP2 POP DUP3 PUSH1 0x2 MUL DUP3 OR SWAP1 POP SWAP3 SWAP2 POP POP JUMP JUMPDEST PUSH3 0x325 DUP3 PUSH3 0xA0 JUMP JUMPDEST PUSH8 0xFFFFFFFFFFFFFFFF DUP2 GT ISZERO PUSH3 0x341 JUMPI PUSH3 0x340 PUSH3 0xAB JUMP JUMPDEST JUMPDEST PUSH3 0x34D DUP3 SLOAD PUSH3 0x109 JUMP JUMPDEST PUSH3 0x35A DUP3 DUP3 DUP6 PUSH3 0x27F JUMP JUMPDEST PUSH1 0x0 PUSH1 0x20 SWAP1 POP PUSH1 0x1F DUP4 GT PUSH1 0x1 DUP2 EQ PUSH3 0x392 JUMPI PUSH1 0x0 DUP5 ISZERO PUSH3 0x37D JUMPI DUP3 DUP8 ADD MLOAD SWAP1 POP JUMPDEST PUSH3 0x389 DUP6 DUP3 PUSH3 0x2FC JUMP JUMPDEST DUP7 SSTORE POP PUSH3 0x3F9 JUMP JUMPDEST PUSH1 0x1F NOT DUP5 AND PUSH3 0x3A2 DUP7 PUSH3 0x13E JUMP JUMPDEST PUSH1 0x0 JUMPDEST DUP3 DUP2 LT ISZERO PUSH3 0x3CC JUMPI DUP5 DUP10 ADD MLOAD DUP3 SSTORE PUSH1 0x1 DUP3 ADD SWAP2 POP PUSH1 0x20 DUP6 ADD SWAP5 POP PUSH1 0x20 DUP2 ADD SWAP1 POP PUSH3 0x3A5 JUMP JUMPDEST DUP7 DUP4 LT ISZERO PUSH3 0x3EC JUMPI DUP5 DUP10 ADD MLOAD PUSH3 0x3E8 PUSH1 0x1F DUP10 AND DUP3 PUSH3 0x2DC JUMP JUMPDEST DUP4 SSTORE POP JUMPDEST PUSH1 0x1 PUSH1 0x2 DUP9 MUL ADD DUP9 SSTORE POP POP POP JUMPDEST POP POP POP POP POP POP JUMP JUMPDEST PUSH2 0x715 DUP1 PUSH3 0x411 PUSH1 0x0 CODECOPY PUSH1 0x0 RETURN INVALID PUSH1 0x80 PUSH1 0x40 MSTORE CALLVALUE DUP1 ISZERO PUSH2 0x10 JUMPI PUSH1 0x0 DUP1 REVERT JUMPDEST POP PUSH1 0x4 CALLDATASIZE LT PUSH2 0xA9 JUMPI PUSH1 0x0 CALLDATALOAD PUSH1 0xE0 SHR DUP1 PUSH4 0x78EA542B GT PUSH2 0x71 JUMPI DUP1 PUSH4 0x78EA542B EQ PUSH2 0x130 JUMPI DUP1 PUSH4 0x8DA5CB5B EQ PUSH2 0x14E JUMPI DUP1 PUSH4 0xDA9A592C EQ PUSH2 0x16C JUMPI DUP1 PUSH4 0xE492FD84 EQ PUSH2 0x19C JUMPI DUP1 PUSH4 0xEB1B30D9 EQ PUSH2 0x1B8 JUMPI DUP1 PUSH4 0xED36B3D8 EQ PUSH2 0x1D4 JUMPI PUSH2 0xA9 JUMP JUMPDEST DUP1 PUSH4 0x6540F7E EQ PUSH2 0xAE JUMPI DUP1 PUSH4 0x26B85EE1 EQ PUSH2 0xCC JUMPI DUP1 PUSH4 0x6DEECDBE EQ PUSH2 0xEA JUMPI DUP1 PUSH4 0x6E1D3C09 EQ PUSH2 0x108 JUMPI DUP1 PUSH4 0x712F4602 EQ PUSH2 0x112 JUMPI JUMPDEST PUSH1 0x0 DUP1 REVERT JUMPDEST PUSH2 0xB6 PUSH2 0x1F2 JUMP JUMPDEST PUSH1 0x40 MLOAD PUSH2 0xC3 SWAP2 SWAP1 PUSH2 0x3C6 JUMP JUMPDEST PUSH1 0x40 MLOAD DUP1 SWAP2 SUB SWAP1 RETURN JUMPDEST PUSH2 0xD4 PUSH2 0x1F8 JUMP JUMPDEST PUSH1 0x40 MLOAD PUSH2 0xE1 SWAP2 SWAP1 PUSH2 0x422 JUMP JUMPDEST PUSH1 0x40 MLOAD DUP1 SWAP2 SUB SWAP1 RETURN JUMPDEST PUSH2 0xF2 PUSH2 0x21E JUMP JUMPDEST PUSH1 0x40 MLOAD PUSH2 0xFF SWAP2 SWAP1 PUSH2 0x458 JUMP JUMPDEST PUSH1 0x40 MLOAD DUP1 SWAP2 SUB SWAP1 RETURN JUMPDEST PUSH2 0x110 PUSH2 0x22F JUMP JUMPDEST STOP JUMPDEST PUSH2 0x11A PUSH2 0x272 JUMP JUMPDEST PUSH1 0x40 MLOAD PUSH2 0x127 SWAP2 SWAP1 PUSH2 0x503 JUMP JUMPDEST PUSH1 0x40 MLOAD DUP1 SWAP2 SUB SWAP1 RETURN JUMPDEST PUSH2 0x138 PUSH2 0x300 JUMP JUMPDEST PUSH1 0x40 MLOAD PUSH2 0x145 SWAP2 SWAP1 PUSH2 0x3C6 JUMP JUMPDEST PUSH1 0x40 MLOAD DUP1 SWAP2 SUB SWAP1 RETURN JUMPDEST PUSH2 0x156 PUSH2 0x341 JUMP JUMPDEST PUSH1 0x40 MLOAD PUSH2 0x163 SWAP2 SWAP1 PUSH2 0x422 JUMP JUMPDEST PUSH1 0x40 MLOAD DUP1 SWAP2 SUB SWAP1 RETURN JUMPDEST PUSH2 0x186 PUSH1 0x4 DUP1 CALLDATASIZE SUB DUP2 ADD SWAP1 PUSH2 0x181 SWAP2 SWAP1 PUSH2 0x556 JUMP JUMPDEST PUSH2 0x367 JUMP JUMPDEST PUSH1 0x40 MLOAD PUSH2 0x193 SWAP2 SWAP1 PUSH2 0x3C6 JUMP JUMPDEST PUSH1 0x40 MLOAD DUP1 SWAP2 SUB SWAP1 RETURN JUMPDEST PUSH2 0x1B6 PUSH1 0x4 DUP1 CALLDATASIZE SUB DUP2 ADD SWAP1 PUSH2 0x1B1 SWAP2 SWAP1 PUSH2 0x596 JUMP JUMPDEST PUSH2 0x37D JUMP JUMPDEST STOP JUMPDEST PUSH2 0x1D2 PUSH1 0x4 DUP1 CALLDATASIZE SUB DUP2 ADD SWAP1 PUSH2 0x1CD SWAP2 SWAP1 PUSH2 0x5EF JUMP JUMPDEST PUSH2 0x387 JUMP JUMPDEST STOP JUMPDEST PUSH2 0x1DC PUSH2 0x3A3 JUMP JUMPDEST PUSH1 0x40 MLOAD PUSH2 0x1E9 SWAP2 SWAP1 PUSH2 0x3C6 JUMP JUMPDEST PUSH1 0x40 MLOAD DUP1 SWAP2 SUB SWAP1 RETURN JUMPDEST PUSH1 0x3 SLOAD DUP2 JUMP JUMPDEST PUSH1 0x2 PUSH1 0x0 SWAP1 SLOAD SWAP1 PUSH2 0x100 EXP SWAP1 DIV PUSH20 0xFFFFFFFFFFFFFFFFFFFFFFFFFFFFFFFFFFFFFFFF AND DUP2 JUMP JUMPDEST PUSH1 0x0 DUP1 SLOAD SWAP1 PUSH2 0x100 EXP SWAP1 DIV PUSH1 0xFF AND DUP2 JUMP JUMPDEST CALLER PUSH1 0x2 PUSH1 0x0 PUSH2 0x100 EXP DUP2 SLOAD DUP2 PUSH20 0xFFFFFFFFFFFFFFFFFFFFFFFFFFFFFFFFFFFFFFFF MUL NOT AND SWAP1 DUP4 PUSH20 0xFFFFFFFFFFFFFFFFFFFFFFFFFFFFFFFFFFFFFFFF AND MUL OR SWAP1 SSTORE POP JUMP JUMPDEST PUSH1 0x1 DUP1 SLOAD PUSH2 0x27F SWAP1 PUSH2 0x64B JUMP JUMPDEST DUP1 PUSH1 0x1F ADD PUSH1 0x20 DUP1 SWAP2 DIV MUL PUSH1 0x20 ADD PUSH1 0x40 MLOAD SWAP1 DUP2 ADD PUSH1 0x40 MSTORE DUP1 SWAP3 SWAP2 SWAP1 DUP2 DUP2 MSTORE PUSH1 0x20 ADD DUP3 DUP1 SLOAD PUSH2 0x2AB SWAP1 PUSH2 0x64B JUMP JUMPDEST DUP1 ISZERO PUSH2 0x2F8 JUMPI DUP1 PUSH1 0x1F LT PUSH2 0x2CD JUMPI PUSH2 0x100 DUP1 DUP4 SLOAD DIV MUL DUP4 MSTORE SWAP2 PUSH1 0x20 ADD SWAP2 PUSH2 0x2F8 JUMP JUMPDEST DUP3 ADD SWAP2 SWAP1 PUSH1 0x0 MSTORE PUSH1 0x20 PUSH1 0x0 KECCAK256 SWAP1 JUMPDEST DUP2 SLOAD DUP2 MSTORE SWAP1 PUSH1 0x1 ADD SWAP1 PUSH1 0x20 ADD DUP1 DUP4 GT PUSH2 0x2DB JUMPI DUP3 SWAP1 SUB PUSH1 0x1F AND DUP3 ADD SWAP2 JUMPDEST POP POP POP POP POP DUP2 JUMP JUMPDEST PUSH1 0x0 PUSH1 0x2 PUSH1 0x0 SWAP1 SLOAD SWAP1 PUSH2 0x100 EXP SWAP1 DIV PUSH20 0xFFFFFFFFFFFFFFFFFFFFFFFFFFFFFFFFFFFFFFFF AND PUSH20 0xFFFFFFFFFFFFFFFFFFFFFFFFFFFFFFFFFFFFFFFF AND BALANCE SWAP1 POP SWAP1 JUMP JUMPDEST PUSH1 0x0 PUSH1 0x1 SWAP1 SLOAD SWAP1 PUSH2 0x100 EXP SWAP1 DIV PUSH20 0xFFFFFFFFFFFFFFFFFFFFFFFFFFFFFFFFFFFFFFFF AND DUP2 JUMP JUMPDEST PUSH1 0x0 DUP2 DUP4 PUSH2 0x375 SWAP2 SWAP1 PUSH2 0x6AB JUMP JUMPDEST SWAP1 POP SWAP3 SWAP2 POP POP JUMP JUMPDEST DUP1 PUSH1 0x3 DUP2 SWAP1 SSTORE POP POP JUMP JUMPDEST DUP1 PUSH1 0x0 DUP1 PUSH2 0x100 EXP DUP2 SLOAD DUP2 PUSH1 0xFF MUL NOT AND SWAP1 DUP4 ISZERO ISZERO MUL OR SWAP1 SSTORE POP POP JUMP JUMPDEST PUSH1 0x0 PUSH1 0x3 SLOAD SWAP1 POP SWAP1 JUMP JUMPDEST PUSH1 0x0 DUP2 SWAP1 POP SWAP2 SWAP1 POP JUMP JUMPDEST PUSH2 0x3C0 DUP2 PUSH2 0x3AD JUMP JUMPDEST DUP3 MSTORE POP POP JUMP JUMPDEST PUSH1 0x0 PUSH1 0x20 DUP3 ADD SWAP1 POP PUSH2 0x3DB PUSH1 0x0 DUP4 ADD DUP5 PUSH2 0x3B7 JUMP JUMPDEST SWAP3 SWAP2 POP POP JUMP JUMPDEST PUSH1 0x0 PUSH20 0xFFFFFFFFFFFFFFFFFFFFFFFFFFFFFFFFFFFFFFFF DUP3 AND SWAP1 POP SWAP2 SWAP1 POP JUMP JUMPDEST PUSH1 0x0 PUSH2 0x40C DUP3 PUSH2 0x3E1 JUMP JUMPDEST SWAP1 POP SWAP2 SWAP1 POP JUMP JUMPDEST PUSH2 0x41C DUP2 PUSH2 0x401 JUMP JUMPDEST DUP3 MSTORE POP POP JUMP JUMPDEST PUSH1 0x0 PUSH1 0x20 DUP3 ADD SWAP1 POP PUSH2 0x437 PUSH1 0x0 DUP4 ADD DUP5 PUSH2 0x413 JUMP JUMPDEST SWAP3 SWAP2 POP POP JUMP JUMPDEST PUSH1 0x0 DUP2 ISZERO ISZERO SWAP1 POP SWAP2 SWAP1 POP JUMP JUMPDEST PUSH2 0x452 DUP2 PUSH2 0x43D JUMP JUMPDEST DUP3 MSTORE POP POP JUMP JUMPDEST PUSH1 0x0 PUSH1 0x20 DUP3 ADD SWAP1 POP PUSH2 0x46D PUSH1 0x0 DUP4 ADD DUP5 PUSH2 0x449 JUMP JUMPDEST SWAP3 SWAP2 POP POP JUMP JUMPDEST PUSH1 0x0 DUP2 MLOAD SWAP1 POP SWAP2 SWAP1 POP JUMP JUMPDEST PUSH1 0x0 DUP3 DUP3 MSTORE PUSH1 0x20 DUP3 ADD SWAP1 POP SWAP3 SWAP2 POP POP JUMP JUMPDEST PUSH1 0x0 JUMPDEST DUP4 DUP2 LT ISZERO PUSH2 0x4AD JUMPI DUP1 DUP3 ADD MLOAD DUP2 DUP5 ADD MSTORE PUSH1 0x20 DUP2 ADD SWAP1 POP PUSH2 0x492 JUMP JUMPDEST PUSH1 0x0 DUP5 DUP5 ADD MSTORE POP POP POP POP JUMP JUMPDEST PUSH1 0x0 PUSH1 0x1F NOT PUSH1 0x1F DUP4 ADD AND SWAP1 POP SWAP2 SWAP1 POP JUMP JUMPDEST PUSH1 0x0 PUSH2 0x4D5 DUP3 PUSH2 0x473 JUMP JUMPDEST PUSH2 0x4DF DUP2 DUP6 PUSH2 0x47E JUMP JUMPDEST SWAP4 POP PUSH2 0x4EF DUP2 DUP6 PUSH1 0x20 DUP7 ADD PUSH2 0x48F JUMP JUMPDEST PUSH2 0x4F8 DUP2 PUSH2 0x4B9 JUMP JUMPDEST DUP5 ADD SWAP2 POP POP SWAP3 SWAP2 POP POP JUMP JUMPDEST PUSH1 0x0 PUSH1 0x20 DUP3 ADD SWAP1 POP DUP2 DUP2 SUB PUSH1 0x0 DUP4 ADD MSTORE PUSH2 0x51D DUP2 DUP5 PUSH2 0x4CA JUMP JUMPDEST SWAP1 POP SWAP3 SWAP2 POP POP JUMP JUMPDEST PUSH1 0x0 DUP1 REVERT JUMPDEST PUSH2 0x533 DUP2 PUSH2 0x3AD JUMP JUMPDEST DUP2 EQ PUSH2 0x53E JUMPI PUSH1 0x0 DUP1 REVERT JUMPDEST POP JUMP JUMPDEST PUSH1 0x0 DUP2 CALLDATALOAD SWAP1 POP PUSH2 0x550 DUP2 PUSH2 0x52A JUMP JUMPDEST SWAP3 SWAP2 POP POP JUMP JUMPDEST PUSH1 0x0 DUP1 PUSH1 0x40 DUP4 DUP6 SUB SLT ISZERO PUSH2 0x56D JUMPI PUSH2 0x56C PUSH2 0x525 JUMP JUMPDEST JUMPDEST PUSH1 0x0 PUSH2 0x57B DUP6 DUP3 DUP7 ADD PUSH2 0x541 JUMP JUMPDEST SWAP3 POP POP PUSH1 0x20 PUSH2 0x58C DUP6 DUP3 DUP7 ADD PUSH2 0x541 JUMP JUMPDEST SWAP2 POP POP SWAP3 POP SWAP3 SWAP1 POP JUMP JUMPDEST PUSH1 0x0 PUSH1 0x20 DUP3 DUP5 SUB SLT ISZERO PUSH2 0x5AC JUMPI PUSH2 0x5AB PUSH2 0x525 JUMP JUMPDEST JUMPDEST PUSH1 0x0 PUSH2 0x5BA DUP5 DUP3 DUP6 ADD PUSH2 0x541 JUMP JUMPDEST SWAP2 POP POP SWAP3 SWAP2 POP POP JUMP JUMPDEST PUSH2 0x5CC DUP2 PUSH2 0x43D JUMP JUMPDEST DUP2 EQ PUSH2 0x5D7 JUMPI PUSH1 0x0 DUP1 REVERT JUMPDEST POP JUMP JUMPDEST PUSH1 0x0 DUP2 CALLDATALOAD SWAP1 POP PUSH2 0x5E9 DUP2 PUSH2 0x5C3 JUMP JUMPDEST SWAP3 SWAP2 POP POP JUMP JUMPDEST PUSH1 0x0 PUSH1 0x20 DUP3 DUP5 SUB SLT ISZERO PUSH2 0x605 JUMPI PUSH2 0x604 PUSH2 0x525 JUMP JUMPDEST JUMPDEST PUSH1 0x0 PUSH2 0x613 DUP5 DUP3 DUP6 ADD PUSH2 0x5DA JUMP JUMPDEST SWAP2 POP POP SWAP3 SWAP2 POP POP JUMP JUMPDEST PUSH32 0x4E487B7100000000000000000000000000000000000000000000000000000000 PUSH1 0x0 MSTORE PUSH1 0x22 PUSH1 0x4 MSTORE PUSH1 0x24 PUSH1 0x0 REVERT JUMPDEST PUSH1 0x0 PUSH1 0x2 DUP3 DIV SWAP1 POP PUSH1 0x1 DUP3 AND DUP1 PUSH2 0x663 JUMPI PUSH1 0x7F DUP3 AND SWAP2 POP JUMPDEST PUSH1 0x20 DUP3 LT DUP2 SUB PUSH2 0x676 JUMPI PUSH2 0x675 PUSH2 0x61C JUMP JUMPDEST JUMPDEST POP SWAP2 SWAP1 POP JUMP JUMPDEST PUSH32 0x4E487B7100000000000000000000000000000000000000000000000000000000 PUSH1 0x0 MSTORE PUSH1 0x11 PUSH1 0x4 MSTORE PUSH1 0x24 PUSH1 0x0 REVERT JUMPDEST PUSH1 0x0 PUSH2 0x6B6 DUP3 PUSH2 0x3AD JUMP JUMPDEST SWAP2 POP PUSH2 0x6C1 DUP4 PUSH2 0x3AD JUMP JUMPDEST SWAP3 POP DUP3 DUP3 ADD SWAP1 POP DUP1 DUP3 GT ISZERO PUSH2 0x6D9 JUMPI PUSH2 0x6D8 PUSH2 0x67C JUMP JUMPDEST JUMPDEST SWAP3 SWAP2 POP POP JUMP INVALID LOG2 PUSH5 0x6970667358 0x22 SLT KECCAK256 ADD 0xDB 0x1F PUSH3 0x3EEEE6 0xE3 0xC8 CALLCODE STOP PUSH10 0xBD71FA5182F506E2D311 SUB 0xA5 0xC2 0xE6 JUMPDEST PUSH24 0xCC62AAF764736F6C63430008100033000000000000000000 "
		},
		"gasEstimates": {
			"creation": {
				"codeDepositCost": "362600",
				"executionCost": "infinite",
				"totalCost": "infinite"
			},
			"external": {
				"AddressBalance()": "5079",
				"myAddress()": "2537",
				"myBool()": "2513",
				"myBytes()": "infinite",
				"myUint()": "2430",
				"owner()": "2586",
				"pureFunction(uint256,uint256)": "infinite",
				"setMyAddress()": "24477",
				"setMyBool(bool)": "24767",
				"setMyUint(uint256)": "22586",
				"viewFunction()": "2547"
			}
		},
		"methodIdentifiers": {
			"AddressBalance()": "78ea542b",
			"myAddress()": "26b85ee1",
			"myBool()": "6deecdbe",
			"myBytes()": "712f4602",
			"myUint()": "06540f7e",
			"owner()": "8da5cb5b",
			"pureFunction(uint256,uint256)": "da9a592c",
			"setMyAddress()": "6e1d3c09",
			"setMyBool(bool)": "eb1b30d9",
			"setMyUint(uint256)": "e492fd84",
			"viewFunction()": "ed36b3d8"
		}
	},
	"abi": [
		{
			"inputs": [],
			"stateMutability": "nonpayable",
			"type": "constructor"
		},
		{
			"inputs": [],
			"name": "AddressBalance",
			"outputs": [
				{
					"internalType": "uint256",
					"name": "",
					"type": "uint256"
				}
			],
			"stateMutability": "view",
			"type": "function"
		},
		{
			"inputs": [],
			"name": "myAddress",
			"outputs": [
				{
					"internalType": "address",
					"name": "",
					"type": "address"
				}
			],
			"stateMutability": "view",
			"type": "function"
		},
		{
			"inputs": [],
			"name": "myBool",
			"outputs": [
				{
					"internalType": "bool",
					"name": "",
					"type": "bool"
				}
			],
			"stateMutability": "view",
			"type": "function"
		},
		{
			"inputs": [],
			"name": "myBytes",
			"outputs": [
				{
					"internalType": "bytes",
					"name": "",
					"type": "bytes"
				}
			],
			"stateMutability": "view",
			"type": "function"
		},
		{
			"inputs": [],
			"name": "myUint",
			"outputs": [
				{
					"internalType": "uint256",
					"name": "",
					"type": "uint256"
				}
			],
			"stateMutability": "view",
			"type": "function"
		},
		{
			"inputs": [],
			"name": "owner",
			"outputs": [
				{
					"internalType": "address",
					"name": "",
					"type": "address"
				}
			],
			"stateMutability": "view",
			"type": "function"
		},
		{
			"inputs": [
				{
					"internalType": "uint256",
					"name": "balance",
					"type": "uint256"
				},
				{
					"internalType": "uint256",
					"name": "quantity",
					"type": "uint256"
				}
			],
			"name": "pureFunction",
			"outputs": [
				{
					"internalType": "uint256",
					"name": "",
					"type": "uint256"
				}
			],
			"stateMutability": "pure",
			"type": "function"
		},
		{
			"inputs": [],
			"name": "setMyAddress",
			"outputs": [],
			"stateMutability": "nonpayable",
			"type": "function"
		},
		{
			"inputs": [
				{
					"internalType": "bool",
					"name": "_myBool",
					"type": "bool"
				}
			],
			"name": "setMyBool",
			"outputs": [],
			"stateMutability": "nonpayable",
			"type": "function"
		},
		{
			"inputs": [
				{
					"internalType": "uint256",
					"name": "_myUint",
					"type": "uint256"
				}
			],
			"name": "setMyUint",
			"outputs": [],
			"stateMutability": "nonpayable",
			"type": "function"
		},
		{
			"inputs": [],
			"name": "viewFunction",
			"outputs": [
				{
					"internalType": "uint256",
					"name": "",
					"type": "uint256"
				}
			],
			"stateMutability": "view",
			"type": "function"
		}
	]
}