{
	"data": {
		"bytecode": {
			"linkReferences": {},
			"object": "608060405234801561000f575f80fd5b5061077b8061001d5f395ff3fe608060405234801561000f575f80fd5b5060043610610049575f3560e01c806297f1271461004d5780632fcd4570146100575780634795394c14610075578063ea2f2ab814610091575b5f80fd5b6100556100af565b005b61005f6100c8565b60405161006c919061019a565b60405180910390f35b61008f600480360381019061008a9190610300565b6100ce565b005b6100996100f7565b6040516100a691906103c1565b60405180910390f35b60015f8154809291906100c19061040e565b9190505550565b60015481565b805f90816100dc919061062f565b5060015f8154809291906100ef906106fe565b919050555050565b5f805461010390610462565b80601f016020809104026020016040519081016040528092919081815260200182805461012f90610462565b801561017a5780601f106101515761010080835404028352916020019161017a565b820191905f5260205f20905b81548152906001019060200180831161015d57829003601f168201915b505050505081565b5f819050919050565b61019481610182565b82525050565b5f6020820190506101ad5f83018461018b565b92915050565b5f604051905090565b5f80fd5b5f80fd5b5f80fd5b5f80fd5b5f601f19601f8301169050919050565b7f4e487b71000000000000000000000000000000000000000000000000000000005f52604160045260245ffd5b610212826101cc565b810181811067ffffffffffffffff82111715610231576102306101dc565b5b80604052505050565b5f6102436101b3565b905061024f8282610209565b919050565b5f67ffffffffffffffff82111561026e5761026d6101dc565b5b610277826101cc565b9050602081019050919050565b828183375f83830152505050565b5f6102a461029f84610254565b61023a565b9050828152602081018484840111156102c0576102bf6101c8565b5b6102cb848285610284565b509392505050565b5f82601f8301126102e7576102e66101c4565b5b81356102f7848260208601610292565b91505092915050565b5f60208284031215610315576103146101bc565b5b5f82013567ffffffffffffffff811115610332576103316101c0565b5b61033e848285016102d3565b91505092915050565b5f81519050919050565b5f82825260208201905092915050565b5f5b8381101561037e578082015181840152602081019050610363565b5f8484015250505050565b5f61039382610347565b61039d8185610351565b93506103ad818560208601610361565b6103b6816101cc565b840191505092915050565b5f6020820190508181035f8301526103d98184610389565b905092915050565b7f4e487b71000000000000000000000000000000000000000000000000000000005f52601160045260245ffd5b5f61041882610182565b91505f820361042a576104296103e1565b5b600182039050919050565b7f4e487b71000000000000000000000000000000000000000000000000000000005f52602260045260245ffd5b5f600282049050600182168061047957607f821691505b60208210810361048c5761048b610435565b5b50919050565b5f819050815f5260205f209050919050565b5f6020601f8301049050919050565b5f82821b905092915050565b5f600883026104ee7fffffffffffffffffffffffffffffffffffffffffffffffffffffffffffffffff826104b3565b6104f886836104b3565b95508019841693508086168417925050509392505050565b5f819050919050565b5f61053361052e61052984610182565b610510565b610182565b9050919050565b5f819050919050565b61054c83610519565b6105606105588261053a565b8484546104bf565b825550505050565b5f90565b610574610568565b61057f818484610543565b505050565b5b818110156105a2576105975f8261056c565b600181019050610585565b5050565b601f8211156105e7576105b881610492565b6105c1846104a4565b810160208510156105d0578190505b6105e46105dc856104a4565b830182610584565b50505b505050565b5f82821c905092915050565b5f6106075f19846008026105ec565b1980831691505092915050565b5f61061f83836105f8565b9150826002028217905092915050565b61063882610347565b67ffffffffffffffff811115610651576106506101dc565b5b61065b8254610462565b6106668282856105a6565b5f60209050601f831160018114610697575f8415610685578287015190505b61068f8582610614565b8655506106f6565b601f1984166106a586610492565b5f5b828110156106cc578489015182556001820191506020850194506020810190506106a7565b868310156106e957848901516106e5601f8916826105f8565b8355505b6001600288020188555050505b505050505050565b5f61070882610182565b91507fffffffffffffffffffffffffffffffffffffffffffffffffffffffffffffffff820361073a576107396103e1565b5b60018201905091905056fea2646970667358221220a1a633808b9732ffc61f093e179b476c0880d10d21dcf4e207e010cb9e9c706764736f6c63430008180033",
			"opcodes": "PUSH1 0x80 PUSH1 0x40 MSTORE CALLVALUE DUP1 ISZERO PUSH2 0xF JUMPI PUSH0 DUP1 REVERT JUMPDEST POP PUSH2 0x77B DUP1 PUSH2 0x1D PUSH0 CODECOPY PUSH0 RETURN INVALID PUSH1 0x80 PUSH1 0x40 MSTORE CALLVALUE DUP1 ISZERO PUSH2 0xF JUMPI PUSH0 DUP1 REVERT JUMPDEST POP PUSH1 0x4 CALLDATASIZE LT PUSH2 0x49 JUMPI PUSH0 CALLDATALOAD PUSH1 0xE0 SHR DUP1 PUSH3 0x97F127 EQ PUSH2 0x4D JUMPI DUP1 PUSH4 0x2FCD4570 EQ PUSH2 0x57 JUMPI DUP1 PUSH4 0x4795394C EQ PUSH2 0x75 JUMPI DUP1 PUSH4 0xEA2F2AB8 EQ PUSH2 0x91 JUMPI JUMPDEST PUSH0 DUP1 REVERT JUMPDEST PUSH2 0x55 PUSH2 0xAF JUMP JUMPDEST STOP JUMPDEST PUSH2 0x5F PUSH2 0xC8 JUMP JUMPDEST PUSH1 0x40 MLOAD PUSH2 0x6C SWAP2 SWAP1 PUSH2 0x19A JUMP JUMPDEST PUSH1 0x40 MLOAD DUP1 SWAP2 SUB SWAP1 RETURN JUMPDEST PUSH2 0x8F PUSH1 0x4 DUP1 CALLDATASIZE SUB DUP2 ADD SWAP1 PUSH2 0x8A SWAP2 SWAP1 PUSH2 0x300 JUMP JUMPDEST PUSH2 0xCE JUMP JUMPDEST STOP JUMPDEST PUSH2 0x99 PUSH2 0xF7 JUMP JUMPDEST PUSH1 0x40 MLOAD PUSH2 0xA6 SWAP2 SWAP1 PUSH2 0x3C1 JUMP JUMPDEST PUSH1 0x40 MLOAD DUP1 SWAP2 SUB SWAP1 RETURN JUMPDEST PUSH1 0x1 PUSH0 DUP2 SLOAD DUP1 SWAP3 SWAP2 SWAP1 PUSH2 0xC1 SWAP1 PUSH2 0x40E JUMP JUMPDEST SWAP2 SWAP1 POP SSTORE POP JUMP JUMPDEST PUSH1 0x1 SLOAD DUP2 JUMP JUMPDEST DUP1 PUSH0 SWAP1 DUP2 PUSH2 0xDC SWAP2 SWAP1 PUSH2 0x62F JUMP JUMPDEST POP PUSH1 0x1 PUSH0 DUP2 SLOAD DUP1 SWAP3 SWAP2 SWAP1 PUSH2 0xEF SWAP1 PUSH2 0x6FE JUMP JUMPDEST SWAP2 SWAP1 POP SSTORE POP POP JUMP JUMPDEST PUSH0 DUP1 SLOAD PUSH2 0x103 SWAP1 PUSH2 0x462 JUMP JUMPDEST DUP1 PUSH1 0x1F ADD PUSH1 0x20 DUP1 SWAP2 DIV MUL PUSH1 0x20 ADD PUSH1 0x40 MLOAD SWAP1 DUP2 ADD PUSH1 0x40 MSTORE DUP1 SWAP3 SWAP2 SWAP1 DUP2 DUP2 MSTORE PUSH1 0x20 ADD DUP3 DUP1 SLOAD PUSH2 0x12F SWAP1 PUSH2 0x462 JUMP JUMPDEST DUP1 ISZERO PUSH2 0x17A JUMPI DUP1 PUSH1 0x1F LT PUSH2 0x151 JUMPI PUSH2 0x100 DUP1 DUP4 SLOAD DIV MUL DUP4 MSTORE SWAP2 PUSH1 0x20 ADD SWAP2 PUSH2 0x17A JUMP JUMPDEST DUP3 ADD SWAP2 SWAP1 PUSH0 MSTORE PUSH1 0x20 PUSH0 KECCAK256 SWAP1 JUMPDEST DUP2 SLOAD DUP2 MSTORE SWAP1 PUSH1 0x1 ADD SWAP1 PUSH1 0x20 ADD DUP1 DUP4 GT PUSH2 0x15D JUMPI DUP3 SWAP1 SUB PUSH1 0x1F AND DUP3 ADD SWAP2 JUMPDEST POP POP POP POP POP DUP2 JUMP JUMPDEST PUSH0 DUP2 SWAP1 POP SWAP2 SWAP1 POP JUMP JUMPDEST PUSH2 0x194 DUP2 PUSH2 0x182 JUMP JUMPDEST DUP3 MSTORE POP POP JUMP JUMPDEST PUSH0 PUSH1 0x20 DUP3 ADD SWAP1 POP PUSH2 0x1AD PUSH0 DUP4 ADD DUP5 PUSH2 0x18B JUMP JUMPDEST SWAP3 SWAP2 POP POP JUMP JUMPDEST PUSH0 PUSH1 0x40 MLOAD SWAP1 POP SWAP1 JUMP JUMPDEST PUSH0 DUP1 REVERT JUMPDEST PUSH0 DUP1 REVERT JUMPDEST PUSH0 DUP1 REVERT JUMPDEST PUSH0 DUP1 REVERT JUMPDEST PUSH0 PUSH1 0x1F NOT PUSH1 0x1F DUP4 ADD AND SWAP1 POP SWAP2 SWAP1 POP JUMP JUMPDEST PUSH32 0x4E487B7100000000000000000000000000000000000000000000000000000000 PUSH0 MSTORE PUSH1 0x41 PUSH1 0x4 MSTORE PUSH1 0x24 PUSH0 REVERT JUMPDEST PUSH2 0x212 DUP3 PUSH2 0x1CC JUMP JUMPDEST DUP2 ADD DUP2 DUP2 LT PUSH8 0xFFFFFFFFFFFFFFFF DUP3 GT OR ISZERO PUSH2 0x231 JUMPI PUSH2 0x230 PUSH2 0x1DC JUMP JUMPDEST JUMPDEST DUP1 PUSH1 0x40 MSTORE POP POP POP JUMP JUMPDEST PUSH0 PUSH2 0x243 PUSH2 0x1B3 JUMP JUMPDEST SWAP1 POP PUSH2 0x24F DUP3 DUP3 PUSH2 0x209 JUMP JUMPDEST SWAP2 SWAP1 POP JUMP JUMPDEST PUSH0 PUSH8 0xFFFFFFFFFFFFFFFF DUP3 GT ISZERO PUSH2 0x26E JUMPI PUSH2 0x26D PUSH2 0x1DC JUMP JUMPDEST JUMPDEST PUSH2 0x277 DUP3 PUSH2 0x1CC JUMP JUMPDEST SWAP1 POP PUSH1 0x20 DUP2 ADD SWAP1 POP SWAP2 SWAP1 POP JUMP JUMPDEST DUP3 DUP2 DUP4 CALLDATACOPY PUSH0 DUP4 DUP4 ADD MSTORE POP POP POP JUMP JUMPDEST PUSH0 PUSH2 0x2A4 PUSH2 0x29F DUP5 PUSH2 0x254 JUMP JUMPDEST PUSH2 0x23A JUMP JUMPDEST SWAP1 POP DUP3 DUP2 MSTORE PUSH1 0x20 DUP2 ADD DUP5 DUP5 DUP5 ADD GT ISZERO PUSH2 0x2C0 JUMPI PUSH2 0x2BF PUSH2 0x1C8 JUMP JUMPDEST JUMPDEST PUSH2 0x2CB DUP5 DUP3 DUP6 PUSH2 0x284 JUMP JUMPDEST POP SWAP4 SWAP3 POP POP POP JUMP JUMPDEST PUSH0 DUP3 PUSH1 0x1F DUP4 ADD SLT PUSH2 0x2E7 JUMPI PUSH2 0x2E6 PUSH2 0x1C4 JUMP JUMPDEST JUMPDEST DUP2 CALLDATALOAD PUSH2 0x2F7 DUP5 DUP3 PUSH1 0x20 DUP7 ADD PUSH2 0x292 JUMP JUMPDEST SWAP2 POP POP SWAP3 SWAP2 POP POP JUMP JUMPDEST PUSH0 PUSH1 0x20 DUP3 DUP5 SUB SLT ISZERO PUSH2 0x315 JUMPI PUSH2 0x314 PUSH2 0x1BC JUMP JUMPDEST JUMPDEST PUSH0 DUP3 ADD CALLDATALOAD PUSH8 0xFFFFFFFFFFFFFFFF DUP2 GT ISZERO PUSH2 0x332 JUMPI PUSH2 0x331 PUSH2 0x1C0 JUMP JUMPDEST JUMPDEST PUSH2 0x33E DUP5 DUP3 DUP6 ADD PUSH2 0x2D3 JUMP JUMPDEST SWAP2 POP POP SWAP3 SWAP2 POP POP JUMP JUMPDEST PUSH0 DUP2 MLOAD SWAP1 POP SWAP2 SWAP1 POP JUMP JUMPDEST PUSH0 DUP3 DUP3 MSTORE PUSH1 0x20 DUP3 ADD SWAP1 POP SWAP3 SWAP2 POP POP JUMP JUMPDEST PUSH0 JUMPDEST DUP4 DUP2 LT ISZERO PUSH2 0x37E JUMPI DUP1 DUP3 ADD MLOAD DUP2 DUP5 ADD MSTORE PUSH1 0x20 DUP2 ADD SWAP1 POP PUSH2 0x363 JUMP JUMPDEST PUSH0 DUP5 DUP5 ADD MSTORE POP POP POP POP JUMP JUMPDEST PUSH0 PUSH2 0x393 DUP3 PUSH2 0x347 JUMP JUMPDEST PUSH2 0x39D DUP2 DUP6 PUSH2 0x351 JUMP JUMPDEST SWAP4 POP PUSH2 0x3AD DUP2 DUP6 PUSH1 0x20 DUP7 ADD PUSH2 0x361 JUMP JUMPDEST PUSH2 0x3B6 DUP2 PUSH2 0x1CC JUMP JUMPDEST DUP5 ADD SWAP2 POP POP SWAP3 SWAP2 POP POP JUMP JUMPDEST PUSH0 PUSH1 0x20 DUP3 ADD SWAP1 POP DUP2 DUP2 SUB PUSH0 DUP4 ADD MSTORE PUSH2 0x3D9 DUP2 DUP5 PUSH2 0x389 JUMP JUMPDEST SWAP1 POP SWAP3 SWAP2 POP POP JUMP JUMPDEST PUSH32 0x4E487B7100000000000000000000000000000000000000000000000000000000 PUSH0 MSTORE PUSH1 0x11 PUSH1 0x4 MSTORE PUSH1 0x24 PUSH0 REVERT JUMPDEST PUSH0 PUSH2 0x418 DUP3 PUSH2 0x182 JUMP JUMPDEST SWAP2 POP PUSH0 DUP3 SUB PUSH2 0x42A JUMPI PUSH2 0x429 PUSH2 0x3E1 JUMP JUMPDEST JUMPDEST PUSH1 0x1 DUP3 SUB SWAP1 POP SWAP2 SWAP1 POP JUMP JUMPDEST PUSH32 0x4E487B7100000000000000000000000000000000000000000000000000000000 PUSH0 MSTORE PUSH1 0x22 PUSH1 0x4 MSTORE PUSH1 0x24 PUSH0 REVERT JUMPDEST PUSH0 PUSH1 0x2 DUP3 DIV SWAP1 POP PUSH1 0x1 DUP3 AND DUP1 PUSH2 0x479 JUMPI PUSH1 0x7F DUP3 AND SWAP2 POP JUMPDEST PUSH1 0x20 DUP3 LT DUP2 SUB PUSH2 0x48C JUMPI PUSH2 0x48B PUSH2 0x435 JUMP JUMPDEST JUMPDEST POP SWAP2 SWAP1 POP JUMP JUMPDEST PUSH0 DUP2 SWAP1 POP DUP2 PUSH0 MSTORE PUSH1 0x20 PUSH0 KECCAK256 SWAP1 POP SWAP2 SWAP1 POP JUMP JUMPDEST PUSH0 PUSH1 0x20 PUSH1 0x1F DUP4 ADD DIV SWAP1 POP SWAP2 SWAP1 POP JUMP JUMPDEST PUSH0 DUP3 DUP3 SHL SWAP1 POP SWAP3 SWAP2 POP POP JUMP JUMPDEST PUSH0 PUSH1 0x8 DUP4 MUL PUSH2 0x4EE PUSH32 0xFFFFFFFFFFFFFFFFFFFFFFFFFFFFFFFFFFFFFFFFFFFFFFFFFFFFFFFFFFFFFFFF DUP3 PUSH2 0x4B3 JUMP JUMPDEST PUSH2 0x4F8 DUP7 DUP4 PUSH2 0x4B3 JUMP JUMPDEST SWAP6 POP DUP1 NOT DUP5 AND SWAP4 POP DUP1 DUP7 AND DUP5 OR SWAP3 POP POP POP SWAP4 SWAP3 POP POP POP JUMP JUMPDEST PUSH0 DUP2 SWAP1 POP SWAP2 SWAP1 POP JUMP JUMPDEST PUSH0 PUSH2 0x533 PUSH2 0x52E PUSH2 0x529 DUP5 PUSH2 0x182 JUMP JUMPDEST PUSH2 0x510 JUMP JUMPDEST PUSH2 0x182 JUMP JUMPDEST SWAP1 POP SWAP2 SWAP1 POP JUMP JUMPDEST PUSH0 DUP2 SWAP1 POP SWAP2 SWAP1 POP JUMP JUMPDEST PUSH2 0x54C DUP4 PUSH2 0x519 JUMP JUMPDEST PUSH2 0x560 PUSH2 0x558 DUP3 PUSH2 0x53A JUMP JUMPDEST DUP5 DUP5 SLOAD PUSH2 0x4BF JUMP JUMPDEST DUP3 SSTORE POP POP POP POP JUMP JUMPDEST PUSH0 SWAP1 JUMP JUMPDEST PUSH2 0x574 PUSH2 0x568 JUMP JUMPDEST PUSH2 0x57F DUP2 DUP5 DUP5 PUSH2 0x543 JUMP JUMPDEST POP POP POP JUMP JUMPDEST JUMPDEST DUP2 DUP2 LT ISZERO PUSH2 0x5A2 JUMPI PUSH2 0x597 PUSH0 DUP3 PUSH2 0x56C JUMP JUMPDEST PUSH1 0x1 DUP2 ADD SWAP1 POP PUSH2 0x585 JUMP JUMPDEST POP POP JUMP JUMPDEST PUSH1 0x1F DUP3 GT ISZERO PUSH2 0x5E7 JUMPI PUSH2 0x5B8 DUP2 PUSH2 0x492 JUMP JUMPDEST PUSH2 0x5C1 DUP5 PUSH2 0x4A4 JUMP JUMPDEST DUP2 ADD PUSH1 0x20 DUP6 LT ISZERO PUSH2 0x5D0 JUMPI DUP2 SWAP1 POP JUMPDEST PUSH2 0x5E4 PUSH2 0x5DC DUP6 PUSH2 0x4A4 JUMP JUMPDEST DUP4 ADD DUP3 PUSH2 0x584 JUMP JUMPDEST POP POP JUMPDEST POP POP POP JUMP JUMPDEST PUSH0 DUP3 DUP3 SHR SWAP1 POP SWAP3 SWAP2 POP POP JUMP JUMPDEST PUSH0 PUSH2 0x607 PUSH0 NOT DUP5 PUSH1 0x8 MUL PUSH2 0x5EC JUMP JUMPDEST NOT DUP1 DUP4 AND SWAP2 POP POP SWAP3 SWAP2 POP POP JUMP JUMPDEST PUSH0 PUSH2 0x61F DUP4 DUP4 PUSH2 0x5F8 JUMP JUMPDEST SWAP2 POP DUP3 PUSH1 0x2 MUL DUP3 OR SWAP1 POP SWAP3 SWAP2 POP POP JUMP JUMPDEST PUSH2 0x638 DUP3 PUSH2 0x347 JUMP JUMPDEST PUSH8 0xFFFFFFFFFFFFFFFF DUP2 GT ISZERO PUSH2 0x651 JUMPI PUSH2 0x650 PUSH2 0x1DC JUMP JUMPDEST JUMPDEST PUSH2 0x65B DUP3 SLOAD PUSH2 0x462 JUMP JUMPDEST PUSH2 0x666 DUP3 DUP3 DUP6 PUSH2 0x5A6 JUMP JUMPDEST PUSH0 PUSH1 0x20 SWAP1 POP PUSH1 0x1F DUP4 GT PUSH1 0x1 DUP2 EQ PUSH2 0x697 JUMPI PUSH0 DUP5 ISZERO PUSH2 0x685 JUMPI DUP3 DUP8 ADD MLOAD SWAP1 POP JUMPDEST PUSH2 0x68F DUP6 DUP3 PUSH2 0x614 JUMP JUMPDEST DUP7 SSTORE POP PUSH2 0x6F6 JUMP JUMPDEST PUSH1 0x1F NOT DUP5 AND PUSH2 0x6A5 DUP7 PUSH2 0x492 JUMP JUMPDEST PUSH0 JUMPDEST DUP3 DUP2 LT ISZERO PUSH2 0x6CC JUMPI DUP5 DUP10 ADD MLOAD DUP3 SSTORE PUSH1 0x1 DUP3 ADD SWAP2 POP PUSH1 0x20 DUP6 ADD SWAP5 POP PUSH1 0x20 DUP2 ADD SWAP1 POP PUSH2 0x6A7 JUMP JUMPDEST DUP7 DUP4 LT ISZERO PUSH2 0x6E9 JUMPI DUP5 DUP10 ADD MLOAD PUSH2 0x6E5 PUSH1 0x1F DUP10 AND DUP3 PUSH2 0x5F8 JUMP JUMPDEST DUP4 SSTORE POP JUMPDEST PUSH1 0x1 PUSH1 0x2 DUP9 MUL ADD DUP9 SSTORE POP POP POP JUMPDEST POP POP POP POP POP POP JUMP JUMPDEST PUSH0 PUSH2 0x708 DUP3 PUSH2 0x182 JUMP JUMPDEST SWAP2 POP PUSH32 0xFFFFFFFFFFFFFFFFFFFFFFFFFFFFFFFFFFFFFFFFFFFFFFFFFFFFFFFFFFFFFFFF DUP3 SUB PUSH2 0x73A JUMPI PUSH2 0x739 PUSH2 0x3E1 JUMP JUMPDEST JUMPDEST PUSH1 0x1 DUP3 ADD SWAP1 POP SWAP2 SWAP1 POP JUMP INVALID LOG2 PUSH5 0x6970667358 0x22 SLT KECCAK256 LOG1 0xA6 CALLER DUP1 DUP12 SWAP8 ORIGIN SELFDESTRUCT 0xC6 0x1F MULMOD RETURNDATACOPY OR SWAP12 SELFBALANCE PUSH13 0x880D10D21DCF4E207E010CB9E SWAP13 PUSH17 0x6764736F6C634300081800330000000000 "
		},
		"gasEstimates": {
			"creation": {
				"codeDepositCost": "383000",
				"executionCost": "416",
				"totalCost": "383416"
			},
			"external": {
				"Posted()": "2425",
				"Update(string)": "infinite",
				"deleteTheLastPost()": "24474",
				"posting()": "infinite"
			}
		},
		"methodIdentifiers": {
			"Posted()": "2fcd4570",
			"Update(string)": "4795394c",
			"deleteTheLastPost()": "0097f127",
			"posting()": "ea2f2ab8"
		}
	},
	"abi": [
		{
			"inputs": [],
			"name": "Posted",
			"outputs": [
				{
					"internalType": "uint256",
					"name": "",
					"type": "uint256"
				}
			],
			"stateMutability": "view",
			"type": "function"
		},
		{
			"inputs": [
				{
					"internalType": "string",
					"name": "_tweet",
					"type": "string"
				}
			],
			"name": "Update",
			"outputs": [],
			"stateMutability": "nonpayable",
			"type": "function"
		},
		{
			"inputs": [],
			"name": "deleteTheLastPost",
			"outputs": [],
			"stateMutability": "nonpayable",
			"type": "function"
		},
		{
			"inputs": [],
			"name": "posting",
			"outputs": [
				{
					"internalType": "string",
					"name": "",
					"type": "string"
				}
			],
			"stateMutability": "view",
			"type": "function"
		}
	]
}